{"contracts/WorkloadToken.sol":{"WorkloadToken":{"abi":[{"inputs":[{"internalType":"string","name":"name_","type":"string"},{"internalType":"string","name":"symbol_","type":"string"},{"internalType":"uint256","name":"initialSupply","type":"uint256"}],"stateMutability":"nonpayable","type":"constructor"},{"anonymous":false,"inputs":[{"indexed":true,"internalType":"address","name":"owner","type":"address"},{"indexed":true,"internalType":"address","name":"spender","type":"address"},{"indexed":false,"internalType":"uint256","name":"value","type":"uint256"}],"name":"Approval","type":"event"},{"anonymous":false,"inputs":[{"indexed":true,"internalType":"address","name":"previousOwner","type":"address"},{"indexed":true,"internalType":"address","name":"newOwner","type":"address"}],"name":"OwnershipTransferred","type":"event"},{"anonymous":false,"inputs":[{"indexed":false,"internalType":"string","name":"toolName","type":"string"},{"indexed":false,"internalType":"uint256","name":"baseReward","type":"uint256"}],"name":"TaskRewardUpdated","type":"event"},{"anonymous":false,"inputs":[{"indexed":true,"internalType":"address","name":"from","type":"address"},{"indexed":true,"internalType":"address","name":"to","type":"address"},{"indexed":false,"internalType":"uint256","name":"value","type":"uint256"}],"name":"Transfer","type":"event"},{"anonymous":false,"inputs":[{"indexed":true,"internalType":"address","name":"verifier","type":"address"},{"indexed":false,"internalType":"bool","name":"authorized","type":"bool"}],"name":"VerifierAuthorized","type":"event"},{"anonymous":false,"inputs":[{"indexed":true,"internalType":"address","name":"user","type":"address"},{"indexed":false,"internalType":"string","name":"taskId","type":"string"},{"indexed":false,"internalType":"uint256","name":"reward","type":"uint256"}],"name":"WorkProofSubmitted","type":"event"},{"anonymous":false,"inputs":[{"indexed":false,"internalType":"string","name":"taskId","type":"string"},{"indexed":false,"internalType":"bool","name":"verified","type":"bool"}],"name":"WorkProofVerified","type":"event"},{"inputs":[],"name":"MAX_EXECUTION_TIME","outputs":[{"internalType":"uint256","name":"","type":"uint256"}],"stateMutability":"view","type":"function"},{"inputs":[],"name":"MAX_INPUT_SIZE","outputs":[{"internalType":"uint256","name":"","type":"uint256"}],"stateMutability":"view","type":"function"},{"inputs":[],"name":"MIN_EXECUTION_TIME","outputs":[{"internalType":"uint256","name":"","type":"uint256"}],"stateMutability":"view","type":"function"},{"inputs":[],"name":"MIN_INPUT_SIZE","outputs":[{"internalType":"uint256","name":"","type":"uint256"}],"stateMutability":"view","type":"function"},{"inputs":[{"internalType":"address","name":"owner","type":"address"},{"internalType":"address","name":"spender","type":"address"}],"name":"allowance","outputs":[{"internalType":"uint256","name":"","type":"uint256"}],"stateMutability":"view","type":"function"},{"inputs":[{"internalType":"address","name":"spender","type":"address"},{"internalType":"uint256","name":"amount","type":"uint256"}],"name":"approve","outputs":[{"internalType":"bool","name":"","type":"bool"}],"stateMutability":"nonpayable","type":"function"},{"inputs":[{"internalType":"address","name":"","type":"address"}],"name":"authorizedVerifiers","outputs":[{"internalType":"bool","name":"","type":"bool"}],"stateMutability":"view","type":"function"},{"inputs":[{"internalType":"address","name":"account","type":"address"}],"name":"balanceOf","outputs":[{"internalType":"uint256","name":"","type":"uint256"}],"stateMutability":"view","type":"function"},{"inputs":[{"internalType":"address[]","name":"recipients","type":"address[]"},{"internalType":"uint256[]","name":"amounts","type":"uint256[]"}],"name":"batchMint","outputs":[],"stateMutability":"nonpayable","type":"function"},{"inputs":[{"internalType":"uint256","name":"amount","type":"uint256"}],"name":"burn","outputs":[],"stateMutability":"nonpayable","type":"function"},{"inputs":[],"name":"decimals","outputs":[{"internalType":"uint8","name":"","type":"uint8"}],"stateMutability":"view","type":"function"},{"inputs":[{"internalType":"address","name":"spender","type":"address"},{"internalType":"uint256","name":"subtractedValue","type":"uint256"}],"name":"decreaseAllowance","outputs":[{"internalType":"bool","name":"","type":"bool"}],"stateMutability":"nonpayable","type":"function"},{"inputs":[{"internalType":"address","name":"user","type":"address"}],"name":"getUserWorkload","outputs":[{"internalType":"uint256","name":"totalTasks","type":"uint256"},{"internalType":"uint256","name":"totalTokensEarned","type":"uint256"},{"internalType":"uint256","name":"lastActivity","type":"uint256"}],"stateMutability":"view","type":"function"},{"inputs":[{"internalType":"string","name":"taskId","type":"string"}],"name":"getWorkProof","outputs":[{"internalType":"string","name":"","type":"string"},{"internalType":"string","name":"","type":"string"},{"internalType":"uint256","name":"","type":"uint256"},{"internalType":"uint256","name":"","type":"uint256"},{"internalType":"uint256","name":"","type":"uint256"},{"internalType":"uint256","name":"","type":"uint256"},{"internalType":"bytes32","name":"","type":"bytes32"},{"internalType":"bool","name":"","type":"bool"}],"stateMutability":"view","type":"function"},{"inputs":[{"internalType":"address","name":"spender","type":"address"},{"internalType":"uint256","name":"addedValue","type":"uint256"}],"name":"increaseAllowance","outputs":[{"internalType":"bool","name":"","type":"bool"}],"stateMutability":"nonpayable","type":"function"},{"inputs":[{"internalType":"address","name":"user","type":"address"},{"internalType":"string","name":"taskId","type":"string"}],"name":"isTaskCompleted","outputs":[{"internalType":"bool","name":"","type":"bool"}],"stateMutability":"view","type":"function"},{"inputs":[],"name":"name","outputs":[{"internalType":"string","name":"","type":"string"}],"stateMutability":"view","type":"function"},{"inputs":[],"name":"owner","outputs":[{"internalType":"address","name":"","type":"address"}],"stateMutability":"view","type":"function"},{"inputs":[],"name":"renounceOwnership","outputs":[],"stateMutability":"nonpayable","type":"function"},{"inputs":[{"internalType":"address","name":"verifier","type":"address"},{"internalType":"bool","name":"authorized","type":"bool"}],"name":"setVerifier","outputs":[],"stateMutability":"nonpayable","type":"function"},{"inputs":[{"internalType":"string","name":"taskId","type":"string"},{"internalType":"string","name":"toolName","type":"string"},{"internalType":"uint256","name":"inputSize","type":"uint256"},{"internalType":"uint256","name":"outputSize","type":"uint256"},{"internalType":"uint256","name":"executionTime","type":"uint256"},{"internalType":"uint256","name":"timestamp","type":"uint256"},{"internalType":"bytes32","name":"proofHash","type":"bytes32"}],"name":"submitWorkProof","outputs":[],"stateMutability":"nonpayable","type":"function"},{"inputs":[],"name":"symbol","outputs":[{"internalType":"string","name":"","type":"string"}],"stateMutability":"view","type":"function"},{"inputs":[{"internalType":"string","name":"","type":"string"}],"name":"taskRewards","outputs":[{"internalType":"string","name":"toolName","type":"string"},{"internalType":"uint256","name":"baseReward","type":"uint256"},{"internalType":"uint256","name":"timeMultiplier","type":"uint256"},{"internalType":"uint256","name":"sizeMultiplier","type":"uint256"},{"internalType":"bool","name":"active","type":"bool"}],"stateMutability":"view","type":"function"},{"inputs":[],"name":"totalSupply","outputs":[{"internalType":"uint256","name":"","type":"uint256"}],"stateMutability":"view","type":"function"},{"inputs":[{"internalType":"address","name":"to","type":"address"},{"internalType":"uint256","name":"amount","type":"uint256"}],"name":"transfer","outputs":[{"internalType":"bool","name":"","type":"bool"}],"stateMutability":"nonpayable","type":"function"},{"inputs":[{"internalType":"address","name":"from","type":"address"},{"internalType":"address","name":"to","type":"address"},{"internalType":"uint256","name":"amount","type":"uint256"}],"name":"transferFrom","outputs":[{"internalType":"bool","name":"","type":"bool"}],"stateMutability":"nonpayable","type":"function"},{"inputs":[{"internalType":"address","name":"newOwner","type":"address"}],"name":"transferOwnership","outputs":[],"stateMutability":"nonpayable","type":"function"},{"inputs":[{"internalType":"string","name":"toolName","type":"string"},{"internalType":"uint256","name":"baseReward","type":"uint256"},{"internalType":"uint256","name":"timeMultiplier","type":"uint256"},{"internalType":"uint256","name":"sizeMultiplier","type":"uint256"},{"internalType":"bool","name":"active","type":"bool"}],"name":"updateTaskReward","outputs":[],"stateMutability":"nonpayable","type":"function"},{"inputs":[{"internalType":"address","name":"","type":"address"}],"name":"userWorkloads","outputs":[{"internalType":"uint256","name":"totalTasks","type":"uint256"},{"internalType":"uint256","name":"totalTokensEarned","type":"uint256"},{"internalType":"uint256","name":"lastActivity","type":"uint256"}],"stateMutability":"view","type":"function"},{"inputs":[{"internalType":"string","name":"","type":"string"}],"name":"workProofs","outputs":[{"internalType":"string","name":"taskId","type":"string"},{"internalType":"string","name":"toolName","type":"string"},{"internalType":"uint256","name":"inputSize","type":"uint256"},{"internalType":"uint256","name":"outputSize","type":"uint256"},{"internalType":"uint256","name":"executionTime","type":"uint256"},{"internalType":"uint256","name":"timestamp","type":"uint256"},{"internalType":"bytes32","name":"proofHash","type":"bytes32"},{"internalType":"bool","name":"verified","type":"bool"}],"stateMutability":"view","type":"function"}],"evm":{"bytecode":{"linkReferences":{},"object":"60806040523480156200001157600080fd5b5060405162002c7538038062002c75833981016040819052620000349162000640565b8282600362000044838262000741565b50600462000053828262000741565b505050620000706200006a620000ad60201b60201c565b620000b1565b60016006556200009a33620000886012600a62000922565b6200009490846200093a565b62000103565b620000a4620001c9565b5050506200096a565b3390565b600580546001600160a01b038381166001600160a01b0319831681179093556040519116919082907f8be0079c531659141344cd1fd0a4f28419497f9722a3daafe3b4186f6b6457e090600090a35050565b6001600160a01b0382166200015e5760405162461bcd60e51b815260206004820152601f60248201527f45524332303a206d696e7420746f20746865207a65726f206164647265737300604482015260640160405180910390fd5b806002600082825462000172919062000954565b90915550506001600160a01b038216600081815260208181526040808320805486019055518481527fddf252ad1be2c89b69c2b068fc378daa952ba7f163c4a11628f55a4df523b3ef910160405180910390a35050565b6040805160e08101909152600f60a082019081526e746578742d70726f63657373696e6760881b60c0830152815260208101620002096012600a62000922565b6200021690600a6200093a565b81526020016103e881526020016064815260200160011515815250600960405162000256906e746578742d70726f63657373696e6760881b8152600f0190565b9081526040519081900360200190208151819062000275908262000741565b5060208281015160018301556040808401516002840155606084015160038401556080909301516004909201805460ff191692151592909217909155815160e08101909252600e60a083019081526d696d6167652d616e616c7973697360901b60c084015282528101620002e7601290565b620002f490600a62000922565b620003019060326200093a565b81526020016107d081526020016103e8815260200160011515815250600960405162000341906d696d6167652d616e616c7973697360901b8152600e0190565b9081526040519081900360200190208151819062000360908262000741565b5060208281015160018301556040808401516002840155606084015160038401556080909301516004909201805460ff191692151592909217909155815160e08101909252601060a083019081526f3230ba3096b1b0b631bab630ba34b7b760811b60c084015282528101620003d4601290565b620003e190600a62000922565b620003ee9060056200093a565b81526020016101f48152602001603281526020016001151581525060096040516200042f906f3230ba3096b1b0b631bab630ba34b7b760811b815260100190565b908152604051908190036020019020815181906200044e908262000741565b5060208281015160018301556040808401516002840155606084015160038401556080909301516004909201805460ff191692151592909217909155815160e08101909252600f60a083019081526e3334b63296b1b7b73b32b939b4b7b760891b60c084015282528101620004c1601290565b620004ce90600a62000922565b620004db90601e6200093a565b81526020016105dc81526020016101f481526020016001151581525060096040516200051c906e3334b63296b1b7b73b32b939b4b7b760891b8152600f0190565b908152604051908190036020019020815181906200053b908262000741565b506020820151600182015560408201516002820155606082015160038201556080909101516004909101805460ff1916911515919091179055565b505050565b634e487b7160e01b600052604160045260246000fd5b600082601f830112620005a357600080fd5b81516001600160401b0380821115620005c057620005c06200057b565b604051601f8301601f19908116603f01168101908282118183101715620005eb57620005eb6200057b565b816040528381526020925086838588010111156200060857600080fd5b600091505b838210156200062c57858201830151818301840152908201906200060d565b600093810190920192909252949350505050565b6000806000606084860312156200065657600080fd5b83516001600160401b03808211156200066e57600080fd5b6200067c8783880162000591565b945060208601519150808211156200069357600080fd5b50620006a28682870162000591565b925050604084015190509250925092565b600181811c90821680620006c857607f821691505b602082108103620006e957634e487b7160e01b600052602260045260246000fd5b50919050565b601f8211156200057657600081815260208120601f850160051c81016020861015620007185750805b601f850160051c820191505b81811015620007395782815560010162000724565b505050505050565b81516001600160401b038111156200075d576200075d6200057b565b62000775816200076e8454620006b3565b84620006ef565b602080601f831160018114620007ad5760008415620007945750858301515b600019600386901b1c1916600185901b17855562000739565b600085815260208120601f198616915b82811015620007de57888601518255948401946001909101908401620007bd565b5085821015620007fd5787850151600019600388901b60f8161c191681555b5050505050600190811b01905550565b634e487b7160e01b600052601160045260246000fd5b600181815b80851115620008645781600019048211156200084857620008486200080d565b808516156200085657918102915b93841c939080029062000828565b509250929050565b6000826200087d575060016200091c565b816200088c575060006200091c565b8160018114620008a55760028114620008b057620008d0565b60019150506200091c565b60ff841115620008c457620008c46200080d565b50506001821b6200091c565b5060208310610133831016604e8410600b8410161715620008f5575081810a6200091c565b62000901838362000823565b80600019048211156200091857620009186200080d565b0290505b92915050565b60006200093360ff8416836200086c565b9392505050565b80820281158282048414176200091c576200091c6200080d565b808201808211156200091c576200091c6200080d565b6122fb806200097a6000396000f3fe608060405234801561001057600080fd5b50600436106101da5760003560e01c80636fb7f417116101045780639a891716116100a2578063d145e65f11610071578063d145e65f14610455578063dd62ed3e14610468578063f2fde38b1461047b578063fdde7d281461048e57600080fd5b80639a891716146103f9578063a457c2d71461041c578063a9059cbb1461042f578063ac9b56711461044257600080fd5b80637356fd12116100de5780637356fd12146103c35780638da5cb5b146103cc57806394581f0f146103e757806395d89b41146103f157600080fd5b80636fb7f4171461037f57806370a0823114610392578063715018a6146103bb57600080fd5b8063313ce5671161017c57806359d7c5a11161014b57806359d7c5a114610324578063614f3e1a1461032c57806368573107146103365780636ef158741461034957600080fd5b8063313ce567146102a357806335a06c60146102b257806339509351146102fc57806342966c681461030f57600080fd5b806318160ddd116101b857806318160ddd146102335780631f2acad21461024557806323b872dd1461026957806325f7803e1461027c57600080fd5b806306fdde03146101df578063095ea7b3146101fd578063147d737d14610220575b600080fd5b6101e76104a1565b6040516101f49190611aee565b60405180910390f35b61021061020b366004611b24565b610533565b60405190151581526020016101f4565b61021061022e366004611c05565b61054d565b6002545b6040519081526020016101f4565b610258610253366004611c53565b610594565b6040516101f4959493929190611c90565b610210610277366004611cc9565b610659565b61028f61028a366004611c53565b61067d565b6040516101f4989796959493929190611d05565b604051601281526020016101f4565b6102e16102c0366004611d62565b60076020526000908152604090208054600182015460029092015490919083565b604080519384526020840192909252908201526060016101f4565b61021061030a366004611b24565b61086c565b61032261031d366004611d7d565b61088e565b005b610237600181565b610237620493e081565b610322610344366004611e25565b61089b565b6102e1610357366004611d62565b6001600160a01b03166000908152600760205260409020805460018201546002909201549092565b61032261038d366004611eeb565b610950565b6102376103a0366004611d62565b6001600160a01b031660009081526020819052604090205490565b610322610a27565b6102376103e881565b6005546040516001600160a01b0390911681526020016101f4565b6102376298968081565b6101e7610a3b565b610210610407366004611d62565b600a6020526000908152604090205460ff1681565b61021061042a366004611b24565b610a4a565b61021061043d366004611b24565b610ac5565b610322610450366004611f56565b610ad3565b61028f610463366004611c53565b610b3a565b610237610476366004611f89565b610c9b565b610322610489366004611d62565b610cc6565b61032261049c366004611fb3565b610d3c565b6060600380546104b090612043565b80601f01602080910402602001604051908101604052809291908181526020018280546104dc90612043565b80156105295780601f106104fe57610100808354040283529160200191610529565b820191906000526020600020905b81548152906001019060200180831161050c57829003601f168201915b5050505050905090565b600033610541818585611141565b60019150505b92915050565b6001600160a01b038216600090815260076020526040808220905160039091019061057990849061207d565b9081526040519081900360200190205460ff16905092915050565b80516020818301810180516009825292820191909301209152805481906105ba90612043565b80601f01602080910402602001604051908101604052809291908181526020018280546105e690612043565b80156106335780601f1061060857610100808354040283529160200191610633565b820191906000526020600020905b81548152906001019060200180831161061657829003601f168201915b505050506001830154600284015460038501546004909501549394919390925060ff1685565b600033610667858285611265565b6106728585856112df565b506001949350505050565b606080600080600080600080600060088a60405161069b919061207d565b9081526020016040518091039020604051806101000160405290816000820180546106c590612043565b80601f01602080910402602001604051908101604052809291908181526020018280546106f190612043565b801561073e5780601f106107135761010080835404028352916020019161073e565b820191906000526020600020905b81548152906001019060200180831161072157829003601f168201915b5050505050815260200160018201805461075790612043565b80601f016020809104026020016040519081016040528092919081815260200182805461078390612043565b80156107d05780601f106107a5576101008083540402835291602001916107d0565b820191906000526020600020905b8154815290600101906020018083116107b357829003601f168201915b5050505050815260200160028201548152602001600382015481526020016004820154815260200160058201548152602001600682015481526020016007820160009054906101000a900460ff1615151515815250509050806000015181602001518260400151836060015184608001518560a001518660c001518760e001519850985098509850985098509850985050919395975091939597565b60003361054181858561087f8383610c9b565b61088991906120af565b611141565b6108983382611483565b50565b6108a36115b5565b80518251146108f15760405162461bcd60e51b8152602060048201526015602482015274e695b0e7bb84e995bfe5baa6e4b88de58cb9e9858d60581b60448201526064015b60405180910390fd5b60005b825181101561094b57610939838281518110610912576109126120c2565b602002602001015183838151811061092c5761092c6120c2565b602002602001015161160f565b80610943816120d8565b9150506108f4565b505050565b6109586115b5565b6040518060a00160405280868152602001858152602001848152602001838152602001821515815250600986604051610991919061207d565b908152604051908190036020019020815181906109ae908261213f565b50602082015160018201556040808301516002830155606083015160038301556080909201516004909101805460ff1916911515919091179055517fc36e62caa9f12b45304d4f0542acd0e1c8076b6e9b698d137e4d188b18ac7fda90610a1890879087906121ff565b60405180910390a15050505050565b610a2f6115b5565b610a3960006116ce565b565b6060600480546104b090612043565b60003381610a588286610c9b565b905083811015610ab85760405162461bcd60e51b815260206004820152602560248201527f45524332303a2064656372656173656420616c6c6f77616e63652062656c6f77604482015264207a65726f60d81b60648201526084016108e8565b6106728286868403611141565b6000336105418185856112df565b610adb6115b5565b6001600160a01b0382166000818152600a6020908152604091829020805460ff191685151590811790915591519182527f549bea741606fea6131feb992ab8021bef3bb5dfc19f6d30184944614a875459910160405180910390a25050565b8051602081830181018051600882529282019190930120915280548190610b6090612043565b80601f0160208091040260200160405190810160405280929190818152602001828054610b8c90612043565b8015610bd95780601f10610bae57610100808354040283529160200191610bd9565b820191906000526020600020905b815481529060010190602001808311610bbc57829003601f168201915b505050505090806001018054610bee90612043565b80601f0160208091040260200160405190810160405280929190818152602001828054610c1a90612043565b8015610c675780601f10610c3c57610100808354040283529160200191610c67565b820191906000526020600020905b815481529060010190602001808311610c4a57829003601f168201915b5050506002840154600385015460048601546005870154600688015460079098015496979396929550909350919060ff1688565b6001600160a01b03918216600090815260016020908152604080832093909416825291909152205490565b610cce6115b5565b6001600160a01b038116610d335760405162461bcd60e51b815260206004820152602660248201527f4f776e61626c653a206e6577206f776e657220697320746865207a65726f206160448201526564647265737360d01b60648201526084016108e8565b610898816116ce565b610d44611720565b6000875111610d8c5760405162461bcd60e51b8152602060048201526014602482015273725dddf2c550a4a2725c46f441def25c5d73d4dd60611b60448201526064016108e8565b6000865111610ddd5760405162461bcd60e51b815260206004820152601860248201527fe5b7a5e585b7e5908de7a7b0e4b88de883bde4b8bae7a9ba000000000000000060448201526064016108e8565b60018510158015610df15750629896808511155b610e3d5760405162461bcd60e51b815260206004820152601860248201527fe8be93e585a5e5a4a7e5b08fe8b685e587bae88c83e59bb4000000000000000060448201526064016108e8565b6103e88310158015610e525750620493e08311155b610e9e5760405162461bcd60e51b815260206004820152601860248201527fe689a7e8a18ce697b6e997b4e8b685e587bae88c83e59bb4000000000000000060448201526064016108e8565b600887604051610eae919061207d565b908152602001604051809103902060050154600014610f015760405162461bcd60e51b815260206004820152600f60248201526e1c97777cb1543cb6f65cb5b31cb395608b1b60448201526064016108e8565b600060405180610100016040528089815260200188815260200187815260200186815260200185815260200184815260200183815260200160001515815250905080600889604051610f53919061207d565b90815260405190819003602001902081518190610f70908261213f565b5060208201516001820190610f85908261213f565b5060408201516002820155606082015160038201556080820151600482015560a0820151600582015560c0820151600682015560e0909101516007909101805460ff19169115159190911790556000610fdd82611779565b905080156110f357600160088a604051610ff7919061207d565b908152604051908190036020019020600701805491151560ff199092169190911790556000611028898989896118d4565b336000908152600760205260408120805492935091908290611049836120d8565b91905055508181600101600082825461106291906120af565b90915550504260028201556040516001906003830190611083908e9061207d565b908152604051908190036020019020805491151560ff199092169190911790556110ad338361160f565b336001600160a01b03167f7cfd51919227239f8b24cd3907aa75aecb89c339517fd6fe0ae9d6377cc3ff498c846040516110e89291906121ff565b60405180910390a250505b7fe29ac9dd3bab60a3142b364ceea7dd7e0d15dab946f65b5372a2d971f5a759bf8982604051611124929190612221565b60405180910390a150506111386001600655565b50505050505050565b6001600160a01b0383166111a35760405162461bcd60e51b8152602060048201526024808201527f45524332303a20617070726f76652066726f6d20746865207a65726f206164646044820152637265737360e01b60648201526084016108e8565b6001600160a01b0382166112045760405162461bcd60e51b815260206004820152602260248201527f45524332303a20617070726f766520746f20746865207a65726f206164647265604482015261737360f01b60648201526084016108e8565b6001600160a01b0383811660008181526001602090815260408083209487168084529482529182902085905590518481527f8c5be1e5ebec7d5bd14f71427d1e84f3dd0314c0f7b2291e5b200ac8c7c3b925910160405180910390a3505050565b60006112718484610c9b565b905060001981146112d957818110156112cc5760405162461bcd60e51b815260206004820152601d60248201527f45524332303a20696e73756666696369656e7420616c6c6f77616e636500000060448201526064016108e8565b6112d98484848403611141565b50505050565b6001600160a01b0383166113435760405162461bcd60e51b815260206004820152602560248201527f45524332303a207472616e736665722066726f6d20746865207a65726f206164604482015264647265737360d81b60648201526084016108e8565b6001600160a01b0382166113a55760405162461bcd60e51b815260206004820152602360248201527f45524332303a207472616e7366657220746f20746865207a65726f206164647260448201526265737360e81b60648201526084016108e8565b6001600160a01b0383166000908152602081905260409020548181101561141d5760405162461bcd60e51b815260206004820152602660248201527f45524332303a207472616e7366657220616d6f756e7420657863656564732062604482015265616c616e636560d01b60648201526084016108e8565b6001600160a01b03848116600081815260208181526040808320878703905593871680835291849020805487019055925185815290927fddf252ad1be2c89b69c2b068fc378daa952ba7f163c4a11628f55a4df523b3ef910160405180910390a36112d9565b6001600160a01b0382166114e35760405162461bcd60e51b815260206004820152602160248201527f45524332303a206275726e2066726f6d20746865207a65726f206164647265736044820152607360f81b60648201526084016108e8565b6001600160a01b038216600090815260208190526040902054818110156115575760405162461bcd60e51b815260206004820152602260248201527f45524332303a206275726e20616d6f756e7420657863656564732062616c616e604482015261636560f01b60648201526084016108e8565b6001600160a01b0383166000818152602081815260408083208686039055600280548790039055518581529192917fddf252ad1be2c89b69c2b068fc378daa952ba7f163c4a11628f55a4df523b3ef910160405180910390a3505050565b6005546001600160a01b03163314610a395760405162461bcd60e51b815260206004820181905260248201527f4f776e61626c653a2063616c6c6572206973206e6f7420746865206f776e657260448201526064016108e8565b6001600160a01b0382166116655760405162461bcd60e51b815260206004820152601f60248201527f45524332303a206d696e7420746f20746865207a65726f20616464726573730060448201526064016108e8565b806002600082825461167791906120af565b90915550506001600160a01b038216600081815260208181526040808320805486019055518481527fddf252ad1be2c89b69c2b068fc378daa952ba7f163c4a11628f55a4df523b3ef910160405180910390a35050565b600580546001600160a01b038381166001600160a01b0319831681179093556040519116919082907f8be0079c531659141344cd1fd0a4f28419497f9722a3daafe3b4186f6b6457e090600090a35050565b6002600654036117725760405162461bcd60e51b815260206004820152601f60248201527f5265656e7472616e637947756172643a207265656e7472616e742063616c6c0060448201526064016108e8565b6002600655565b60008060098360200151604051611790919061207d565b90815260200160405180910390206040518060a00160405290816000820180546117b990612043565b80601f01602080910402602001604051908101604052809291908181526020018280546117e590612043565b80156118325780601f1061180757610100808354040283529160200191611832565b820191906000526020600020905b81548152906001019060200180831161181557829003601f168201915b505050918352505060018201546020820152600282015460408201526003820154606082015260049091015460ff16151560809182015281015190915061187c5750600092915050565b82516020808501516040808701516060880151608089015160a08a015193516000976118ac979096959101612245565b6040516020818303038152906040528051906020012090508360c00151811492505050919050565b6000806009866040516118e7919061207d565b90815260200160405180910390206040518060a001604052908160008201805461191090612043565b80601f016020809104026020016040519081016040528092919081815260200182805461193c90612043565b80156119895780601f1061195e57610100808354040283529160200191611989565b820191906000526020600020905b81548152906001019060200180831161196c57829003601f168201915b505050918352505060018201546020820152600282015460408201526003820154606082015260049091015460ff161515608091820152810151909150611a0a5760405162461bcd60e51b8152602060048201526015602482015274e4bbbbe58aa1e7b1bbe59e8be69caae6bf80e6b4bb60581b60448201526064016108e8565b602081015160408201516103e890611a22908661228c565b611a2c91906122a3565b611a3690826120af565b90506103e8826060015187611a4b919061228c565b611a5591906122a3565b611a5f90826120af565b90506103e8826060015186611a74919061228c565b611a7f90600261228c565b611a8991906122a3565b611a9390826120af565b979650505050505050565b60005b83811015611ab9578181015183820152602001611aa1565b50506000910152565b60008151808452611ada816020860160208601611a9e565b601f01601f19169290920160200192915050565b602081526000611b016020830184611ac2565b9392505050565b80356001600160a01b0381168114611b1f57600080fd5b919050565b60008060408385031215611b3757600080fd5b611b4083611b08565b946020939093013593505050565b634e487b7160e01b600052604160045260246000fd5b604051601f8201601f1916810167ffffffffffffffff81118282101715611b8d57611b8d611b4e565b604052919050565b600082601f830112611ba657600080fd5b813567ffffffffffffffff811115611bc057611bc0611b4e565b611bd3601f8201601f1916602001611b64565b818152846020838601011115611be857600080fd5b816020850160208301376000918101602001919091529392505050565b60008060408385031215611c1857600080fd5b611c2183611b08565b9150602083013567ffffffffffffffff811115611c3d57600080fd5b611c4985828601611b95565b9150509250929050565b600060208284031215611c6557600080fd5b813567ffffffffffffffff811115611c7c57600080fd5b611c8884828501611b95565b949350505050565b60a081526000611ca360a0830188611ac2565b905085602083015284604083015283606083015282151560808301529695505050505050565b600080600060608486031215611cde57600080fd5b611ce784611b08565b9250611cf560208501611b08565b9150604084013590509250925092565b6000610100808352611d198184018c611ac2565b90508281036020840152611d2d818b611ac2565b604084019990995250506060810195909552608085019390935260a084019190915260c0830152151560e09091015292915050565b600060208284031215611d7457600080fd5b611b0182611b08565b600060208284031215611d8f57600080fd5b5035919050565b600067ffffffffffffffff821115611db057611db0611b4e565b5060051b60200190565b600082601f830112611dcb57600080fd5b81356020611de0611ddb83611d96565b611b64565b82815260059290921b84018101918181019086841115611dff57600080fd5b8286015b84811015611e1a5780358352918301918301611e03565b509695505050505050565b60008060408385031215611e3857600080fd5b823567ffffffffffffffff80821115611e5057600080fd5b818501915085601f830112611e6457600080fd5b81356020611e74611ddb83611d96565b82815260059290921b84018101918181019089841115611e9357600080fd5b948201945b83861015611eb857611ea986611b08565b82529482019490820190611e98565b96505086013592505080821115611ece57600080fd5b50611c4985828601611dba565b80358015158114611b1f57600080fd5b600080600080600060a08688031215611f0357600080fd5b853567ffffffffffffffff811115611f1a57600080fd5b611f2688828901611b95565b955050602086013593506040860135925060608601359150611f4a60808701611edb565b90509295509295909350565b60008060408385031215611f6957600080fd5b611f7283611b08565b9150611f8060208401611edb565b90509250929050565b60008060408385031215611f9c57600080fd5b611fa583611b08565b9150611f8060208401611b08565b600080600080600080600060e0888a031215611fce57600080fd5b873567ffffffffffffffff80821115611fe657600080fd5b611ff28b838c01611b95565b985060208a013591508082111561200857600080fd5b506120158a828b01611b95565b979a9799505050506040860135956060810135956080820135955060a0820135945060c09091013592509050565b600181811c9082168061205757607f821691505b60208210810361207757634e487b7160e01b600052602260045260246000fd5b50919050565b6000825161208f818460208701611a9e565b9190910192915050565b634e487b7160e01b600052601160045260246000fd5b8082018082111561054757610547612099565b634e487b7160e01b600052603260045260246000fd5b6000600182016120ea576120ea612099565b5060010190565b601f82111561094b57600081815260208120601f850160051c810160208610156121185750805b601f850160051c820191505b8181101561213757828155600101612124565b505050505050565b815167ffffffffffffffff81111561215957612159611b4e565b61216d816121678454612043565b846120f1565b602080601f8311600181146121a2576000841561218a5750858301515b600019600386901b1c1916600185901b178555612137565b600085815260208120601f198616915b828110156121d1578886015182559484019460019091019084016121b2565b50858210156121ef5787850151600019600388901b60f8161c191681555b5050505050600190811b01905550565b6040815260006122126040830185611ac2565b90508260208301529392505050565b6040815260006122346040830185611ac2565b905082151560208301529392505050565b60008751612257818460208c01611a9e565b87519083019061226b818360208c01611a9e565b01958652505060208401929092526040830152606082015260800192915050565b808202811582820484141761054757610547612099565b6000826122c057634e487b7160e01b600052601260045260246000fd5b50049056fea264697066735822122072d3fdfc96c7aeb807636a18f0f398e06075dd4865bed27b9485d687d260396d64736f6c63430008130033","opcodes":"PUSH1 0x80 PUSH1 0x40 MSTORE CALLVALUE DUP1 ISZERO PUSH3 0x11 JUMPI PUSH1 0x0 DUP1 REVERT JUMPDEST POP PUSH1 0x40 MLOAD PUSH3 0x2C75 CODESIZE SUB DUP1 PUSH3 0x2C75 DUP4 CODECOPY DUP2 ADD PUSH1 0x40 DUP2 SWAP1 MSTORE PUSH3 0x34 SWAP2 PUSH3 0x640 JUMP JUMPDEST DUP3 DUP3 PUSH1 0x3 PUSH3 0x44 DUP4 DUP3 PUSH3 0x741 JUMP JUMPDEST POP PUSH1 0x4 PUSH3 0x53 DUP3 DUP3 PUSH3 0x741 JUMP JUMPDEST POP POP POP PUSH3 0x70 PUSH3 0x6A PUSH3 0xAD PUSH1 0x20 SHL PUSH1 0x20 SHR JUMP JUMPDEST PUSH3 0xB1 JUMP JUMPDEST PUSH1 0x1 PUSH1 0x6 SSTORE PUSH3 0x9A CALLER PUSH3 0x88 PUSH1 0x12 PUSH1 0xA PUSH3 0x922 JUMP JUMPDEST PUSH3 0x94 SWAP1 DUP5 PUSH3 0x93A JUMP JUMPDEST PUSH3 0x103 JUMP JUMPDEST PUSH3 0xA4 PUSH3 0x1C9 JUMP JUMPDEST POP POP POP PUSH3 0x96A JUMP JUMPDEST CALLER SWAP1 JUMP JUMPDEST PUSH1 0x5 DUP1 SLOAD PUSH1 0x1 PUSH1 0x1 PUSH1 0xA0 SHL SUB DUP4 DUP2 AND PUSH1 0x1 PUSH1 0x1 PUSH1 0xA0 SHL SUB NOT DUP4 AND DUP2 OR SWAP1 SWAP4 SSTORE PUSH1 0x40 MLOAD SWAP2 AND SWAP2 SWAP1 DUP3 SWAP1 PUSH32 0x8BE0079C531659141344CD1FD0A4F28419497F9722A3DAAFE3B4186F6B6457E0 SWAP1 PUSH1 0x0 SWAP1 LOG3 POP POP JUMP JUMPDEST PUSH1 0x1 PUSH1 0x1 PUSH1 0xA0 SHL SUB DUP3 AND PUSH3 0x15E JUMPI PUSH1 0x40 MLOAD PUSH3 0x461BCD PUSH1 0xE5 SHL DUP2 MSTORE PUSH1 0x20 PUSH1 0x4 DUP3 ADD MSTORE PUSH1 0x1F PUSH1 0x24 DUP3 ADD MSTORE PUSH32 0x45524332303A206D696E7420746F20746865207A65726F206164647265737300 PUSH1 0x44 DUP3 ADD MSTORE PUSH1 0x64 ADD PUSH1 0x40 MLOAD DUP1 SWAP2 SUB SWAP1 REVERT JUMPDEST DUP1 PUSH1 0x2 PUSH1 0x0 DUP3 DUP3 SLOAD PUSH3 0x172 SWAP2 SWAP1 PUSH3 0x954 JUMP JUMPDEST SWAP1 SWAP2 SSTORE POP POP PUSH1 0x1 PUSH1 0x1 PUSH1 0xA0 SHL SUB DUP3 AND PUSH1 0x0 DUP2 DUP2 MSTORE PUSH1 0x20 DUP2 DUP2 MSTORE PUSH1 0x40 DUP1 DUP4 KECCAK256 DUP1 SLOAD DUP7 ADD SWAP1 SSTORE MLOAD DUP5 DUP2 MSTORE PUSH32 0xDDF252AD1BE2C89B69C2B068FC378DAA952BA7F163C4A11628F55A4DF523B3EF SWAP2 ADD PUSH1 0x40 MLOAD DUP1 SWAP2 SUB SWAP1 LOG3 POP POP JUMP JUMPDEST PUSH1 0x40 DUP1 MLOAD PUSH1 0xE0 DUP2 ADD SWAP1 SWAP2 MSTORE PUSH1 0xF PUSH1 0xA0 DUP3 ADD SWAP1 DUP2 MSTORE PUSH15 0x746578742D70726F63657373696E67 PUSH1 0x88 SHL PUSH1 0xC0 DUP4 ADD MSTORE DUP2 MSTORE PUSH1 0x20 DUP2 ADD PUSH3 0x209 PUSH1 0x12 PUSH1 0xA PUSH3 0x922 JUMP JUMPDEST PUSH3 0x216 SWAP1 PUSH1 0xA PUSH3 0x93A JUMP JUMPDEST DUP2 MSTORE PUSH1 0x20 ADD PUSH2 0x3E8 DUP2 MSTORE PUSH1 0x20 ADD PUSH1 0x64 DUP2 MSTORE PUSH1 0x20 ADD PUSH1 0x1 ISZERO ISZERO DUP2 MSTORE POP PUSH1 0x9 PUSH1 0x40 MLOAD PUSH3 0x256 SWAP1 PUSH15 0x746578742D70726F63657373696E67 PUSH1 0x88 SHL DUP2 MSTORE PUSH1 0xF ADD SWAP1 JUMP JUMPDEST SWAP1 DUP2 MSTORE PUSH1 0x40 MLOAD SWAP1 DUP2 SWAP1 SUB PUSH1 0x20 ADD SWAP1 KECCAK256 DUP2 MLOAD DUP2 SWAP1 PUSH3 0x275 SWAP1 DUP3 PUSH3 0x741 JUMP JUMPDEST POP PUSH1 0x20 DUP3 DUP2 ADD MLOAD PUSH1 0x1 DUP4 ADD SSTORE PUSH1 0x40 DUP1 DUP5 ADD MLOAD PUSH1 0x2 DUP5 ADD SSTORE PUSH1 0x60 DUP5 ADD MLOAD PUSH1 0x3 DUP5 ADD SSTORE PUSH1 0x80 SWAP1 SWAP4 ADD MLOAD PUSH1 0x4 SWAP1 SWAP3 ADD DUP1 SLOAD PUSH1 0xFF NOT AND SWAP3 ISZERO ISZERO SWAP3 SWAP1 SWAP3 OR SWAP1 SWAP2 SSTORE DUP2 MLOAD PUSH1 0xE0 DUP2 ADD SWAP1 SWAP3 MSTORE PUSH1 0xE PUSH1 0xA0 DUP4 ADD SWAP1 DUP2 MSTORE PUSH14 0x696D6167652D616E616C79736973 PUSH1 0x90 SHL PUSH1 0xC0 DUP5 ADD MSTORE DUP3 MSTORE DUP2 ADD PUSH3 0x2E7 PUSH1 0x12 SWAP1 JUMP JUMPDEST PUSH3 0x2F4 SWAP1 PUSH1 0xA PUSH3 0x922 JUMP JUMPDEST PUSH3 0x301 SWAP1 PUSH1 0x32 PUSH3 0x93A JUMP JUMPDEST DUP2 MSTORE PUSH1 0x20 ADD PUSH2 0x7D0 DUP2 MSTORE PUSH1 0x20 ADD PUSH2 0x3E8 DUP2 MSTORE PUSH1 0x20 ADD PUSH1 0x1 ISZERO ISZERO DUP2 MSTORE POP PUSH1 0x9 PUSH1 0x40 MLOAD PUSH3 0x341 SWAP1 PUSH14 0x696D6167652D616E616C79736973 PUSH1 0x90 SHL DUP2 MSTORE PUSH1 0xE ADD SWAP1 JUMP JUMPDEST SWAP1 DUP2 MSTORE PUSH1 0x40 MLOAD SWAP1 DUP2 SWAP1 SUB PUSH1 0x20 ADD SWAP1 KECCAK256 DUP2 MLOAD DUP2 SWAP1 PUSH3 0x360 SWAP1 DUP3 PUSH3 0x741 JUMP JUMPDEST POP PUSH1 0x20 DUP3 DUP2 ADD MLOAD PUSH1 0x1 DUP4 ADD SSTORE PUSH1 0x40 DUP1 DUP5 ADD MLOAD PUSH1 0x2 DUP5 ADD SSTORE PUSH1 0x60 DUP5 ADD MLOAD PUSH1 0x3 DUP5 ADD SSTORE PUSH1 0x80 SWAP1 SWAP4 ADD MLOAD PUSH1 0x4 SWAP1 SWAP3 ADD DUP1 SLOAD PUSH1 0xFF NOT AND SWAP3 ISZERO ISZERO SWAP3 SWAP1 SWAP3 OR SWAP1 SWAP2 SSTORE DUP2 MLOAD PUSH1 0xE0 DUP2 ADD SWAP1 SWAP3 MSTORE PUSH1 0x10 PUSH1 0xA0 DUP4 ADD SWAP1 DUP2 MSTORE PUSH16 0x3230BA3096B1B0B631BAB630BA34B7B7 PUSH1 0x81 SHL PUSH1 0xC0 DUP5 ADD MSTORE DUP3 MSTORE DUP2 ADD PUSH3 0x3D4 PUSH1 0x12 SWAP1 JUMP JUMPDEST PUSH3 0x3E1 SWAP1 PUSH1 0xA PUSH3 0x922 JUMP JUMPDEST PUSH3 0x3EE SWAP1 PUSH1 0x5 PUSH3 0x93A JUMP JUMPDEST DUP2 MSTORE PUSH1 0x20 ADD PUSH2 0x1F4 DUP2 MSTORE PUSH1 0x20 ADD PUSH1 0x32 DUP2 MSTORE PUSH1 0x20 ADD PUSH1 0x1 ISZERO ISZERO DUP2 MSTORE POP PUSH1 0x9 PUSH1 0x40 MLOAD PUSH3 0x42F SWAP1 PUSH16 0x3230BA3096B1B0B631BAB630BA34B7B7 PUSH1 0x81 SHL DUP2 MSTORE PUSH1 0x10 ADD SWAP1 JUMP JUMPDEST SWAP1 DUP2 MSTORE PUSH1 0x40 MLOAD SWAP1 DUP2 SWAP1 SUB PUSH1 0x20 ADD SWAP1 KECCAK256 DUP2 MLOAD DUP2 SWAP1 PUSH3 0x44E SWAP1 DUP3 PUSH3 0x741 JUMP JUMPDEST POP PUSH1 0x20 DUP3 DUP2 ADD MLOAD PUSH1 0x1 DUP4 ADD SSTORE PUSH1 0x40 DUP1 DUP5 ADD MLOAD PUSH1 0x2 DUP5 ADD SSTORE PUSH1 0x60 DUP5 ADD MLOAD PUSH1 0x3 DUP5 ADD SSTORE PUSH1 0x80 SWAP1 SWAP4 ADD MLOAD PUSH1 0x4 SWAP1 SWAP3 ADD DUP1 SLOAD PUSH1 0xFF NOT AND SWAP3 ISZERO ISZERO SWAP3 SWAP1 SWAP3 OR SWAP1 SWAP2 SSTORE DUP2 MLOAD PUSH1 0xE0 DUP2 ADD SWAP1 SWAP3 MSTORE PUSH1 0xF PUSH1 0xA0 DUP4 ADD SWAP1 DUP2 MSTORE PUSH15 0x3334B63296B1B7B73B32B939B4B7B7 PUSH1 0x89 SHL PUSH1 0xC0 DUP5 ADD MSTORE DUP3 MSTORE DUP2 ADD PUSH3 0x4C1 PUSH1 0x12 SWAP1 JUMP JUMPDEST PUSH3 0x4CE SWAP1 PUSH1 0xA PUSH3 0x922 JUMP JUMPDEST PUSH3 0x4DB SWAP1 PUSH1 0x1E PUSH3 0x93A JUMP JUMPDEST DUP2 MSTORE PUSH1 0x20 ADD PUSH2 0x5DC DUP2 MSTORE PUSH1 0x20 ADD PUSH2 0x1F4 DUP2 MSTORE PUSH1 0x20 ADD PUSH1 0x1 ISZERO ISZERO DUP2 MSTORE POP PUSH1 0x9 PUSH1 0x40 MLOAD PUSH3 0x51C SWAP1 PUSH15 0x3334B63296B1B7B73B32B939B4B7B7 PUSH1 0x89 SHL DUP2 MSTORE PUSH1 0xF ADD SWAP1 JUMP JUMPDEST SWAP1 DUP2 MSTORE PUSH1 0x40 MLOAD SWAP1 DUP2 SWAP1 SUB PUSH1 0x20 ADD SWAP1 KECCAK256 DUP2 MLOAD DUP2 SWAP1 PUSH3 0x53B SWAP1 DUP3 PUSH3 0x741 JUMP JUMPDEST POP PUSH1 0x20 DUP3 ADD MLOAD PUSH1 0x1 DUP3 ADD SSTORE PUSH1 0x40 DUP3 ADD MLOAD PUSH1 0x2 DUP3 ADD SSTORE PUSH1 0x60 DUP3 ADD MLOAD PUSH1 0x3 DUP3 ADD SSTORE PUSH1 0x80 SWAP1 SWAP2 ADD MLOAD PUSH1 0x4 SWAP1 SWAP2 ADD DUP1 SLOAD PUSH1 0xFF NOT AND SWAP2 ISZERO ISZERO SWAP2 SWAP1 SWAP2 OR SWAP1 SSTORE JUMP JUMPDEST POP POP POP JUMP JUMPDEST PUSH4 0x4E487B71 PUSH1 0xE0 SHL PUSH1 0x0 MSTORE PUSH1 0x41 PUSH1 0x4 MSTORE PUSH1 0x24 PUSH1 0x0 REVERT JUMPDEST PUSH1 0x0 DUP3 PUSH1 0x1F DUP4 ADD SLT PUSH3 0x5A3 JUMPI PUSH1 0x0 DUP1 REVERT JUMPDEST DUP2 MLOAD PUSH1 0x1 PUSH1 0x1 PUSH1 0x40 SHL SUB DUP1 DUP3 GT ISZERO PUSH3 0x5C0 JUMPI PUSH3 0x5C0 PUSH3 0x57B JUMP JUMPDEST PUSH1 0x40 MLOAD PUSH1 0x1F DUP4 ADD PUSH1 0x1F NOT SWAP1 DUP2 AND PUSH1 0x3F ADD AND DUP2 ADD SWAP1 DUP3 DUP3 GT DUP2 DUP4 LT OR ISZERO PUSH3 0x5EB JUMPI PUSH3 0x5EB PUSH3 0x57B JUMP JUMPDEST DUP2 PUSH1 0x40 MSTORE DUP4 DUP2 MSTORE PUSH1 0x20 SWAP3 POP DUP7 DUP4 DUP6 DUP9 ADD ADD GT ISZERO PUSH3 0x608 JUMPI PUSH1 0x0 DUP1 REVERT JUMPDEST PUSH1 0x0 SWAP2 POP JUMPDEST DUP4 DUP3 LT ISZERO PUSH3 0x62C JUMPI DUP6 DUP3 ADD DUP4 ADD MLOAD DUP2 DUP4 ADD DUP5 ADD MSTORE SWAP1 DUP3 ADD SWAP1 PUSH3 0x60D JUMP JUMPDEST PUSH1 0x0 SWAP4 DUP2 ADD SWAP1 SWAP3 ADD SWAP3 SWAP1 SWAP3 MSTORE SWAP5 SWAP4 POP POP POP POP JUMP JUMPDEST PUSH1 0x0 DUP1 PUSH1 0x0 PUSH1 0x60 DUP5 DUP7 SUB SLT ISZERO PUSH3 0x656 JUMPI PUSH1 0x0 DUP1 REVERT JUMPDEST DUP4 MLOAD PUSH1 0x1 PUSH1 0x1 PUSH1 0x40 SHL SUB DUP1 DUP3 GT ISZERO PUSH3 0x66E JUMPI PUSH1 0x0 DUP1 REVERT JUMPDEST PUSH3 0x67C DUP8 DUP4 DUP9 ADD PUSH3 0x591 JUMP JUMPDEST SWAP5 POP PUSH1 0x20 DUP7 ADD MLOAD SWAP2 POP DUP1 DUP3 GT ISZERO PUSH3 0x693 JUMPI PUSH1 0x0 DUP1 REVERT JUMPDEST POP PUSH3 0x6A2 DUP7 DUP3 DUP8 ADD PUSH3 0x591 JUMP JUMPDEST SWAP3 POP POP PUSH1 0x40 DUP5 ADD MLOAD SWAP1 POP SWAP3 POP SWAP3 POP SWAP3 JUMP JUMPDEST PUSH1 0x1 DUP2 DUP2 SHR SWAP1 DUP3 AND DUP1 PUSH3 0x6C8 JUMPI PUSH1 0x7F DUP3 AND SWAP2 POP JUMPDEST PUSH1 0x20 DUP3 LT DUP2 SUB PUSH3 0x6E9 JUMPI PUSH4 0x4E487B71 PUSH1 0xE0 SHL PUSH1 0x0 MSTORE PUSH1 0x22 PUSH1 0x4 MSTORE PUSH1 0x24 PUSH1 0x0 REVERT JUMPDEST POP SWAP2 SWAP1 POP JUMP JUMPDEST PUSH1 0x1F DUP3 GT ISZERO PUSH3 0x576 JUMPI PUSH1 0x0 DUP2 DUP2 MSTORE PUSH1 0x20 DUP2 KECCAK256 PUSH1 0x1F DUP6 ADD PUSH1 0x5 SHR DUP2 ADD PUSH1 0x20 DUP7 LT ISZERO PUSH3 0x718 JUMPI POP DUP1 JUMPDEST PUSH1 0x1F DUP6 ADD PUSH1 0x5 SHR DUP3 ADD SWAP2 POP JUMPDEST DUP2 DUP2 LT ISZERO PUSH3 0x739 JUMPI DUP3 DUP2 SSTORE PUSH1 0x1 ADD PUSH3 0x724 JUMP JUMPDEST POP POP POP POP POP POP JUMP JUMPDEST DUP2 MLOAD PUSH1 0x1 PUSH1 0x1 PUSH1 0x40 SHL SUB DUP2 GT ISZERO PUSH3 0x75D JUMPI PUSH3 0x75D PUSH3 0x57B JUMP JUMPDEST PUSH3 0x775 DUP2 PUSH3 0x76E DUP5 SLOAD PUSH3 0x6B3 JUMP JUMPDEST DUP5 PUSH3 0x6EF JUMP JUMPDEST PUSH1 0x20 DUP1 PUSH1 0x1F DUP4 GT PUSH1 0x1 DUP2 EQ PUSH3 0x7AD JUMPI PUSH1 0x0 DUP5 ISZERO PUSH3 0x794 JUMPI POP DUP6 DUP4 ADD MLOAD JUMPDEST PUSH1 0x0 NOT PUSH1 0x3 DUP7 SWAP1 SHL SHR NOT AND PUSH1 0x1 DUP6 SWAP1 SHL OR DUP6 SSTORE PUSH3 0x739 JUMP JUMPDEST PUSH1 0x0 DUP6 DUP2 MSTORE PUSH1 0x20 DUP2 KECCAK256 PUSH1 0x1F NOT DUP7 AND SWAP2 JUMPDEST DUP3 DUP2 LT ISZERO PUSH3 0x7DE JUMPI DUP9 DUP7 ADD MLOAD DUP3 SSTORE SWAP5 DUP5 ADD SWAP5 PUSH1 0x1 SWAP1 SWAP2 ADD SWAP1 DUP5 ADD PUSH3 0x7BD JUMP JUMPDEST POP DUP6 DUP3 LT ISZERO PUSH3 0x7FD JUMPI DUP8 DUP6 ADD MLOAD PUSH1 0x0 NOT PUSH1 0x3 DUP9 SWAP1 SHL PUSH1 0xF8 AND SHR NOT AND DUP2 SSTORE JUMPDEST POP POP POP POP POP PUSH1 0x1 SWAP1 DUP2 SHL ADD SWAP1 SSTORE POP JUMP JUMPDEST PUSH4 0x4E487B71 PUSH1 0xE0 SHL PUSH1 0x0 MSTORE PUSH1 0x11 PUSH1 0x4 MSTORE PUSH1 0x24 PUSH1 0x0 REVERT JUMPDEST PUSH1 0x1 DUP2 DUP2 JUMPDEST DUP1 DUP6 GT ISZERO PUSH3 0x864 JUMPI DUP2 PUSH1 0x0 NOT DIV DUP3 GT ISZERO PUSH3 0x848 JUMPI PUSH3 0x848 PUSH3 0x80D JUMP JUMPDEST DUP1 DUP6 AND ISZERO PUSH3 0x856 JUMPI SWAP2 DUP2 MUL SWAP2 JUMPDEST SWAP4 DUP5 SHR SWAP4 SWAP1 DUP1 MUL SWAP1 PUSH3 0x828 JUMP JUMPDEST POP SWAP3 POP SWAP3 SWAP1 POP JUMP JUMPDEST PUSH1 0x0 DUP3 PUSH3 0x87D JUMPI POP PUSH1 0x1 PUSH3 0x91C JUMP JUMPDEST DUP2 PUSH3 0x88C JUMPI POP PUSH1 0x0 PUSH3 0x91C JUMP JUMPDEST DUP2 PUSH1 0x1 DUP2 EQ PUSH3 0x8A5 JUMPI PUSH1 0x2 DUP2 EQ PUSH3 0x8B0 JUMPI PUSH3 0x8D0 JUMP JUMPDEST PUSH1 0x1 SWAP2 POP POP PUSH3 0x91C JUMP JUMPDEST PUSH1 0xFF DUP5 GT ISZERO PUSH3 0x8C4 JUMPI PUSH3 0x8C4 PUSH3 0x80D JUMP JUMPDEST POP POP PUSH1 0x1 DUP3 SHL PUSH3 0x91C JUMP JUMPDEST POP PUSH1 0x20 DUP4 LT PUSH2 0x133 DUP4 LT AND PUSH1 0x4E DUP5 LT PUSH1 0xB DUP5 LT AND OR ISZERO PUSH3 0x8F5 JUMPI POP DUP2 DUP2 EXP PUSH3 0x91C JUMP JUMPDEST PUSH3 0x901 DUP4 DUP4 PUSH3 0x823 JUMP JUMPDEST DUP1 PUSH1 0x0 NOT DIV DUP3 GT ISZERO PUSH3 0x918 JUMPI PUSH3 0x918 PUSH3 0x80D JUMP JUMPDEST MUL SWAP1 POP JUMPDEST SWAP3 SWAP2 POP POP JUMP JUMPDEST PUSH1 0x0 PUSH3 0x933 PUSH1 0xFF DUP5 AND DUP4 PUSH3 0x86C JUMP JUMPDEST SWAP4 SWAP3 POP POP POP JUMP JUMPDEST DUP1 DUP3 MUL DUP2 ISZERO DUP3 DUP3 DIV DUP5 EQ OR PUSH3 0x91C JUMPI PUSH3 0x91C PUSH3 0x80D JUMP JUMPDEST DUP1 DUP3 ADD DUP1 DUP3 GT ISZERO PUSH3 0x91C JUMPI PUSH3 0x91C PUSH3 0x80D JUMP JUMPDEST PUSH2 0x22FB DUP1 PUSH3 0x97A PUSH1 0x0 CODECOPY PUSH1 0x0 RETURN INVALID PUSH1 0x80 PUSH1 0x40 MSTORE CALLVALUE DUP1 ISZERO PUSH2 0x10 JUMPI PUSH1 0x0 DUP1 REVERT JUMPDEST POP PUSH1 0x4 CALLDATASIZE LT PUSH2 0x1DA JUMPI PUSH1 0x0 CALLDATALOAD PUSH1 0xE0 SHR DUP1 PUSH4 0x6FB7F417 GT PUSH2 0x104 JUMPI DUP1 PUSH4 0x9A891716 GT PUSH2 0xA2 JUMPI DUP1 PUSH4 0xD145E65F GT PUSH2 0x71 JUMPI DUP1 PUSH4 0xD145E65F EQ PUSH2 0x455 JUMPI DUP1 PUSH4 0xDD62ED3E EQ PUSH2 0x468 JUMPI DUP1 PUSH4 0xF2FDE38B EQ PUSH2 0x47B JUMPI DUP1 PUSH4 0xFDDE7D28 EQ PUSH2 0x48E JUMPI PUSH1 0x0 DUP1 REVERT JUMPDEST DUP1 PUSH4 0x9A891716 EQ PUSH2 0x3F9 JUMPI DUP1 PUSH4 0xA457C2D7 EQ PUSH2 0x41C JUMPI DUP1 PUSH4 0xA9059CBB EQ PUSH2 0x42F JUMPI DUP1 PUSH4 0xAC9B5671 EQ PUSH2 0x442 JUMPI PUSH1 0x0 DUP1 REVERT JUMPDEST DUP1 PUSH4 0x7356FD12 GT PUSH2 0xDE JUMPI DUP1 PUSH4 0x7356FD12 EQ PUSH2 0x3C3 JUMPI DUP1 PUSH4 0x8DA5CB5B EQ PUSH2 0x3CC JUMPI DUP1 PUSH4 0x94581F0F EQ PUSH2 0x3E7 JUMPI DUP1 PUSH4 0x95D89B41 EQ PUSH2 0x3F1 JUMPI PUSH1 0x0 DUP1 REVERT JUMPDEST DUP1 PUSH4 0x6FB7F417 EQ PUSH2 0x37F JUMPI DUP1 PUSH4 0x70A08231 EQ PUSH2 0x392 JUMPI DUP1 PUSH4 0x715018A6 EQ PUSH2 0x3BB JUMPI PUSH1 0x0 DUP1 REVERT JUMPDEST DUP1 PUSH4 0x313CE567 GT PUSH2 0x17C JUMPI DUP1 PUSH4 0x59D7C5A1 GT PUSH2 0x14B JUMPI DUP1 PUSH4 0x59D7C5A1 EQ PUSH2 0x324 JUMPI DUP1 PUSH4 0x614F3E1A EQ PUSH2 0x32C JUMPI DUP1 PUSH4 0x68573107 EQ PUSH2 0x336 JUMPI DUP1 PUSH4 0x6EF15874 EQ PUSH2 0x349 JUMPI PUSH1 0x0 DUP1 REVERT JUMPDEST DUP1 PUSH4 0x313CE567 EQ PUSH2 0x2A3 JUMPI DUP1 PUSH4 0x35A06C60 EQ PUSH2 0x2B2 JUMPI DUP1 PUSH4 0x39509351 EQ PUSH2 0x2FC JUMPI DUP1 PUSH4 0x42966C68 EQ PUSH2 0x30F JUMPI PUSH1 0x0 DUP1 REVERT JUMPDEST DUP1 PUSH4 0x18160DDD GT PUSH2 0x1B8 JUMPI DUP1 PUSH4 0x18160DDD EQ PUSH2 0x233 JUMPI DUP1 PUSH4 0x1F2ACAD2 EQ PUSH2 0x245 JUMPI DUP1 PUSH4 0x23B872DD EQ PUSH2 0x269 JUMPI DUP1 PUSH4 0x25F7803E EQ PUSH2 0x27C JUMPI PUSH1 0x0 DUP1 REVERT JUMPDEST DUP1 PUSH4 0x6FDDE03 EQ PUSH2 0x1DF JUMPI DUP1 PUSH4 0x95EA7B3 EQ PUSH2 0x1FD JUMPI DUP1 PUSH4 0x147D737D EQ PUSH2 0x220 JUMPI JUMPDEST PUSH1 0x0 DUP1 REVERT JUMPDEST PUSH2 0x1E7 PUSH2 0x4A1 JUMP JUMPDEST PUSH1 0x40 MLOAD PUSH2 0x1F4 SWAP2 SWAP1 PUSH2 0x1AEE JUMP JUMPDEST PUSH1 0x40 MLOAD DUP1 SWAP2 SUB SWAP1 RETURN JUMPDEST PUSH2 0x210 PUSH2 0x20B CALLDATASIZE PUSH1 0x4 PUSH2 0x1B24 JUMP JUMPDEST PUSH2 0x533 JUMP JUMPDEST PUSH1 0x40 MLOAD SWAP1 ISZERO ISZERO DUP2 MSTORE PUSH1 0x20 ADD PUSH2 0x1F4 JUMP JUMPDEST PUSH2 0x210 PUSH2 0x22E CALLDATASIZE PUSH1 0x4 PUSH2 0x1C05 JUMP JUMPDEST PUSH2 0x54D JUMP JUMPDEST PUSH1 0x2 SLOAD JUMPDEST PUSH1 0x40 MLOAD SWAP1 DUP2 MSTORE PUSH1 0x20 ADD PUSH2 0x1F4 JUMP JUMPDEST PUSH2 0x258 PUSH2 0x253 CALLDATASIZE PUSH1 0x4 PUSH2 0x1C53 JUMP JUMPDEST PUSH2 0x594 JUMP JUMPDEST PUSH1 0x40 MLOAD PUSH2 0x1F4 SWAP6 SWAP5 SWAP4 SWAP3 SWAP2 SWAP1 PUSH2 0x1C90 JUMP JUMPDEST PUSH2 0x210 PUSH2 0x277 CALLDATASIZE PUSH1 0x4 PUSH2 0x1CC9 JUMP JUMPDEST PUSH2 0x659 JUMP JUMPDEST PUSH2 0x28F PUSH2 0x28A CALLDATASIZE PUSH1 0x4 PUSH2 0x1C53 JUMP JUMPDEST PUSH2 0x67D JUMP JUMPDEST PUSH1 0x40 MLOAD PUSH2 0x1F4 SWAP9 SWAP8 SWAP7 SWAP6 SWAP5 SWAP4 SWAP3 SWAP2 SWAP1 PUSH2 0x1D05 JUMP JUMPDEST PUSH1 0x40 MLOAD PUSH1 0x12 DUP2 MSTORE PUSH1 0x20 ADD PUSH2 0x1F4 JUMP JUMPDEST PUSH2 0x2E1 PUSH2 0x2C0 CALLDATASIZE PUSH1 0x4 PUSH2 0x1D62 JUMP JUMPDEST PUSH1 0x7 PUSH1 0x20 MSTORE PUSH1 0x0 SWAP1 DUP2 MSTORE PUSH1 0x40 SWAP1 KECCAK256 DUP1 SLOAD PUSH1 0x1 DUP3 ADD SLOAD PUSH1 0x2 SWAP1 SWAP3 ADD SLOAD SWAP1 SWAP2 SWAP1 DUP4 JUMP JUMPDEST PUSH1 0x40 DUP1 MLOAD SWAP4 DUP5 MSTORE PUSH1 0x20 DUP5 ADD SWAP3 SWAP1 SWAP3 MSTORE SWAP1 DUP3 ADD MSTORE PUSH1 0x60 ADD PUSH2 0x1F4 JUMP JUMPDEST PUSH2 0x210 PUSH2 0x30A CALLDATASIZE PUSH1 0x4 PUSH2 0x1B24 JUMP JUMPDEST PUSH2 0x86C JUMP JUMPDEST PUSH2 0x322 PUSH2 0x31D CALLDATASIZE PUSH1 0x4 PUSH2 0x1D7D JUMP JUMPDEST PUSH2 0x88E JUMP JUMPDEST STOP JUMPDEST PUSH2 0x237 PUSH1 0x1 DUP2 JUMP JUMPDEST PUSH2 0x237 PUSH3 0x493E0 DUP2 JUMP JUMPDEST PUSH2 0x322 PUSH2 0x344 CALLDATASIZE PUSH1 0x4 PUSH2 0x1E25 JUMP JUMPDEST PUSH2 0x89B JUMP JUMPDEST PUSH2 0x2E1 PUSH2 0x357 CALLDATASIZE PUSH1 0x4 PUSH2 0x1D62 JUMP JUMPDEST PUSH1 0x1 PUSH1 0x1 PUSH1 0xA0 SHL SUB AND PUSH1 0x0 SWAP1 DUP2 MSTORE PUSH1 0x7 PUSH1 0x20 MSTORE PUSH1 0x40 SWAP1 KECCAK256 DUP1 SLOAD PUSH1 0x1 DUP3 ADD SLOAD PUSH1 0x2 SWAP1 SWAP3 ADD SLOAD SWAP1 SWAP3 JUMP JUMPDEST PUSH2 0x322 PUSH2 0x38D CALLDATASIZE PUSH1 0x4 PUSH2 0x1EEB JUMP JUMPDEST PUSH2 0x950 JUMP JUMPDEST PUSH2 0x237 PUSH2 0x3A0 CALLDATASIZE PUSH1 0x4 PUSH2 0x1D62 JUMP JUMPDEST PUSH1 0x1 PUSH1 0x1 PUSH1 0xA0 SHL SUB AND PUSH1 0x0 SWAP1 DUP2 MSTORE PUSH1 0x20 DUP2 SWAP1 MSTORE PUSH1 0x40 SWAP1 KECCAK256 SLOAD SWAP1 JUMP JUMPDEST PUSH2 0x322 PUSH2 0xA27 JUMP JUMPDEST PUSH2 0x237 PUSH2 0x3E8 DUP2 JUMP JUMPDEST PUSH1 0x5 SLOAD PUSH1 0x40 MLOAD PUSH1 0x1 PUSH1 0x1 PUSH1 0xA0 SHL SUB SWAP1 SWAP2 AND DUP2 MSTORE PUSH1 0x20 ADD PUSH2 0x1F4 JUMP JUMPDEST PUSH2 0x237 PUSH3 0x989680 DUP2 JUMP JUMPDEST PUSH2 0x1E7 PUSH2 0xA3B JUMP JUMPDEST PUSH2 0x210 PUSH2 0x407 CALLDATASIZE PUSH1 0x4 PUSH2 0x1D62 JUMP JUMPDEST PUSH1 0xA PUSH1 0x20 MSTORE PUSH1 0x0 SWAP1 DUP2 MSTORE PUSH1 0x40 SWAP1 KECCAK256 SLOAD PUSH1 0xFF AND DUP2 JUMP JUMPDEST PUSH2 0x210 PUSH2 0x42A CALLDATASIZE PUSH1 0x4 PUSH2 0x1B24 JUMP JUMPDEST PUSH2 0xA4A JUMP JUMPDEST PUSH2 0x210 PUSH2 0x43D CALLDATASIZE PUSH1 0x4 PUSH2 0x1B24 JUMP JUMPDEST PUSH2 0xAC5 JUMP JUMPDEST PUSH2 0x322 PUSH2 0x450 CALLDATASIZE PUSH1 0x4 PUSH2 0x1F56 JUMP JUMPDEST PUSH2 0xAD3 JUMP JUMPDEST PUSH2 0x28F PUSH2 0x463 CALLDATASIZE PUSH1 0x4 PUSH2 0x1C53 JUMP JUMPDEST PUSH2 0xB3A JUMP JUMPDEST PUSH2 0x237 PUSH2 0x476 CALLDATASIZE PUSH1 0x4 PUSH2 0x1F89 JUMP JUMPDEST PUSH2 0xC9B JUMP JUMPDEST PUSH2 0x322 PUSH2 0x489 CALLDATASIZE PUSH1 0x4 PUSH2 0x1D62 JUMP JUMPDEST PUSH2 0xCC6 JUMP JUMPDEST PUSH2 0x322 PUSH2 0x49C CALLDATASIZE PUSH1 0x4 PUSH2 0x1FB3 JUMP JUMPDEST PUSH2 0xD3C JUMP JUMPDEST PUSH1 0x60 PUSH1 0x3 DUP1 SLOAD PUSH2 0x4B0 SWAP1 PUSH2 0x2043 JUMP JUMPDEST DUP1 PUSH1 0x1F ADD PUSH1 0x20 DUP1 SWAP2 DIV MUL PUSH1 0x20 ADD PUSH1 0x40 MLOAD SWAP1 DUP2 ADD PUSH1 0x40 MSTORE DUP1 SWAP3 SWAP2 SWAP1 DUP2 DUP2 MSTORE PUSH1 0x20 ADD DUP3 DUP1 SLOAD PUSH2 0x4DC SWAP1 PUSH2 0x2043 JUMP JUMPDEST DUP1 ISZERO PUSH2 0x529 JUMPI DUP1 PUSH1 0x1F LT PUSH2 0x4FE JUMPI PUSH2 0x100 DUP1 DUP4 SLOAD DIV MUL DUP4 MSTORE SWAP2 PUSH1 0x20 ADD SWAP2 PUSH2 0x529 JUMP JUMPDEST DUP3 ADD SWAP2 SWAP1 PUSH1 0x0 MSTORE PUSH1 0x20 PUSH1 0x0 KECCAK256 SWAP1 JUMPDEST DUP2 SLOAD DUP2 MSTORE SWAP1 PUSH1 0x1 ADD SWAP1 PUSH1 0x20 ADD DUP1 DUP4 GT PUSH2 0x50C JUMPI DUP3 SWAP1 SUB PUSH1 0x1F AND DUP3 ADD SWAP2 JUMPDEST POP POP POP POP POP SWAP1 POP SWAP1 JUMP JUMPDEST PUSH1 0x0 CALLER PUSH2 0x541 DUP2 DUP6 DUP6 PUSH2 0x1141 JUMP JUMPDEST PUSH1 0x1 SWAP2 POP POP JUMPDEST SWAP3 SWAP2 POP POP JUMP JUMPDEST PUSH1 0x1 PUSH1 0x1 PUSH1 0xA0 SHL SUB DUP3 AND PUSH1 0x0 SWAP1 DUP2 MSTORE PUSH1 0x7 PUSH1 0x20 MSTORE PUSH1 0x40 DUP1 DUP3 KECCAK256 SWAP1 MLOAD PUSH1 0x3 SWAP1 SWAP2 ADD SWAP1 PUSH2 0x579 SWAP1 DUP5 SWAP1 PUSH2 0x207D JUMP JUMPDEST SWAP1 DUP2 MSTORE PUSH1 0x40 MLOAD SWAP1 DUP2 SWAP1 SUB PUSH1 0x20 ADD SWAP1 KECCAK256 SLOAD PUSH1 0xFF AND SWAP1 POP SWAP3 SWAP2 POP POP JUMP JUMPDEST DUP1 MLOAD PUSH1 0x20 DUP2 DUP4 ADD DUP2 ADD DUP1 MLOAD PUSH1 0x9 DUP3 MSTORE SWAP3 DUP3 ADD SWAP2 SWAP1 SWAP4 ADD KECCAK256 SWAP2 MSTORE DUP1 SLOAD DUP2 SWAP1 PUSH2 0x5BA SWAP1 PUSH2 0x2043 JUMP JUMPDEST DUP1 PUSH1 0x1F ADD PUSH1 0x20 DUP1 SWAP2 DIV MUL PUSH1 0x20 ADD PUSH1 0x40 MLOAD SWAP1 DUP2 ADD PUSH1 0x40 MSTORE DUP1 SWAP3 SWAP2 SWAP1 DUP2 DUP2 MSTORE PUSH1 0x20 ADD DUP3 DUP1 SLOAD PUSH2 0x5E6 SWAP1 PUSH2 0x2043 JUMP JUMPDEST DUP1 ISZERO PUSH2 0x633 JUMPI DUP1 PUSH1 0x1F LT PUSH2 0x608 JUMPI PUSH2 0x100 DUP1 DUP4 SLOAD DIV MUL DUP4 MSTORE SWAP2 PUSH1 0x20 ADD SWAP2 PUSH2 0x633 JUMP JUMPDEST DUP3 ADD SWAP2 SWAP1 PUSH1 0x0 MSTORE PUSH1 0x20 PUSH1 0x0 KECCAK256 SWAP1 JUMPDEST DUP2 SLOAD DUP2 MSTORE SWAP1 PUSH1 0x1 ADD SWAP1 PUSH1 0x20 ADD DUP1 DUP4 GT PUSH2 0x616 JUMPI DUP3 SWAP1 SUB PUSH1 0x1F AND DUP3 ADD SWAP2 JUMPDEST POP POP POP POP PUSH1 0x1 DUP4 ADD SLOAD PUSH1 0x2 DUP5 ADD SLOAD PUSH1 0x3 DUP6 ADD SLOAD PUSH1 0x4 SWAP1 SWAP6 ADD SLOAD SWAP4 SWAP5 SWAP2 SWAP4 SWAP1 SWAP3 POP PUSH1 0xFF AND DUP6 JUMP JUMPDEST PUSH1 0x0 CALLER PUSH2 0x667 DUP6 DUP3 DUP6 PUSH2 0x1265 JUMP JUMPDEST PUSH2 0x672 DUP6 DUP6 DUP6 PUSH2 0x12DF JUMP JUMPDEST POP PUSH1 0x1 SWAP5 SWAP4 POP POP POP POP JUMP JUMPDEST PUSH1 0x60 DUP1 PUSH1 0x0 DUP1 PUSH1 0x0 DUP1 PUSH1 0x0 DUP1 PUSH1 0x0 PUSH1 0x8 DUP11 PUSH1 0x40 MLOAD PUSH2 0x69B SWAP2 SWAP1 PUSH2 0x207D JUMP JUMPDEST SWAP1 DUP2 MSTORE PUSH1 0x20 ADD PUSH1 0x40 MLOAD DUP1 SWAP2 SUB SWAP1 KECCAK256 PUSH1 0x40 MLOAD DUP1 PUSH2 0x100 ADD PUSH1 0x40 MSTORE SWAP1 DUP2 PUSH1 0x0 DUP3 ADD DUP1 SLOAD PUSH2 0x6C5 SWAP1 PUSH2 0x2043 JUMP JUMPDEST DUP1 PUSH1 0x1F ADD PUSH1 0x20 DUP1 SWAP2 DIV MUL PUSH1 0x20 ADD PUSH1 0x40 MLOAD SWAP1 DUP2 ADD PUSH1 0x40 MSTORE DUP1 SWAP3 SWAP2 SWAP1 DUP2 DUP2 MSTORE PUSH1 0x20 ADD DUP3 DUP1 SLOAD PUSH2 0x6F1 SWAP1 PUSH2 0x2043 JUMP JUMPDEST DUP1 ISZERO PUSH2 0x73E JUMPI DUP1 PUSH1 0x1F LT PUSH2 0x713 JUMPI PUSH2 0x100 DUP1 DUP4 SLOAD DIV MUL DUP4 MSTORE SWAP2 PUSH1 0x20 ADD SWAP2 PUSH2 0x73E JUMP JUMPDEST DUP3 ADD SWAP2 SWAP1 PUSH1 0x0 MSTORE PUSH1 0x20 PUSH1 0x0 KECCAK256 SWAP1 JUMPDEST DUP2 SLOAD DUP2 MSTORE SWAP1 PUSH1 0x1 ADD SWAP1 PUSH1 0x20 ADD DUP1 DUP4 GT PUSH2 0x721 JUMPI DUP3 SWAP1 SUB PUSH1 0x1F AND DUP3 ADD SWAP2 JUMPDEST POP POP POP POP POP DUP2 MSTORE PUSH1 0x20 ADD PUSH1 0x1 DUP3 ADD DUP1 SLOAD PUSH2 0x757 SWAP1 PUSH2 0x2043 JUMP JUMPDEST DUP1 PUSH1 0x1F ADD PUSH1 0x20 DUP1 SWAP2 DIV MUL PUSH1 0x20 ADD PUSH1 0x40 MLOAD SWAP1 DUP2 ADD PUSH1 0x40 MSTORE DUP1 SWAP3 SWAP2 SWAP1 DUP2 DUP2 MSTORE PUSH1 0x20 ADD DUP3 DUP1 SLOAD PUSH2 0x783 SWAP1 PUSH2 0x2043 JUMP JUMPDEST DUP1 ISZERO PUSH2 0x7D0 JUMPI DUP1 PUSH1 0x1F LT PUSH2 0x7A5 JUMPI PUSH2 0x100 DUP1 DUP4 SLOAD DIV MUL DUP4 MSTORE SWAP2 PUSH1 0x20 ADD SWAP2 PUSH2 0x7D0 JUMP JUMPDEST DUP3 ADD SWAP2 SWAP1 PUSH1 0x0 MSTORE PUSH1 0x20 PUSH1 0x0 KECCAK256 SWAP1 JUMPDEST DUP2 SLOAD DUP2 MSTORE SWAP1 PUSH1 0x1 ADD SWAP1 PUSH1 0x20 ADD DUP1 DUP4 GT PUSH2 0x7B3 JUMPI DUP3 SWAP1 SUB PUSH1 0x1F AND DUP3 ADD SWAP2 JUMPDEST POP POP POP POP POP DUP2 MSTORE PUSH1 0x20 ADD PUSH1 0x2 DUP3 ADD SLOAD DUP2 MSTORE PUSH1 0x20 ADD PUSH1 0x3 DUP3 ADD SLOAD DUP2 MSTORE PUSH1 0x20 ADD PUSH1 0x4 DUP3 ADD SLOAD DUP2 MSTORE PUSH1 0x20 ADD PUSH1 0x5 DUP3 ADD SLOAD DUP2 MSTORE PUSH1 0x20 ADD PUSH1 0x6 DUP3 ADD SLOAD DUP2 MSTORE PUSH1 0x20 ADD PUSH1 0x7 DUP3 ADD PUSH1 0x0 SWAP1 SLOAD SWAP1 PUSH2 0x100 EXP SWAP1 DIV PUSH1 0xFF AND ISZERO ISZERO ISZERO ISZERO DUP2 MSTORE POP POP SWAP1 POP DUP1 PUSH1 0x0 ADD MLOAD DUP2 PUSH1 0x20 ADD MLOAD DUP3 PUSH1 0x40 ADD MLOAD DUP4 PUSH1 0x60 ADD MLOAD DUP5 PUSH1 0x80 ADD MLOAD DUP6 PUSH1 0xA0 ADD MLOAD DUP7 PUSH1 0xC0 ADD MLOAD DUP8 PUSH1 0xE0 ADD MLOAD SWAP9 POP SWAP9 POP SWAP9 POP SWAP9 POP SWAP9 POP SWAP9 POP SWAP9 POP SWAP9 POP POP SWAP2 SWAP4 SWAP6 SWAP8 POP SWAP2 SWAP4 SWAP6 SWAP8 JUMP JUMPDEST PUSH1 0x0 CALLER PUSH2 0x541 DUP2 DUP6 DUP6 PUSH2 0x87F DUP4 DUP4 PUSH2 0xC9B JUMP JUMPDEST PUSH2 0x889 SWAP2 SWAP1 PUSH2 0x20AF JUMP JUMPDEST PUSH2 0x1141 JUMP JUMPDEST PUSH2 0x898 CALLER DUP3 PUSH2 0x1483 JUMP JUMPDEST POP JUMP JUMPDEST PUSH2 0x8A3 PUSH2 0x15B5 JUMP JUMPDEST DUP1 MLOAD DUP3 MLOAD EQ PUSH2 0x8F1 JUMPI PUSH1 0x40 MLOAD PUSH3 0x461BCD PUSH1 0xE5 SHL DUP2 MSTORE PUSH1 0x20 PUSH1 0x4 DUP3 ADD MSTORE PUSH1 0x15 PUSH1 0x24 DUP3 ADD MSTORE PUSH21 0xE695B0E7BB84E995BFE5BAA6E4B88DE58CB9E9858D PUSH1 0x58 SHL PUSH1 0x44 DUP3 ADD MSTORE PUSH1 0x64 ADD JUMPDEST PUSH1 0x40 MLOAD DUP1 SWAP2 SUB SWAP1 REVERT JUMPDEST PUSH1 0x0 JUMPDEST DUP3 MLOAD DUP2 LT ISZERO PUSH2 0x94B JUMPI PUSH2 0x939 DUP4 DUP3 DUP2 MLOAD DUP2 LT PUSH2 0x912 JUMPI PUSH2 0x912 PUSH2 0x20C2 JUMP JUMPDEST PUSH1 0x20 MUL PUSH1 0x20 ADD ADD MLOAD DUP4 DUP4 DUP2 MLOAD DUP2 LT PUSH2 0x92C JUMPI PUSH2 0x92C PUSH2 0x20C2 JUMP JUMPDEST PUSH1 0x20 MUL PUSH1 0x20 ADD ADD MLOAD PUSH2 0x160F JUMP JUMPDEST DUP1 PUSH2 0x943 DUP2 PUSH2 0x20D8 JUMP JUMPDEST SWAP2 POP POP PUSH2 0x8F4 JUMP JUMPDEST POP POP POP JUMP JUMPDEST PUSH2 0x958 PUSH2 0x15B5 JUMP JUMPDEST PUSH1 0x40 MLOAD DUP1 PUSH1 0xA0 ADD PUSH1 0x40 MSTORE DUP1 DUP7 DUP2 MSTORE PUSH1 0x20 ADD DUP6 DUP2 MSTORE PUSH1 0x20 ADD DUP5 DUP2 MSTORE PUSH1 0x20 ADD DUP4 DUP2 MSTORE PUSH1 0x20 ADD DUP3 ISZERO ISZERO DUP2 MSTORE POP PUSH1 0x9 DUP7 PUSH1 0x40 MLOAD PUSH2 0x991 SWAP2 SWAP1 PUSH2 0x207D JUMP JUMPDEST SWAP1 DUP2 MSTORE PUSH1 0x40 MLOAD SWAP1 DUP2 SWAP1 SUB PUSH1 0x20 ADD SWAP1 KECCAK256 DUP2 MLOAD DUP2 SWAP1 PUSH2 0x9AE SWAP1 DUP3 PUSH2 0x213F JUMP JUMPDEST POP PUSH1 0x20 DUP3 ADD MLOAD PUSH1 0x1 DUP3 ADD SSTORE PUSH1 0x40 DUP1 DUP4 ADD MLOAD PUSH1 0x2 DUP4 ADD SSTORE PUSH1 0x60 DUP4 ADD MLOAD PUSH1 0x3 DUP4 ADD SSTORE PUSH1 0x80 SWAP1 SWAP3 ADD MLOAD PUSH1 0x4 SWAP1 SWAP2 ADD DUP1 SLOAD PUSH1 0xFF NOT AND SWAP2 ISZERO ISZERO SWAP2 SWAP1 SWAP2 OR SWAP1 SSTORE MLOAD PUSH32 0xC36E62CAA9F12B45304D4F0542ACD0E1C8076B6E9B698D137E4D188B18AC7FDA SWAP1 PUSH2 0xA18 SWAP1 DUP8 SWAP1 DUP8 SWAP1 PUSH2 0x21FF JUMP JUMPDEST PUSH1 0x40 MLOAD DUP1 SWAP2 SUB SWAP1 LOG1 POP POP POP POP POP JUMP JUMPDEST PUSH2 0xA2F PUSH2 0x15B5 JUMP JUMPDEST PUSH2 0xA39 PUSH1 0x0 PUSH2 0x16CE JUMP JUMPDEST JUMP JUMPDEST PUSH1 0x60 PUSH1 0x4 DUP1 SLOAD PUSH2 0x4B0 SWAP1 PUSH2 0x2043 JUMP JUMPDEST PUSH1 0x0 CALLER DUP2 PUSH2 0xA58 DUP3 DUP7 PUSH2 0xC9B JUMP JUMPDEST SWAP1 POP DUP4 DUP2 LT ISZERO PUSH2 0xAB8 JUMPI PUSH1 0x40 MLOAD PUSH3 0x461BCD PUSH1 0xE5 SHL DUP2 MSTORE PUSH1 0x20 PUSH1 0x4 DUP3 ADD MSTORE PUSH1 0x25 PUSH1 0x24 DUP3 ADD MSTORE PUSH32 0x45524332303A2064656372656173656420616C6C6F77616E63652062656C6F77 PUSH1 0x44 DUP3 ADD MSTORE PUSH5 0x207A65726F PUSH1 0xD8 SHL PUSH1 0x64 DUP3 ADD MSTORE PUSH1 0x84 ADD PUSH2 0x8E8 JUMP JUMPDEST PUSH2 0x672 DUP3 DUP7 DUP7 DUP5 SUB PUSH2 0x1141 JUMP JUMPDEST PUSH1 0x0 CALLER PUSH2 0x541 DUP2 DUP6 DUP6 PUSH2 0x12DF JUMP JUMPDEST PUSH2 0xADB PUSH2 0x15B5 JUMP JUMPDEST PUSH1 0x1 PUSH1 0x1 PUSH1 0xA0 SHL SUB DUP3 AND PUSH1 0x0 DUP2 DUP2 MSTORE PUSH1 0xA PUSH1 0x20 SWAP1 DUP2 MSTORE PUSH1 0x40 SWAP2 DUP3 SWAP1 KECCAK256 DUP1 SLOAD PUSH1 0xFF NOT AND DUP6 ISZERO ISZERO SWAP1 DUP2 OR SWAP1 SWAP2 SSTORE SWAP2 MLOAD SWAP2 DUP3 MSTORE PUSH32 0x549BEA741606FEA6131FEB992AB8021BEF3BB5DFC19F6D30184944614A875459 SWAP2 ADD PUSH1 0x40 MLOAD DUP1 SWAP2 SUB SWAP1 LOG2 POP POP JUMP JUMPDEST DUP1 MLOAD PUSH1 0x20 DUP2 DUP4 ADD DUP2 ADD DUP1 MLOAD PUSH1 0x8 DUP3 MSTORE SWAP3 DUP3 ADD SWAP2 SWAP1 SWAP4 ADD KECCAK256 SWAP2 MSTORE DUP1 SLOAD DUP2 SWAP1 PUSH2 0xB60 SWAP1 PUSH2 0x2043 JUMP JUMPDEST DUP1 PUSH1 0x1F ADD PUSH1 0x20 DUP1 SWAP2 DIV MUL PUSH1 0x20 ADD PUSH1 0x40 MLOAD SWAP1 DUP2 ADD PUSH1 0x40 MSTORE DUP1 SWAP3 SWAP2 SWAP1 DUP2 DUP2 MSTORE PUSH1 0x20 ADD DUP3 DUP1 SLOAD PUSH2 0xB8C SWAP1 PUSH2 0x2043 JUMP JUMPDEST DUP1 ISZERO PUSH2 0xBD9 JUMPI DUP1 PUSH1 0x1F LT PUSH2 0xBAE JUMPI PUSH2 0x100 DUP1 DUP4 SLOAD DIV MUL DUP4 MSTORE SWAP2 PUSH1 0x20 ADD SWAP2 PUSH2 0xBD9 JUMP JUMPDEST DUP3 ADD SWAP2 SWAP1 PUSH1 0x0 MSTORE PUSH1 0x20 PUSH1 0x0 KECCAK256 SWAP1 JUMPDEST DUP2 SLOAD DUP2 MSTORE SWAP1 PUSH1 0x1 ADD SWAP1 PUSH1 0x20 ADD DUP1 DUP4 GT PUSH2 0xBBC JUMPI DUP3 SWAP1 SUB PUSH1 0x1F AND DUP3 ADD SWAP2 JUMPDEST POP POP POP POP POP SWAP1 DUP1 PUSH1 0x1 ADD DUP1 SLOAD PUSH2 0xBEE SWAP1 PUSH2 0x2043 JUMP JUMPDEST DUP1 PUSH1 0x1F ADD PUSH1 0x20 DUP1 SWAP2 DIV MUL PUSH1 0x20 ADD PUSH1 0x40 MLOAD SWAP1 DUP2 ADD PUSH1 0x40 MSTORE DUP1 SWAP3 SWAP2 SWAP1 DUP2 DUP2 MSTORE PUSH1 0x20 ADD DUP3 DUP1 SLOAD PUSH2 0xC1A SWAP1 PUSH2 0x2043 JUMP JUMPDEST DUP1 ISZERO PUSH2 0xC67 JUMPI DUP1 PUSH1 0x1F LT PUSH2 0xC3C JUMPI PUSH2 0x100 DUP1 DUP4 SLOAD DIV MUL DUP4 MSTORE SWAP2 PUSH1 0x20 ADD SWAP2 PUSH2 0xC67 JUMP JUMPDEST DUP3 ADD SWAP2 SWAP1 PUSH1 0x0 MSTORE PUSH1 0x20 PUSH1 0x0 KECCAK256 SWAP1 JUMPDEST DUP2 SLOAD DUP2 MSTORE SWAP1 PUSH1 0x1 ADD SWAP1 PUSH1 0x20 ADD DUP1 DUP4 GT PUSH2 0xC4A JUMPI DUP3 SWAP1 SUB PUSH1 0x1F AND DUP3 ADD SWAP2 JUMPDEST POP POP POP PUSH1 0x2 DUP5 ADD SLOAD PUSH1 0x3 DUP6 ADD SLOAD PUSH1 0x4 DUP7 ADD SLOAD PUSH1 0x5 DUP8 ADD SLOAD PUSH1 0x6 DUP9 ADD SLOAD PUSH1 0x7 SWAP1 SWAP9 ADD SLOAD SWAP7 SWAP8 SWAP4 SWAP7 SWAP3 SWAP6 POP SWAP1 SWAP4 POP SWAP2 SWAP1 PUSH1 0xFF AND DUP9 JUMP JUMPDEST PUSH1 0x1 PUSH1 0x1 PUSH1 0xA0 SHL SUB SWAP2 DUP3 AND PUSH1 0x0 SWAP1 DUP2 MSTORE PUSH1 0x1 PUSH1 0x20 SWAP1 DUP2 MSTORE PUSH1 0x40 DUP1 DUP4 KECCAK256 SWAP4 SWAP1 SWAP5 AND DUP3 MSTORE SWAP2 SWAP1 SWAP2 MSTORE KECCAK256 SLOAD SWAP1 JUMP JUMPDEST PUSH2 0xCCE PUSH2 0x15B5 JUMP JUMPDEST PUSH1 0x1 PUSH1 0x1 PUSH1 0xA0 SHL SUB DUP2 AND PUSH2 0xD33 JUMPI PUSH1 0x40 MLOAD PUSH3 0x461BCD PUSH1 0xE5 SHL DUP2 MSTORE PUSH1 0x20 PUSH1 0x4 DUP3 ADD MSTORE PUSH1 0x26 PUSH1 0x24 DUP3 ADD MSTORE PUSH32 0x4F776E61626C653A206E6577206F776E657220697320746865207A65726F2061 PUSH1 0x44 DUP3 ADD MSTORE PUSH6 0x646472657373 PUSH1 0xD0 SHL PUSH1 0x64 DUP3 ADD MSTORE PUSH1 0x84 ADD PUSH2 0x8E8 JUMP JUMPDEST PUSH2 0x898 DUP2 PUSH2 0x16CE JUMP JUMPDEST PUSH2 0xD44 PUSH2 0x1720 JUMP JUMPDEST PUSH1 0x0 DUP8 MLOAD GT PUSH2 0xD8C JUMPI PUSH1 0x40 MLOAD PUSH3 0x461BCD PUSH1 0xE5 SHL DUP2 MSTORE PUSH1 0x20 PUSH1 0x4 DUP3 ADD MSTORE PUSH1 0x14 PUSH1 0x24 DUP3 ADD MSTORE PUSH20 0x725DDDF2C550A4A2725C46F441DEF25C5D73D4DD PUSH1 0x61 SHL PUSH1 0x44 DUP3 ADD MSTORE PUSH1 0x64 ADD PUSH2 0x8E8 JUMP JUMPDEST PUSH1 0x0 DUP7 MLOAD GT PUSH2 0xDDD JUMPI PUSH1 0x40 MLOAD PUSH3 0x461BCD PUSH1 0xE5 SHL DUP2 MSTORE PUSH1 0x20 PUSH1 0x4 DUP3 ADD MSTORE PUSH1 0x18 PUSH1 0x24 DUP3 ADD MSTORE PUSH32 0xE5B7A5E585B7E5908DE7A7B0E4B88DE883BDE4B8BAE7A9BA0000000000000000 PUSH1 0x44 DUP3 ADD MSTORE PUSH1 0x64 ADD PUSH2 0x8E8 JUMP JUMPDEST PUSH1 0x1 DUP6 LT ISZERO DUP1 ISZERO PUSH2 0xDF1 JUMPI POP PUSH3 0x989680 DUP6 GT ISZERO JUMPDEST PUSH2 0xE3D JUMPI PUSH1 0x40 MLOAD PUSH3 0x461BCD PUSH1 0xE5 SHL DUP2 MSTORE PUSH1 0x20 PUSH1 0x4 DUP3 ADD MSTORE PUSH1 0x18 PUSH1 0x24 DUP3 ADD MSTORE PUSH32 0xE8BE93E585A5E5A4A7E5B08FE8B685E587BAE88C83E59BB40000000000000000 PUSH1 0x44 DUP3 ADD MSTORE PUSH1 0x64 ADD PUSH2 0x8E8 JUMP JUMPDEST PUSH2 0x3E8 DUP4 LT ISZERO DUP1 ISZERO PUSH2 0xE52 JUMPI POP PUSH3 0x493E0 DUP4 GT ISZERO JUMPDEST PUSH2 0xE9E JUMPI PUSH1 0x40 MLOAD PUSH3 0x461BCD PUSH1 0xE5 SHL DUP2 MSTORE PUSH1 0x20 PUSH1 0x4 DUP3 ADD MSTORE PUSH1 0x18 PUSH1 0x24 DUP3 ADD MSTORE PUSH32 0xE689A7E8A18CE697B6E997B4E8B685E587BAE88C83E59BB40000000000000000 PUSH1 0x44 DUP3 ADD MSTORE PUSH1 0x64 ADD PUSH2 0x8E8 JUMP JUMPDEST PUSH1 0x8 DUP8 PUSH1 0x40 MLOAD PUSH2 0xEAE SWAP2 SWAP1 PUSH2 0x207D JUMP JUMPDEST SWAP1 DUP2 MSTORE PUSH1 0x20 ADD PUSH1 0x40 MLOAD DUP1 SWAP2 SUB SWAP1 KECCAK256 PUSH1 0x5 ADD SLOAD PUSH1 0x0 EQ PUSH2 0xF01 JUMPI PUSH1 0x40 MLOAD PUSH3 0x461BCD PUSH1 0xE5 SHL DUP2 MSTORE PUSH1 0x20 PUSH1 0x4 DUP3 ADD MSTORE PUSH1 0xF PUSH1 0x24 DUP3 ADD MSTORE PUSH15 0x1C97777CB1543CB6F65CB5B31CB395 PUSH1 0x8B SHL PUSH1 0x44 DUP3 ADD MSTORE PUSH1 0x64 ADD PUSH2 0x8E8 JUMP JUMPDEST PUSH1 0x0 PUSH1 0x40 MLOAD DUP1 PUSH2 0x100 ADD PUSH1 0x40 MSTORE DUP1 DUP10 DUP2 MSTORE PUSH1 0x20 ADD DUP9 DUP2 MSTORE PUSH1 0x20 ADD DUP8 DUP2 MSTORE PUSH1 0x20 ADD DUP7 DUP2 MSTORE PUSH1 0x20 ADD DUP6 DUP2 MSTORE PUSH1 0x20 ADD DUP5 DUP2 MSTORE PUSH1 0x20 ADD DUP4 DUP2 MSTORE PUSH1 0x20 ADD PUSH1 0x0 ISZERO ISZERO DUP2 MSTORE POP SWAP1 POP DUP1 PUSH1 0x8 DUP10 PUSH1 0x40 MLOAD PUSH2 0xF53 SWAP2 SWAP1 PUSH2 0x207D JUMP JUMPDEST SWAP1 DUP2 MSTORE PUSH1 0x40 MLOAD SWAP1 DUP2 SWAP1 SUB PUSH1 0x20 ADD SWAP1 KECCAK256 DUP2 MLOAD DUP2 SWAP1 PUSH2 0xF70 SWAP1 DUP3 PUSH2 0x213F JUMP JUMPDEST POP PUSH1 0x20 DUP3 ADD MLOAD PUSH1 0x1 DUP3 ADD SWAP1 PUSH2 0xF85 SWAP1 DUP3 PUSH2 0x213F JUMP JUMPDEST POP PUSH1 0x40 DUP3 ADD MLOAD PUSH1 0x2 DUP3 ADD SSTORE PUSH1 0x60 DUP3 ADD MLOAD PUSH1 0x3 DUP3 ADD SSTORE PUSH1 0x80 DUP3 ADD MLOAD PUSH1 0x4 DUP3 ADD SSTORE PUSH1 0xA0 DUP3 ADD MLOAD PUSH1 0x5 DUP3 ADD SSTORE PUSH1 0xC0 DUP3 ADD MLOAD PUSH1 0x6 DUP3 ADD SSTORE PUSH1 0xE0 SWAP1 SWAP2 ADD MLOAD PUSH1 0x7 SWAP1 SWAP2 ADD DUP1 SLOAD PUSH1 0xFF NOT AND SWAP2 ISZERO ISZERO SWAP2 SWAP1 SWAP2 OR SWAP1 SSTORE PUSH1 0x0 PUSH2 0xFDD DUP3 PUSH2 0x1779 JUMP JUMPDEST SWAP1 POP DUP1 ISZERO PUSH2 0x10F3 JUMPI PUSH1 0x1 PUSH1 0x8 DUP11 PUSH1 0x40 MLOAD PUSH2 0xFF7 SWAP2 SWAP1 PUSH2 0x207D JUMP JUMPDEST SWAP1 DUP2 MSTORE PUSH1 0x40 MLOAD SWAP1 DUP2 SWAP1 SUB PUSH1 0x20 ADD SWAP1 KECCAK256 PUSH1 0x7 ADD DUP1 SLOAD SWAP2 ISZERO ISZERO PUSH1 0xFF NOT SWAP1 SWAP3 AND SWAP2 SWAP1 SWAP2 OR SWAP1 SSTORE PUSH1 0x0 PUSH2 0x1028 DUP10 DUP10 DUP10 DUP10 PUSH2 0x18D4 JUMP JUMPDEST CALLER PUSH1 0x0 SWAP1 DUP2 MSTORE PUSH1 0x7 PUSH1 0x20 MSTORE PUSH1 0x40 DUP2 KECCAK256 DUP1 SLOAD SWAP3 SWAP4 POP SWAP2 SWAP1 DUP3 SWAP1 PUSH2 0x1049 DUP4 PUSH2 0x20D8 JUMP JUMPDEST SWAP2 SWAP1 POP SSTORE POP DUP2 DUP2 PUSH1 0x1 ADD PUSH1 0x0 DUP3 DUP3 SLOAD PUSH2 0x1062 SWAP2 SWAP1 PUSH2 0x20AF JUMP JUMPDEST SWAP1 SWAP2 SSTORE POP POP TIMESTAMP PUSH1 0x2 DUP3 ADD SSTORE PUSH1 0x40 MLOAD PUSH1 0x1 SWAP1 PUSH1 0x3 DUP4 ADD SWAP1 PUSH2 0x1083 SWAP1 DUP15 SWAP1 PUSH2 0x207D JUMP JUMPDEST SWAP1 DUP2 MSTORE PUSH1 0x40 MLOAD SWAP1 DUP2 SWAP1 SUB PUSH1 0x20 ADD SWAP1 KECCAK256 DUP1 SLOAD SWAP2 ISZERO ISZERO PUSH1 0xFF NOT SWAP1 SWAP3 AND SWAP2 SWAP1 SWAP2 OR SWAP1 SSTORE PUSH2 0x10AD CALLER DUP4 PUSH2 0x160F JUMP JUMPDEST CALLER PUSH1 0x1 PUSH1 0x1 PUSH1 0xA0 SHL SUB AND PUSH32 0x7CFD51919227239F8B24CD3907AA75AECB89C339517FD6FE0AE9D6377CC3FF49 DUP13 DUP5 PUSH1 0x40 MLOAD PUSH2 0x10E8 SWAP3 SWAP2 SWAP1 PUSH2 0x21FF JUMP JUMPDEST PUSH1 0x40 MLOAD DUP1 SWAP2 SUB SWAP1 LOG2 POP POP JUMPDEST PUSH32 0xE29AC9DD3BAB60A3142B364CEEA7DD7E0D15DAB946F65B5372A2D971F5A759BF DUP10 DUP3 PUSH1 0x40 MLOAD PUSH2 0x1124 SWAP3 SWAP2 SWAP1 PUSH2 0x2221 JUMP JUMPDEST PUSH1 0x40 MLOAD DUP1 SWAP2 SUB SWAP1 LOG1 POP POP PUSH2 0x1138 PUSH1 0x1 PUSH1 0x6 SSTORE JUMP JUMPDEST POP POP POP POP POP POP POP JUMP JUMPDEST PUSH1 0x1 PUSH1 0x1 PUSH1 0xA0 SHL SUB DUP4 AND PUSH2 0x11A3 JUMPI PUSH1 0x40 MLOAD PUSH3 0x461BCD PUSH1 0xE5 SHL DUP2 MSTORE PUSH1 0x20 PUSH1 0x4 DUP3 ADD MSTORE PUSH1 0x24 DUP1 DUP3 ADD MSTORE PUSH32 0x45524332303A20617070726F76652066726F6D20746865207A65726F20616464 PUSH1 0x44 DUP3 ADD MSTORE PUSH4 0x72657373 PUSH1 0xE0 SHL PUSH1 0x64 DUP3 ADD MSTORE PUSH1 0x84 ADD PUSH2 0x8E8 JUMP JUMPDEST PUSH1 0x1 PUSH1 0x1 PUSH1 0xA0 SHL SUB DUP3 AND PUSH2 0x1204 JUMPI PUSH1 0x40 MLOAD PUSH3 0x461BCD PUSH1 0xE5 SHL DUP2 MSTORE PUSH1 0x20 PUSH1 0x4 DUP3 ADD MSTORE PUSH1 0x22 PUSH1 0x24 DUP3 ADD MSTORE PUSH32 0x45524332303A20617070726F766520746F20746865207A65726F206164647265 PUSH1 0x44 DUP3 ADD MSTORE PUSH2 0x7373 PUSH1 0xF0 SHL PUSH1 0x64 DUP3 ADD MSTORE PUSH1 0x84 ADD PUSH2 0x8E8 JUMP JUMPDEST PUSH1 0x1 PUSH1 0x1 PUSH1 0xA0 SHL SUB DUP4 DUP2 AND PUSH1 0x0 DUP2 DUP2 MSTORE PUSH1 0x1 PUSH1 0x20 SWAP1 DUP2 MSTORE PUSH1 0x40 DUP1 DUP4 KECCAK256 SWAP5 DUP8 AND DUP1 DUP5 MSTORE SWAP5 DUP3 MSTORE SWAP2 DUP3 SWAP1 KECCAK256 DUP6 SWAP1 SSTORE SWAP1 MLOAD DUP5 DUP2 MSTORE PUSH32 0x8C5BE1E5EBEC7D5BD14F71427D1E84F3DD0314C0F7B2291E5B200AC8C7C3B925 SWAP2 ADD PUSH1 0x40 MLOAD DUP1 SWAP2 SUB SWAP1 LOG3 POP POP POP JUMP JUMPDEST PUSH1 0x0 PUSH2 0x1271 DUP5 DUP5 PUSH2 0xC9B JUMP JUMPDEST SWAP1 POP PUSH1 0x0 NOT DUP2 EQ PUSH2 0x12D9 JUMPI DUP2 DUP2 LT ISZERO PUSH2 0x12CC JUMPI PUSH1 0x40 MLOAD PUSH3 0x461BCD PUSH1 0xE5 SHL DUP2 MSTORE PUSH1 0x20 PUSH1 0x4 DUP3 ADD MSTORE PUSH1 0x1D PUSH1 0x24 DUP3 ADD MSTORE PUSH32 0x45524332303A20696E73756666696369656E7420616C6C6F77616E6365000000 PUSH1 0x44 DUP3 ADD MSTORE PUSH1 0x64 ADD PUSH2 0x8E8 JUMP JUMPDEST PUSH2 0x12D9 DUP5 DUP5 DUP5 DUP5 SUB PUSH2 0x1141 JUMP JUMPDEST POP POP POP POP JUMP JUMPDEST PUSH1 0x1 PUSH1 0x1 PUSH1 0xA0 SHL SUB DUP4 AND PUSH2 0x1343 JUMPI PUSH1 0x40 MLOAD PUSH3 0x461BCD PUSH1 0xE5 SHL DUP2 MSTORE PUSH1 0x20 PUSH1 0x4 DUP3 ADD MSTORE PUSH1 0x25 PUSH1 0x24 DUP3 ADD MSTORE PUSH32 0x45524332303A207472616E736665722066726F6D20746865207A65726F206164 PUSH1 0x44 DUP3 ADD MSTORE PUSH5 0x6472657373 PUSH1 0xD8 SHL PUSH1 0x64 DUP3 ADD MSTORE PUSH1 0x84 ADD PUSH2 0x8E8 JUMP JUMPDEST PUSH1 0x1 PUSH1 0x1 PUSH1 0xA0 SHL SUB DUP3 AND PUSH2 0x13A5 JUMPI PUSH1 0x40 MLOAD PUSH3 0x461BCD PUSH1 0xE5 SHL DUP2 MSTORE PUSH1 0x20 PUSH1 0x4 DUP3 ADD MSTORE PUSH1 0x23 PUSH1 0x24 DUP3 ADD MSTORE PUSH32 0x45524332303A207472616E7366657220746F20746865207A65726F2061646472 PUSH1 0x44 DUP3 ADD MSTORE PUSH3 0x657373 PUSH1 0xE8 SHL PUSH1 0x64 DUP3 ADD MSTORE PUSH1 0x84 ADD PUSH2 0x8E8 JUMP JUMPDEST PUSH1 0x1 PUSH1 0x1 PUSH1 0xA0 SHL SUB DUP4 AND PUSH1 0x0 SWAP1 DUP2 MSTORE PUSH1 0x20 DUP2 SWAP1 MSTORE PUSH1 0x40 SWAP1 KECCAK256 SLOAD DUP2 DUP2 LT ISZERO PUSH2 0x141D JUMPI PUSH1 0x40 MLOAD PUSH3 0x461BCD PUSH1 0xE5 SHL DUP2 MSTORE PUSH1 0x20 PUSH1 0x4 DUP3 ADD MSTORE PUSH1 0x26 PUSH1 0x24 DUP3 ADD MSTORE PUSH32 0x45524332303A207472616E7366657220616D6F756E7420657863656564732062 PUSH1 0x44 DUP3 ADD MSTORE PUSH6 0x616C616E6365 PUSH1 0xD0 SHL PUSH1 0x64 DUP3 ADD MSTORE PUSH1 0x84 ADD PUSH2 0x8E8 JUMP JUMPDEST PUSH1 0x1 PUSH1 0x1 PUSH1 0xA0 SHL SUB DUP5 DUP2 AND PUSH1 0x0 DUP2 DUP2 MSTORE PUSH1 0x20 DUP2 DUP2 MSTORE PUSH1 0x40 DUP1 DUP4 KECCAK256 DUP8 DUP8 SUB SWAP1 SSTORE SWAP4 DUP8 AND DUP1 DUP4 MSTORE SWAP2 DUP5 SWAP1 KECCAK256 DUP1 SLOAD DUP8 ADD SWAP1 SSTORE SWAP3 MLOAD DUP6 DUP2 MSTORE SWAP1 SWAP3 PUSH32 0xDDF252AD1BE2C89B69C2B068FC378DAA952BA7F163C4A11628F55A4DF523B3EF SWAP2 ADD PUSH1 0x40 MLOAD DUP1 SWAP2 SUB SWAP1 LOG3 PUSH2 0x12D9 JUMP JUMPDEST PUSH1 0x1 PUSH1 0x1 PUSH1 0xA0 SHL SUB DUP3 AND PUSH2 0x14E3 JUMPI PUSH1 0x40 MLOAD PUSH3 0x461BCD PUSH1 0xE5 SHL DUP2 MSTORE PUSH1 0x20 PUSH1 0x4 DUP3 ADD MSTORE PUSH1 0x21 PUSH1 0x24 DUP3 ADD MSTORE PUSH32 0x45524332303A206275726E2066726F6D20746865207A65726F20616464726573 PUSH1 0x44 DUP3 ADD MSTORE PUSH1 0x73 PUSH1 0xF8 SHL PUSH1 0x64 DUP3 ADD MSTORE PUSH1 0x84 ADD PUSH2 0x8E8 JUMP JUMPDEST PUSH1 0x1 PUSH1 0x1 PUSH1 0xA0 SHL SUB DUP3 AND PUSH1 0x0 SWAP1 DUP2 MSTORE PUSH1 0x20 DUP2 SWAP1 MSTORE PUSH1 0x40 SWAP1 KECCAK256 SLOAD DUP2 DUP2 LT ISZERO PUSH2 0x1557 JUMPI PUSH1 0x40 MLOAD PUSH3 0x461BCD PUSH1 0xE5 SHL DUP2 MSTORE PUSH1 0x20 PUSH1 0x4 DUP3 ADD MSTORE PUSH1 0x22 PUSH1 0x24 DUP3 ADD MSTORE PUSH32 0x45524332303A206275726E20616D6F756E7420657863656564732062616C616E PUSH1 0x44 DUP3 ADD MSTORE PUSH2 0x6365 PUSH1 0xF0 SHL PUSH1 0x64 DUP3 ADD MSTORE PUSH1 0x84 ADD PUSH2 0x8E8 JUMP JUMPDEST PUSH1 0x1 PUSH1 0x1 PUSH1 0xA0 SHL SUB DUP4 AND PUSH1 0x0 DUP2 DUP2 MSTORE PUSH1 0x20 DUP2 DUP2 MSTORE PUSH1 0x40 DUP1 DUP4 KECCAK256 DUP7 DUP7 SUB SWAP1 SSTORE PUSH1 0x2 DUP1 SLOAD DUP8 SWAP1 SUB SWAP1 SSTORE MLOAD DUP6 DUP2 MSTORE SWAP2 SWAP3 SWAP2 PUSH32 0xDDF252AD1BE2C89B69C2B068FC378DAA952BA7F163C4A11628F55A4DF523B3EF SWAP2 ADD PUSH1 0x40 MLOAD DUP1 SWAP2 SUB SWAP1 LOG3 POP POP POP JUMP JUMPDEST PUSH1 0x5 SLOAD PUSH1 0x1 PUSH1 0x1 PUSH1 0xA0 SHL SUB AND CALLER EQ PUSH2 0xA39 JUMPI PUSH1 0x40 MLOAD PUSH3 0x461BCD PUSH1 0xE5 SHL DUP2 MSTORE PUSH1 0x20 PUSH1 0x4 DUP3 ADD DUP2 SWAP1 MSTORE PUSH1 0x24 DUP3 ADD MSTORE PUSH32 0x4F776E61626C653A2063616C6C6572206973206E6F7420746865206F776E6572 PUSH1 0x44 DUP3 ADD MSTORE PUSH1 0x64 ADD PUSH2 0x8E8 JUMP JUMPDEST PUSH1 0x1 PUSH1 0x1 PUSH1 0xA0 SHL SUB DUP3 AND PUSH2 0x1665 JUMPI PUSH1 0x40 MLOAD PUSH3 0x461BCD PUSH1 0xE5 SHL DUP2 MSTORE PUSH1 0x20 PUSH1 0x4 DUP3 ADD MSTORE PUSH1 0x1F PUSH1 0x24 DUP3 ADD MSTORE PUSH32 0x45524332303A206D696E7420746F20746865207A65726F206164647265737300 PUSH1 0x44 DUP3 ADD MSTORE PUSH1 0x64 ADD PUSH2 0x8E8 JUMP JUMPDEST DUP1 PUSH1 0x2 PUSH1 0x0 DUP3 DUP3 SLOAD PUSH2 0x1677 SWAP2 SWAP1 PUSH2 0x20AF JUMP JUMPDEST SWAP1 SWAP2 SSTORE POP POP PUSH1 0x1 PUSH1 0x1 PUSH1 0xA0 SHL SUB DUP3 AND PUSH1 0x0 DUP2 DUP2 MSTORE PUSH1 0x20 DUP2 DUP2 MSTORE PUSH1 0x40 DUP1 DUP4 KECCAK256 DUP1 SLOAD DUP7 ADD SWAP1 SSTORE MLOAD DUP5 DUP2 MSTORE PUSH32 0xDDF252AD1BE2C89B69C2B068FC378DAA952BA7F163C4A11628F55A4DF523B3EF SWAP2 ADD PUSH1 0x40 MLOAD DUP1 SWAP2 SUB SWAP1 LOG3 POP POP JUMP JUMPDEST PUSH1 0x5 DUP1 SLOAD PUSH1 0x1 PUSH1 0x1 PUSH1 0xA0 SHL SUB DUP4 DUP2 AND PUSH1 0x1 PUSH1 0x1 PUSH1 0xA0 SHL SUB NOT DUP4 AND DUP2 OR SWAP1 SWAP4 SSTORE PUSH1 0x40 MLOAD SWAP2 AND SWAP2 SWAP1 DUP3 SWAP1 PUSH32 0x8BE0079C531659141344CD1FD0A4F28419497F9722A3DAAFE3B4186F6B6457E0 SWAP1 PUSH1 0x0 SWAP1 LOG3 POP POP JUMP JUMPDEST PUSH1 0x2 PUSH1 0x6 SLOAD SUB PUSH2 0x1772 JUMPI PUSH1 0x40 MLOAD PUSH3 0x461BCD PUSH1 0xE5 SHL DUP2 MSTORE PUSH1 0x20 PUSH1 0x4 DUP3 ADD MSTORE PUSH1 0x1F PUSH1 0x24 DUP3 ADD MSTORE PUSH32 0x5265656E7472616E637947756172643A207265656E7472616E742063616C6C00 PUSH1 0x44 DUP3 ADD MSTORE PUSH1 0x64 ADD PUSH2 0x8E8 JUMP JUMPDEST PUSH1 0x2 PUSH1 0x6 SSTORE JUMP JUMPDEST PUSH1 0x0 DUP1 PUSH1 0x9 DUP4 PUSH1 0x20 ADD MLOAD PUSH1 0x40 MLOAD PUSH2 0x1790 SWAP2 SWAP1 PUSH2 0x207D JUMP JUMPDEST SWAP1 DUP2 MSTORE PUSH1 0x20 ADD PUSH1 0x40 MLOAD DUP1 SWAP2 SUB SWAP1 KECCAK256 PUSH1 0x40 MLOAD DUP1 PUSH1 0xA0 ADD PUSH1 0x40 MSTORE SWAP1 DUP2 PUSH1 0x0 DUP3 ADD DUP1 SLOAD PUSH2 0x17B9 SWAP1 PUSH2 0x2043 JUMP JUMPDEST DUP1 PUSH1 0x1F ADD PUSH1 0x20 DUP1 SWAP2 DIV MUL PUSH1 0x20 ADD PUSH1 0x40 MLOAD SWAP1 DUP2 ADD PUSH1 0x40 MSTORE DUP1 SWAP3 SWAP2 SWAP1 DUP2 DUP2 MSTORE PUSH1 0x20 ADD DUP3 DUP1 SLOAD PUSH2 0x17E5 SWAP1 PUSH2 0x2043 JUMP JUMPDEST DUP1 ISZERO PUSH2 0x1832 JUMPI DUP1 PUSH1 0x1F LT PUSH2 0x1807 JUMPI PUSH2 0x100 DUP1 DUP4 SLOAD DIV MUL DUP4 MSTORE SWAP2 PUSH1 0x20 ADD SWAP2 PUSH2 0x1832 JUMP JUMPDEST DUP3 ADD SWAP2 SWAP1 PUSH1 0x0 MSTORE PUSH1 0x20 PUSH1 0x0 KECCAK256 SWAP1 JUMPDEST DUP2 SLOAD DUP2 MSTORE SWAP1 PUSH1 0x1 ADD SWAP1 PUSH1 0x20 ADD DUP1 DUP4 GT PUSH2 0x1815 JUMPI DUP3 SWAP1 SUB PUSH1 0x1F AND DUP3 ADD SWAP2 JUMPDEST POP POP POP SWAP2 DUP4 MSTORE POP POP PUSH1 0x1 DUP3 ADD SLOAD PUSH1 0x20 DUP3 ADD MSTORE PUSH1 0x2 DUP3 ADD SLOAD PUSH1 0x40 DUP3 ADD MSTORE PUSH1 0x3 DUP3 ADD SLOAD PUSH1 0x60 DUP3 ADD MSTORE PUSH1 0x4 SWAP1 SWAP2 ADD SLOAD PUSH1 0xFF AND ISZERO ISZERO PUSH1 0x80 SWAP2 DUP3 ADD MSTORE DUP2 ADD MLOAD SWAP1 SWAP2 POP PUSH2 0x187C JUMPI POP PUSH1 0x0 SWAP3 SWAP2 POP POP JUMP JUMPDEST DUP3 MLOAD PUSH1 0x20 DUP1 DUP6 ADD MLOAD PUSH1 0x40 DUP1 DUP8 ADD MLOAD PUSH1 0x60 DUP9 ADD MLOAD PUSH1 0x80 DUP10 ADD MLOAD PUSH1 0xA0 DUP11 ADD MLOAD SWAP4 MLOAD PUSH1 0x0 SWAP8 PUSH2 0x18AC SWAP8 SWAP1 SWAP7 SWAP6 SWAP2 ADD PUSH2 0x2245 JUMP JUMPDEST PUSH1 0x40 MLOAD PUSH1 0x20 DUP2 DUP4 SUB SUB DUP2 MSTORE SWAP1 PUSH1 0x40 MSTORE DUP1 MLOAD SWAP1 PUSH1 0x20 ADD KECCAK256 SWAP1 POP DUP4 PUSH1 0xC0 ADD MLOAD DUP2 EQ SWAP3 POP POP POP SWAP2 SWAP1 POP JUMP JUMPDEST PUSH1 0x0 DUP1 PUSH1 0x9 DUP7 PUSH1 0x40 MLOAD PUSH2 0x18E7 SWAP2 SWAP1 PUSH2 0x207D JUMP JUMPDEST SWAP1 DUP2 MSTORE PUSH1 0x20 ADD PUSH1 0x40 MLOAD DUP1 SWAP2 SUB SWAP1 KECCAK256 PUSH1 0x40 MLOAD DUP1 PUSH1 0xA0 ADD PUSH1 0x40 MSTORE SWAP1 DUP2 PUSH1 0x0 DUP3 ADD DUP1 SLOAD PUSH2 0x1910 SWAP1 PUSH2 0x2043 JUMP JUMPDEST DUP1 PUSH1 0x1F ADD PUSH1 0x20 DUP1 SWAP2 DIV MUL PUSH1 0x20 ADD PUSH1 0x40 MLOAD SWAP1 DUP2 ADD PUSH1 0x40 MSTORE DUP1 SWAP3 SWAP2 SWAP1 DUP2 DUP2 MSTORE PUSH1 0x20 ADD DUP3 DUP1 SLOAD PUSH2 0x193C SWAP1 PUSH2 0x2043 JUMP JUMPDEST DUP1 ISZERO PUSH2 0x1989 JUMPI DUP1 PUSH1 0x1F LT PUSH2 0x195E JUMPI PUSH2 0x100 DUP1 DUP4 SLOAD DIV MUL DUP4 MSTORE SWAP2 PUSH1 0x20 ADD SWAP2 PUSH2 0x1989 JUMP JUMPDEST DUP3 ADD SWAP2 SWAP1 PUSH1 0x0 MSTORE PUSH1 0x20 PUSH1 0x0 KECCAK256 SWAP1 JUMPDEST DUP2 SLOAD DUP2 MSTORE SWAP1 PUSH1 0x1 ADD SWAP1 PUSH1 0x20 ADD DUP1 DUP4 GT PUSH2 0x196C JUMPI DUP3 SWAP1 SUB PUSH1 0x1F AND DUP3 ADD SWAP2 JUMPDEST POP POP POP SWAP2 DUP4 MSTORE POP POP PUSH1 0x1 DUP3 ADD SLOAD PUSH1 0x20 DUP3 ADD MSTORE PUSH1 0x2 DUP3 ADD SLOAD PUSH1 0x40 DUP3 ADD MSTORE PUSH1 0x3 DUP3 ADD SLOAD PUSH1 0x60 DUP3 ADD MSTORE PUSH1 0x4 SWAP1 SWAP2 ADD SLOAD PUSH1 0xFF AND ISZERO ISZERO PUSH1 0x80 SWAP2 DUP3 ADD MSTORE DUP2 ADD MLOAD SWAP1 SWAP2 POP PUSH2 0x1A0A JUMPI PUSH1 0x40 MLOAD PUSH3 0x461BCD PUSH1 0xE5 SHL DUP2 MSTORE PUSH1 0x20 PUSH1 0x4 DUP3 ADD MSTORE PUSH1 0x15 PUSH1 0x24 DUP3 ADD MSTORE PUSH21 0xE4BBBBE58AA1E7B1BBE59E8BE69CAAE6BF80E6B4BB PUSH1 0x58 SHL PUSH1 0x44 DUP3 ADD MSTORE PUSH1 0x64 ADD PUSH2 0x8E8 JUMP JUMPDEST PUSH1 0x20 DUP2 ADD MLOAD PUSH1 0x40 DUP3 ADD MLOAD PUSH2 0x3E8 SWAP1 PUSH2 0x1A22 SWAP1 DUP7 PUSH2 0x228C JUMP JUMPDEST PUSH2 0x1A2C SWAP2 SWAP1 PUSH2 0x22A3 JUMP JUMPDEST PUSH2 0x1A36 SWAP1 DUP3 PUSH2 0x20AF JUMP JUMPDEST SWAP1 POP PUSH2 0x3E8 DUP3 PUSH1 0x60 ADD MLOAD DUP8 PUSH2 0x1A4B SWAP2 SWAP1 PUSH2 0x228C JUMP JUMPDEST PUSH2 0x1A55 SWAP2 SWAP1 PUSH2 0x22A3 JUMP JUMPDEST PUSH2 0x1A5F SWAP1 DUP3 PUSH2 0x20AF JUMP JUMPDEST SWAP1 POP PUSH2 0x3E8 DUP3 PUSH1 0x60 ADD MLOAD DUP7 PUSH2 0x1A74 SWAP2 SWAP1 PUSH2 0x228C JUMP JUMPDEST PUSH2 0x1A7F SWAP1 PUSH1 0x2 PUSH2 0x228C JUMP JUMPDEST PUSH2 0x1A89 SWAP2 SWAP1 PUSH2 0x22A3 JUMP JUMPDEST PUSH2 0x1A93 SWAP1 DUP3 PUSH2 0x20AF JUMP JUMPDEST SWAP8 SWAP7 POP POP POP POP POP POP POP JUMP JUMPDEST PUSH1 0x0 JUMPDEST DUP4 DUP2 LT ISZERO PUSH2 0x1AB9 JUMPI DUP2 DUP2 ADD MLOAD DUP4 DUP3 ADD MSTORE PUSH1 0x20 ADD PUSH2 0x1AA1 JUMP JUMPDEST POP POP PUSH1 0x0 SWAP2 ADD MSTORE JUMP JUMPDEST PUSH1 0x0 DUP2 MLOAD DUP1 DUP5 MSTORE PUSH2 0x1ADA DUP2 PUSH1 0x20 DUP7 ADD PUSH1 0x20 DUP7 ADD PUSH2 0x1A9E JUMP JUMPDEST PUSH1 0x1F ADD PUSH1 0x1F NOT AND SWAP3 SWAP1 SWAP3 ADD PUSH1 0x20 ADD SWAP3 SWAP2 POP POP JUMP JUMPDEST PUSH1 0x20 DUP2 MSTORE PUSH1 0x0 PUSH2 0x1B01 PUSH1 0x20 DUP4 ADD DUP5 PUSH2 0x1AC2 JUMP JUMPDEST SWAP4 SWAP3 POP POP POP JUMP JUMPDEST DUP1 CALLDATALOAD PUSH1 0x1 PUSH1 0x1 PUSH1 0xA0 SHL SUB DUP2 AND DUP2 EQ PUSH2 0x1B1F JUMPI PUSH1 0x0 DUP1 REVERT JUMPDEST SWAP2 SWAP1 POP JUMP JUMPDEST PUSH1 0x0 DUP1 PUSH1 0x40 DUP4 DUP6 SUB SLT ISZERO PUSH2 0x1B37 JUMPI PUSH1 0x0 DUP1 REVERT JUMPDEST PUSH2 0x1B40 DUP4 PUSH2 0x1B08 JUMP JUMPDEST SWAP5 PUSH1 0x20 SWAP4 SWAP1 SWAP4 ADD CALLDATALOAD SWAP4 POP POP POP JUMP JUMPDEST PUSH4 0x4E487B71 PUSH1 0xE0 SHL PUSH1 0x0 MSTORE PUSH1 0x41 PUSH1 0x4 MSTORE PUSH1 0x24 PUSH1 0x0 REVERT JUMPDEST PUSH1 0x40 MLOAD PUSH1 0x1F DUP3 ADD PUSH1 0x1F NOT AND DUP2 ADD PUSH8 0xFFFFFFFFFFFFFFFF DUP2 GT DUP3 DUP3 LT OR ISZERO PUSH2 0x1B8D JUMPI PUSH2 0x1B8D PUSH2 0x1B4E JUMP JUMPDEST PUSH1 0x40 MSTORE SWAP2 SWAP1 POP JUMP JUMPDEST PUSH1 0x0 DUP3 PUSH1 0x1F DUP4 ADD SLT PUSH2 0x1BA6 JUMPI PUSH1 0x0 DUP1 REVERT JUMPDEST DUP2 CALLDATALOAD PUSH8 0xFFFFFFFFFFFFFFFF DUP2 GT ISZERO PUSH2 0x1BC0 JUMPI PUSH2 0x1BC0 PUSH2 0x1B4E JUMP JUMPDEST PUSH2 0x1BD3 PUSH1 0x1F DUP3 ADD PUSH1 0x1F NOT AND PUSH1 0x20 ADD PUSH2 0x1B64 JUMP JUMPDEST DUP2 DUP2 MSTORE DUP5 PUSH1 0x20 DUP4 DUP7 ADD ADD GT ISZERO PUSH2 0x1BE8 JUMPI PUSH1 0x0 DUP1 REVERT JUMPDEST DUP2 PUSH1 0x20 DUP6 ADD PUSH1 0x20 DUP4 ADD CALLDATACOPY PUSH1 0x0 SWAP2 DUP2 ADD PUSH1 0x20 ADD SWAP2 SWAP1 SWAP2 MSTORE SWAP4 SWAP3 POP POP POP JUMP JUMPDEST PUSH1 0x0 DUP1 PUSH1 0x40 DUP4 DUP6 SUB SLT ISZERO PUSH2 0x1C18 JUMPI PUSH1 0x0 DUP1 REVERT JUMPDEST PUSH2 0x1C21 DUP4 PUSH2 0x1B08 JUMP JUMPDEST SWAP2 POP PUSH1 0x20 DUP4 ADD CALLDATALOAD PUSH8 0xFFFFFFFFFFFFFFFF DUP2 GT ISZERO PUSH2 0x1C3D JUMPI PUSH1 0x0 DUP1 REVERT JUMPDEST PUSH2 0x1C49 DUP6 DUP3 DUP7 ADD PUSH2 0x1B95 JUMP JUMPDEST SWAP2 POP POP SWAP3 POP SWAP3 SWAP1 POP JUMP JUMPDEST PUSH1 0x0 PUSH1 0x20 DUP3 DUP5 SUB SLT ISZERO PUSH2 0x1C65 JUMPI PUSH1 0x0 DUP1 REVERT JUMPDEST DUP2 CALLDATALOAD PUSH8 0xFFFFFFFFFFFFFFFF DUP2 GT ISZERO PUSH2 0x1C7C JUMPI PUSH1 0x0 DUP1 REVERT JUMPDEST PUSH2 0x1C88 DUP5 DUP3 DUP6 ADD PUSH2 0x1B95 JUMP JUMPDEST SWAP5 SWAP4 POP POP POP POP JUMP JUMPDEST PUSH1 0xA0 DUP2 MSTORE PUSH1 0x0 PUSH2 0x1CA3 PUSH1 0xA0 DUP4 ADD DUP9 PUSH2 0x1AC2 JUMP JUMPDEST SWAP1 POP DUP6 PUSH1 0x20 DUP4 ADD MSTORE DUP5 PUSH1 0x40 DUP4 ADD MSTORE DUP4 PUSH1 0x60 DUP4 ADD MSTORE DUP3 ISZERO ISZERO PUSH1 0x80 DUP4 ADD MSTORE SWAP7 SWAP6 POP POP POP POP POP POP JUMP JUMPDEST PUSH1 0x0 DUP1 PUSH1 0x0 PUSH1 0x60 DUP5 DUP7 SUB SLT ISZERO PUSH2 0x1CDE JUMPI PUSH1 0x0 DUP1 REVERT JUMPDEST PUSH2 0x1CE7 DUP5 PUSH2 0x1B08 JUMP JUMPDEST SWAP3 POP PUSH2 0x1CF5 PUSH1 0x20 DUP6 ADD PUSH2 0x1B08 JUMP JUMPDEST SWAP2 POP PUSH1 0x40 DUP5 ADD CALLDATALOAD SWAP1 POP SWAP3 POP SWAP3 POP SWAP3 JUMP JUMPDEST PUSH1 0x0 PUSH2 0x100 DUP1 DUP4 MSTORE PUSH2 0x1D19 DUP2 DUP5 ADD DUP13 PUSH2 0x1AC2 JUMP JUMPDEST SWAP1 POP DUP3 DUP2 SUB PUSH1 0x20 DUP5 ADD MSTORE PUSH2 0x1D2D DUP2 DUP12 PUSH2 0x1AC2 JUMP JUMPDEST PUSH1 0x40 DUP5 ADD SWAP10 SWAP1 SWAP10 MSTORE POP POP PUSH1 0x60 DUP2 ADD SWAP6 SWAP1 SWAP6 MSTORE PUSH1 0x80 DUP6 ADD SWAP4 SWAP1 SWAP4 MSTORE PUSH1 0xA0 DUP5 ADD SWAP2 SWAP1 SWAP2 MSTORE PUSH1 0xC0 DUP4 ADD MSTORE ISZERO ISZERO PUSH1 0xE0 SWAP1 SWAP2 ADD MSTORE SWAP3 SWAP2 POP POP JUMP JUMPDEST PUSH1 0x0 PUSH1 0x20 DUP3 DUP5 SUB SLT ISZERO PUSH2 0x1D74 JUMPI PUSH1 0x0 DUP1 REVERT JUMPDEST PUSH2 0x1B01 DUP3 PUSH2 0x1B08 JUMP JUMPDEST PUSH1 0x0 PUSH1 0x20 DUP3 DUP5 SUB SLT ISZERO PUSH2 0x1D8F JUMPI PUSH1 0x0 DUP1 REVERT JUMPDEST POP CALLDATALOAD SWAP2 SWAP1 POP JUMP JUMPDEST PUSH1 0x0 PUSH8 0xFFFFFFFFFFFFFFFF DUP3 GT ISZERO PUSH2 0x1DB0 JUMPI PUSH2 0x1DB0 PUSH2 0x1B4E JUMP JUMPDEST POP PUSH1 0x5 SHL PUSH1 0x20 ADD SWAP1 JUMP JUMPDEST PUSH1 0x0 DUP3 PUSH1 0x1F DUP4 ADD SLT PUSH2 0x1DCB JUMPI PUSH1 0x0 DUP1 REVERT JUMPDEST DUP2 CALLDATALOAD PUSH1 0x20 PUSH2 0x1DE0 PUSH2 0x1DDB DUP4 PUSH2 0x1D96 JUMP JUMPDEST PUSH2 0x1B64 JUMP JUMPDEST DUP3 DUP2 MSTORE PUSH1 0x5 SWAP3 SWAP1 SWAP3 SHL DUP5 ADD DUP2 ADD SWAP2 DUP2 DUP2 ADD SWAP1 DUP7 DUP5 GT ISZERO PUSH2 0x1DFF JUMPI PUSH1 0x0 DUP1 REVERT JUMPDEST DUP3 DUP7 ADD JUMPDEST DUP5 DUP2 LT ISZERO PUSH2 0x1E1A JUMPI DUP1 CALLDATALOAD DUP4 MSTORE SWAP2 DUP4 ADD SWAP2 DUP4 ADD PUSH2 0x1E03 JUMP JUMPDEST POP SWAP7 SWAP6 POP POP POP POP POP POP JUMP JUMPDEST PUSH1 0x0 DUP1 PUSH1 0x40 DUP4 DUP6 SUB SLT ISZERO PUSH2 0x1E38 JUMPI PUSH1 0x0 DUP1 REVERT JUMPDEST DUP3 CALLDATALOAD PUSH8 0xFFFFFFFFFFFFFFFF DUP1 DUP3 GT ISZERO PUSH2 0x1E50 JUMPI PUSH1 0x0 DUP1 REVERT JUMPDEST DUP2 DUP6 ADD SWAP2 POP DUP6 PUSH1 0x1F DUP4 ADD SLT PUSH2 0x1E64 JUMPI PUSH1 0x0 DUP1 REVERT JUMPDEST DUP2 CALLDATALOAD PUSH1 0x20 PUSH2 0x1E74 PUSH2 0x1DDB DUP4 PUSH2 0x1D96 JUMP JUMPDEST DUP3 DUP2 MSTORE PUSH1 0x5 SWAP3 SWAP1 SWAP3 SHL DUP5 ADD DUP2 ADD SWAP2 DUP2 DUP2 ADD SWAP1 DUP10 DUP5 GT ISZERO PUSH2 0x1E93 JUMPI PUSH1 0x0 DUP1 REVERT JUMPDEST SWAP5 DUP3 ADD SWAP5 JUMPDEST DUP4 DUP7 LT ISZERO PUSH2 0x1EB8 JUMPI PUSH2 0x1EA9 DUP7 PUSH2 0x1B08 JUMP JUMPDEST DUP3 MSTORE SWAP5 DUP3 ADD SWAP5 SWAP1 DUP3 ADD SWAP1 PUSH2 0x1E98 JUMP JUMPDEST SWAP7 POP POP DUP7 ADD CALLDATALOAD SWAP3 POP POP DUP1 DUP3 GT ISZERO PUSH2 0x1ECE JUMPI PUSH1 0x0 DUP1 REVERT JUMPDEST POP PUSH2 0x1C49 DUP6 DUP3 DUP7 ADD PUSH2 0x1DBA JUMP JUMPDEST DUP1 CALLDATALOAD DUP1 ISZERO ISZERO DUP2 EQ PUSH2 0x1B1F JUMPI PUSH1 0x0 DUP1 REVERT JUMPDEST PUSH1 0x0 DUP1 PUSH1 0x0 DUP1 PUSH1 0x0 PUSH1 0xA0 DUP7 DUP9 SUB SLT ISZERO PUSH2 0x1F03 JUMPI PUSH1 0x0 DUP1 REVERT JUMPDEST DUP6 CALLDATALOAD PUSH8 0xFFFFFFFFFFFFFFFF DUP2 GT ISZERO PUSH2 0x1F1A JUMPI PUSH1 0x0 DUP1 REVERT JUMPDEST PUSH2 0x1F26 DUP9 DUP3 DUP10 ADD PUSH2 0x1B95 JUMP JUMPDEST SWAP6 POP POP PUSH1 0x20 DUP7 ADD CALLDATALOAD SWAP4 POP PUSH1 0x40 DUP7 ADD CALLDATALOAD SWAP3 POP PUSH1 0x60 DUP7 ADD CALLDATALOAD SWAP2 POP PUSH2 0x1F4A PUSH1 0x80 DUP8 ADD PUSH2 0x1EDB JUMP JUMPDEST SWAP1 POP SWAP3 SWAP6 POP SWAP3 SWAP6 SWAP1 SWAP4 POP JUMP JUMPDEST PUSH1 0x0 DUP1 PUSH1 0x40 DUP4 DUP6 SUB SLT ISZERO PUSH2 0x1F69 JUMPI PUSH1 0x0 DUP1 REVERT JUMPDEST PUSH2 0x1F72 DUP4 PUSH2 0x1B08 JUMP JUMPDEST SWAP2 POP PUSH2 0x1F80 PUSH1 0x20 DUP5 ADD PUSH2 0x1EDB JUMP JUMPDEST SWAP1 POP SWAP3 POP SWAP3 SWAP1 POP JUMP JUMPDEST PUSH1 0x0 DUP1 PUSH1 0x40 DUP4 DUP6 SUB SLT ISZERO PUSH2 0x1F9C JUMPI PUSH1 0x0 DUP1 REVERT JUMPDEST PUSH2 0x1FA5 DUP4 PUSH2 0x1B08 JUMP JUMPDEST SWAP2 POP PUSH2 0x1F80 PUSH1 0x20 DUP5 ADD PUSH2 0x1B08 JUMP JUMPDEST PUSH1 0x0 DUP1 PUSH1 0x0 DUP1 PUSH1 0x0 DUP1 PUSH1 0x0 PUSH1 0xE0 DUP9 DUP11 SUB SLT ISZERO PUSH2 0x1FCE JUMPI PUSH1 0x0 DUP1 REVERT JUMPDEST DUP8 CALLDATALOAD PUSH8 0xFFFFFFFFFFFFFFFF DUP1 DUP3 GT ISZERO PUSH2 0x1FE6 JUMPI PUSH1 0x0 DUP1 REVERT JUMPDEST PUSH2 0x1FF2 DUP12 DUP4 DUP13 ADD PUSH2 0x1B95 JUMP JUMPDEST SWAP9 POP PUSH1 0x20 DUP11 ADD CALLDATALOAD SWAP2 POP DUP1 DUP3 GT ISZERO PUSH2 0x2008 JUMPI PUSH1 0x0 DUP1 REVERT JUMPDEST POP PUSH2 0x2015 DUP11 DUP3 DUP12 ADD PUSH2 0x1B95 JUMP JUMPDEST SWAP8 SWAP11 SWAP8 SWAP10 POP POP POP POP PUSH1 0x40 DUP7 ADD CALLDATALOAD SWAP6 PUSH1 0x60 DUP2 ADD CALLDATALOAD SWAP6 PUSH1 0x80 DUP3 ADD CALLDATALOAD SWAP6 POP PUSH1 0xA0 DUP3 ADD CALLDATALOAD SWAP5 POP PUSH1 0xC0 SWAP1 SWAP2 ADD CALLDATALOAD SWAP3 POP SWAP1 POP JUMP JUMPDEST PUSH1 0x1 DUP2 DUP2 SHR SWAP1 DUP3 AND DUP1 PUSH2 0x2057 JUMPI PUSH1 0x7F DUP3 AND SWAP2 POP JUMPDEST PUSH1 0x20 DUP3 LT DUP2 SUB PUSH2 0x2077 JUMPI PUSH4 0x4E487B71 PUSH1 0xE0 SHL PUSH1 0x0 MSTORE PUSH1 0x22 PUSH1 0x4 MSTORE PUSH1 0x24 PUSH1 0x0 REVERT JUMPDEST POP SWAP2 SWAP1 POP JUMP JUMPDEST PUSH1 0x0 DUP3 MLOAD PUSH2 0x208F DUP2 DUP5 PUSH1 0x20 DUP8 ADD PUSH2 0x1A9E JUMP JUMPDEST SWAP2 SWAP1 SWAP2 ADD SWAP3 SWAP2 POP POP JUMP JUMPDEST PUSH4 0x4E487B71 PUSH1 0xE0 SHL PUSH1 0x0 MSTORE PUSH1 0x11 PUSH1 0x4 MSTORE PUSH1 0x24 PUSH1 0x0 REVERT JUMPDEST DUP1 DUP3 ADD DUP1 DUP3 GT ISZERO PUSH2 0x547 JUMPI PUSH2 0x547 PUSH2 0x2099 JUMP JUMPDEST PUSH4 0x4E487B71 PUSH1 0xE0 SHL PUSH1 0x0 MSTORE PUSH1 0x32 PUSH1 0x4 MSTORE PUSH1 0x24 PUSH1 0x0 REVERT JUMPDEST PUSH1 0x0 PUSH1 0x1 DUP3 ADD PUSH2 0x20EA JUMPI PUSH2 0x20EA PUSH2 0x2099 JUMP JUMPDEST POP PUSH1 0x1 ADD SWAP1 JUMP JUMPDEST PUSH1 0x1F DUP3 GT ISZERO PUSH2 0x94B JUMPI PUSH1 0x0 DUP2 DUP2 MSTORE PUSH1 0x20 DUP2 KECCAK256 PUSH1 0x1F DUP6 ADD PUSH1 0x5 SHR DUP2 ADD PUSH1 0x20 DUP7 LT ISZERO PUSH2 0x2118 JUMPI POP DUP1 JUMPDEST PUSH1 0x1F DUP6 ADD PUSH1 0x5 SHR DUP3 ADD SWAP2 POP JUMPDEST DUP2 DUP2 LT ISZERO PUSH2 0x2137 JUMPI DUP3 DUP2 SSTORE PUSH1 0x1 ADD PUSH2 0x2124 JUMP JUMPDEST POP POP POP POP POP POP JUMP JUMPDEST DUP2 MLOAD PUSH8 0xFFFFFFFFFFFFFFFF DUP2 GT ISZERO PUSH2 0x2159 JUMPI PUSH2 0x2159 PUSH2 0x1B4E JUMP JUMPDEST PUSH2 0x216D DUP2 PUSH2 0x2167 DUP5 SLOAD PUSH2 0x2043 JUMP JUMPDEST DUP5 PUSH2 0x20F1 JUMP JUMPDEST PUSH1 0x20 DUP1 PUSH1 0x1F DUP4 GT PUSH1 0x1 DUP2 EQ PUSH2 0x21A2 JUMPI PUSH1 0x0 DUP5 ISZERO PUSH2 0x218A JUMPI POP DUP6 DUP4 ADD MLOAD JUMPDEST PUSH1 0x0 NOT PUSH1 0x3 DUP7 SWAP1 SHL SHR NOT AND PUSH1 0x1 DUP6 SWAP1 SHL OR DUP6 SSTORE PUSH2 0x2137 JUMP JUMPDEST PUSH1 0x0 DUP6 DUP2 MSTORE PUSH1 0x20 DUP2 KECCAK256 PUSH1 0x1F NOT DUP7 AND SWAP2 JUMPDEST DUP3 DUP2 LT ISZERO PUSH2 0x21D1 JUMPI DUP9 DUP7 ADD MLOAD DUP3 SSTORE SWAP5 DUP5 ADD SWAP5 PUSH1 0x1 SWAP1 SWAP2 ADD SWAP1 DUP5 ADD PUSH2 0x21B2 JUMP JUMPDEST POP DUP6 DUP3 LT ISZERO PUSH2 0x21EF JUMPI DUP8 DUP6 ADD MLOAD PUSH1 0x0 NOT PUSH1 0x3 DUP9 SWAP1 SHL PUSH1 0xF8 AND SHR NOT AND DUP2 SSTORE JUMPDEST POP POP POP POP POP PUSH1 0x1 SWAP1 DUP2 SHL ADD SWAP1 SSTORE POP JUMP JUMPDEST PUSH1 0x40 DUP2 MSTORE PUSH1 0x0 PUSH2 0x2212 PUSH1 0x40 DUP4 ADD DUP6 PUSH2 0x1AC2 JUMP JUMPDEST SWAP1 POP DUP3 PUSH1 0x20 DUP4 ADD MSTORE SWAP4 SWAP3 POP POP POP JUMP JUMPDEST PUSH1 0x40 DUP2 MSTORE PUSH1 0x0 PUSH2 0x2234 PUSH1 0x40 DUP4 ADD DUP6 PUSH2 0x1AC2 JUMP JUMPDEST SWAP1 POP DUP3 ISZERO ISZERO PUSH1 0x20 DUP4 ADD MSTORE SWAP4 SWAP3 POP POP POP JUMP JUMPDEST PUSH1 0x0 DUP8 MLOAD PUSH2 0x2257 DUP2 DUP5 PUSH1 0x20 DUP13 ADD PUSH2 0x1A9E JUMP JUMPDEST DUP8 MLOAD SWAP1 DUP4 ADD SWAP1 PUSH2 0x226B DUP2 DUP4 PUSH1 0x20 DUP13 ADD PUSH2 0x1A9E JUMP JUMPDEST ADD SWAP6 DUP7 MSTORE POP POP PUSH1 0x20 DUP5 ADD SWAP3 SWAP1 SWAP3 MSTORE PUSH1 0x40 DUP4 ADD MSTORE PUSH1 0x60 DUP3 ADD MSTORE PUSH1 0x80 ADD SWAP3 SWAP2 POP POP JUMP JUMPDEST DUP1 DUP3 MUL DUP2 ISZERO DUP3 DUP3 DIV DUP5 EQ OR PUSH2 0x547 JUMPI PUSH2 0x547 PUSH2 0x2099 JUMP JUMPDEST PUSH1 0x0 DUP3 PUSH2 0x22C0 JUMPI PUSH4 0x4E487B71 PUSH1 0xE0 SHL PUSH1 0x0 MSTORE PUSH1 0x12 PUSH1 0x4 MSTORE PUSH1 0x24 PUSH1 0x0 REVERT JUMPDEST POP DIV SWAP1 JUMP INVALID LOG2 PUSH5 0x6970667358 0x22 SLT KECCAK256 PUSH19 0xD3FDFC96C7AEB807636A18F0F398E06075DD48 PUSH6 0xBED27B9485D6 DUP8 0xD2 PUSH1 0x39 PUSH14 0x64736F6C63430008130033000000 "},"methodIdentifiers":{"MAX_EXECUTION_TIME()":"614f3e1a","MAX_INPUT_SIZE()":"94581f0f","MIN_EXECUTION_TIME()":"7356fd12","MIN_INPUT_SIZE()":"59d7c5a1","allowance(address,address)":"dd62ed3e","approve(address,uint256)":"095ea7b3","authorizedVerifiers(address)":"9a891716","balanceOf(address)":"70a08231","batchMint(address[],uint256[])":"68573107","burn(uint256)":"42966c68","decimals()":"313ce567","decreaseAllowance(address,uint256)":"a457c2d7","getUserWorkload(address)":"6ef15874","getWorkProof(string)":"25f7803e","increaseAllowance(address,uint256)":"39509351","isTaskCompleted(address,string)":"147d737d","name()":"06fdde03","owner()":"8da5cb5b","renounceOwnership()":"715018a6","setVerifier(address,bool)":"ac9b5671","submitWorkProof(string,string,uint256,uint256,uint256,uint256,bytes32)":"fdde7d28","symbol()":"95d89b41","taskRewards(string)":"1f2acad2","totalSupply()":"18160ddd","transfer(address,uint256)":"a9059cbb","transferFrom(address,address,uint256)":"23b872dd","transferOwnership(address)":"f2fde38b","updateTaskReward(string,uint256,uint256,uint256,bool)":"6fb7f417","userWorkloads(address)":"35a06c60","workProofs(string)":"d145e65f"}}}}}