{
  "_format": "hh-sol-artifact-1",
  "contractName": "WorkloadToken",
  "sourceName": "contracts/WorkloadToken.sol",
  "abi": [
    {
      "inputs": [
        {
          "internalType": "string",
          "name": "name_",
          "type": "string"
        },
        {
          "internalType": "string",
          "name": "symbol_",
          "type": "string"
        },
        {
          "internalType": "uint256",
          "name": "initialSupply",
          "type": "uint256"
        }
      ],
      "stateMutability": "nonpayable",
      "type": "constructor"
    },
    {
      "anonymous": false,
      "inputs": [
        {
          "indexed": true,
          "internalType": "address",
          "name": "owner",
          "type": "address"
        },
        {
          "indexed": true,
          "internalType": "address",
          "name": "spender",
          "type": "address"
        },
        {
          "indexed": false,
          "internalType": "uint256",
          "name": "value",
          "type": "uint256"
        }
      ],
      "name": "Approval",
      "type": "event"
    },
    {
      "anonymous": false,
      "inputs": [
        {
          "indexed": true,
          "internalType": "address",
          "name": "previousOwner",
          "type": "address"
        },
        {
          "indexed": true,
          "internalType": "address",
          "name": "newOwner",
          "type": "address"
        }
      ],
      "name": "OwnershipTransferred",
      "type": "event"
    },
    {
      "anonymous": false,
      "inputs": [
        {
          "indexed": false,
          "internalType": "string",
          "name": "toolName",
          "type": "string"
        },
        {
          "indexed": false,
          "internalType": "uint256",
          "name": "baseReward",
          "type": "uint256"
        }
      ],
      "name": "TaskRewardUpdated",
      "type": "event"
    },
    {
      "anonymous": false,
      "inputs": [
        {
          "indexed": true,
          "internalType": "address",
          "name": "from",
          "type": "address"
        },
        {
          "indexed": true,
          "internalType": "address",
          "name": "to",
          "type": "address"
        },
        {
          "indexed": false,
          "internalType": "uint256",
          "name": "value",
          "type": "uint256"
        }
      ],
      "name": "Transfer",
      "type": "event"
    },
    {
      "anonymous": false,
      "inputs": [
        {
          "indexed": true,
          "internalType": "address",
          "name": "verifier",
          "type": "address"
        },
        {
          "indexed": false,
          "internalType": "bool",
          "name": "authorized",
          "type": "bool"
        }
      ],
      "name": "VerifierAuthorized",
      "type": "event"
    },
    {
      "anonymous": false,
      "inputs": [
        {
          "indexed": true,
          "internalType": "address",
          "name": "user",
          "type": "address"
        },
        {
          "indexed": false,
          "internalType": "string",
          "name": "taskId",
          "type": "string"
        },
        {
          "indexed": false,
          "internalType": "uint256",
          "name": "reward",
          "type": "uint256"
        }
      ],
      "name": "WorkProofSubmitted",
      "type": "event"
    },
    {
      "anonymous": false,
      "inputs": [
        {
          "indexed": false,
          "internalType": "string",
          "name": "taskId",
          "type": "string"
        },
        {
          "indexed": false,
          "internalType": "bool",
          "name": "verified",
          "type": "bool"
        }
      ],
      "name": "WorkProofVerified",
      "type": "event"
    },
    {
      "inputs": [],
      "name": "MAX_EXECUTION_TIME",
      "outputs": [
        {
          "internalType": "uint256",
          "name": "",
          "type": "uint256"
        }
      ],
      "stateMutability": "view",
      "type": "function"
    },
    {
      "inputs": [],
      "name": "MAX_INPUT_SIZE",
      "outputs": [
        {
          "internalType": "uint256",
          "name": "",
          "type": "uint256"
        }
      ],
      "stateMutability": "view",
      "type": "function"
    },
    {
      "inputs": [],
      "name": "MIN_EXECUTION_TIME",
      "outputs": [
        {
          "internalType": "uint256",
          "name": "",
          "type": "uint256"
        }
      ],
      "stateMutability": "view",
      "type": "function"
    },
    {
      "inputs": [],
      "name": "MIN_INPUT_SIZE",
      "outputs": [
        {
          "internalType": "uint256",
          "name": "",
          "type": "uint256"
        }
      ],
      "stateMutability": "view",
      "type": "function"
    },
    {
      "inputs": [
        {
          "internalType": "address",
          "name": "owner",
          "type": "address"
        },
        {
          "internalType": "address",
          "name": "spender",
          "type": "address"
        }
      ],
      "name": "allowance",
      "outputs": [
        {
          "internalType": "uint256",
          "name": "",
          "type": "uint256"
        }
      ],
      "stateMutability": "view",
      "type": "function"
    },
    {
      "inputs": [
        {
          "internalType": "address",
          "name": "spender",
          "type": "address"
        },
        {
          "internalType": "uint256",
          "name": "amount",
          "type": "uint256"
        }
      ],
      "name": "approve",
      "outputs": [
        {
          "internalType": "bool",
          "name": "",
          "type": "bool"
        }
      ],
      "stateMutability": "nonpayable",
      "type": "function"
    },
    {
      "inputs": [
        {
          "internalType": "address",
          "name": "",
          "type": "address"
        }
      ],
      "name": "authorizedVerifiers",
      "outputs": [
        {
          "internalType": "bool",
          "name": "",
          "type": "bool"
        }
      ],
      "stateMutability": "view",
      "type": "function"
    },
    {
      "inputs": [
        {
          "internalType": "address",
          "name": "account",
          "type": "address"
        }
      ],
      "name": "balanceOf",
      "outputs": [
        {
          "internalType": "uint256",
          "name": "",
          "type": "uint256"
        }
      ],
      "stateMutability": "view",
      "type": "function"
    },
    {
      "inputs": [
        {
          "internalType": "address[]",
          "name": "recipients",
          "type": "address[]"
        },
        {
          "internalType": "uint256[]",
          "name": "amounts",
          "type": "uint256[]"
        }
      ],
      "name": "batchMint",
      "outputs": [],
      "stateMutability": "nonpayable",
      "type": "function"
    },
    {
      "inputs": [
        {
          "internalType": "uint256",
          "name": "amount",
          "type": "uint256"
        }
      ],
      "name": "burn",
      "outputs": [],
      "stateMutability": "nonpayable",
      "type": "function"
    },
    {
      "inputs": [],
      "name": "decimals",
      "outputs": [
        {
          "internalType": "uint8",
          "name": "",
          "type": "uint8"
        }
      ],
      "stateMutability": "view",
      "type": "function"
    },
    {
      "inputs": [
        {
          "internalType": "address",
          "name": "spender",
          "type": "address"
        },
        {
          "internalType": "uint256",
          "name": "subtractedValue",
          "type": "uint256"
        }
      ],
      "name": "decreaseAllowance",
      "outputs": [
        {
          "internalType": "bool",
          "name": "",
          "type": "bool"
        }
      ],
      "stateMutability": "nonpayable",
      "type": "function"
    },
    {
      "inputs": [
        {
          "internalType": "address",
          "name": "user",
          "type": "address"
        }
      ],
      "name": "getUserWorkload",
      "outputs": [
        {
          "internalType": "uint256",
          "name": "totalTasks",
          "type": "uint256"
        },
        {
          "internalType": "uint256",
          "name": "totalTokensEarned",
          "type": "uint256"
        },
        {
          "internalType": "uint256",
          "name": "lastActivity",
          "type": "uint256"
        }
      ],
      "stateMutability": "view",
      "type": "function"
    },
    {
      "inputs": [
        {
          "internalType": "string",
          "name": "taskId",
          "type": "string"
        }
      ],
      "name": "getWorkProof",
      "outputs": [
        {
          "internalType": "string",
          "name": "",
          "type": "string"
        },
        {
          "internalType": "string",
          "name": "",
          "type": "string"
        },
        {
          "internalType": "uint256",
          "name": "",
          "type": "uint256"
        },
        {
          "internalType": "uint256",
          "name": "",
          "type": "uint256"
        },
        {
          "internalType": "uint256",
          "name": "",
          "type": "uint256"
        },
        {
          "internalType": "uint256",
          "name": "",
          "type": "uint256"
        },
        {
          "internalType": "bytes32",
          "name": "",
          "type": "bytes32"
        },
        {
          "internalType": "bool",
          "name": "",
          "type": "bool"
        }
      ],
      "stateMutability": "view",
      "type": "function"
    },
    {
      "inputs": [
        {
          "internalType": "address",
          "name": "spender",
          "type": "address"
        },
        {
          "internalType": "uint256",
          "name": "addedValue",
          "type": "uint256"
        }
      ],
      "name": "increaseAllowance",
      "outputs": [
        {
          "internalType": "bool",
          "name": "",
          "type": "bool"
        }
      ],
      "stateMutability": "nonpayable",
      "type": "function"
    },
    {
      "inputs": [
        {
          "internalType": "address",
          "name": "user",
          "type": "address"
        },
        {
          "internalType": "string",
          "name": "taskId",
          "type": "string"
        }
      ],
      "name": "isTaskCompleted",
      "outputs": [
        {
          "internalType": "bool",
          "name": "",
          "type": "bool"
        }
      ],
      "stateMutability": "view",
      "type": "function"
    },
    {
      "inputs": [],
      "name": "name",
      "outputs": [
        {
          "internalType": "string",
          "name": "",
          "type": "string"
        }
      ],
      "stateMutability": "view",
      "type": "function"
    },
    {
      "inputs": [],
      "name": "owner",
      "outputs": [
        {
          "internalType": "address",
          "name": "",
          "type": "address"
        }
      ],
      "stateMutability": "view",
      "type": "function"
    },
    {
      "inputs": [],
      "name": "renounceOwnership",
      "outputs": [],
      "stateMutability": "nonpayable",
      "type": "function"
    },
    {
      "inputs": [
        {
          "internalType": "address",
          "name": "verifier",
          "type": "address"
        },
        {
          "internalType": "bool",
          "name": "authorized",
          "type": "bool"
        }
      ],
      "name": "setVerifier",
      "outputs": [],
      "stateMutability": "nonpayable",
      "type": "function"
    },
    {
      "inputs": [
        {
          "internalType": "string",
          "name": "taskId",
          "type": "string"
        },
        {
          "internalType": "string",
          "name": "toolName",
          "type": "string"
        },
        {
          "internalType": "uint256",
          "name": "inputSize",
          "type": "uint256"
        },
        {
          "internalType": "uint256",
          "name": "outputSize",
          "type": "uint256"
        },
        {
          "internalType": "uint256",
          "name": "executionTime",
          "type": "uint256"
        },
        {
          "internalType": "uint256",
          "name": "timestamp",
          "type": "uint256"
        },
        {
          "internalType": "bytes32",
          "name": "proofHash",
          "type": "bytes32"
        }
      ],
      "name": "submitWorkProof",
      "outputs": [],
      "stateMutability": "nonpayable",
      "type": "function"
    },
    {
      "inputs": [],
      "name": "symbol",
      "outputs": [
        {
          "internalType": "string",
          "name": "",
          "type": "string"
        }
      ],
      "stateMutability": "view",
      "type": "function"
    },
    {
      "inputs": [
        {
          "internalType": "string",
          "name": "",
          "type": "string"
        }
      ],
      "name": "taskRewards",
      "outputs": [
        {
          "internalType": "string",
          "name": "toolName",
          "type": "string"
        },
        {
          "internalType": "uint256",
          "name": "baseReward",
          "type": "uint256"
        },
        {
          "internalType": "uint256",
          "name": "timeMultiplier",
          "type": "uint256"
        },
        {
          "internalType": "uint256",
          "name": "sizeMultiplier",
          "type": "uint256"
        },
        {
          "internalType": "bool",
          "name": "active",
          "type": "bool"
        }
      ],
      "stateMutability": "view",
      "type": "function"
    },
    {
      "inputs": [],
      "name": "totalSupply",
      "outputs": [
        {
          "internalType": "uint256",
          "name": "",
          "type": "uint256"
        }
      ],
      "stateMutability": "view",
      "type": "function"
    },
    {
      "inputs": [
        {
          "internalType": "address",
          "name": "to",
          "type": "address"
        },
        {
          "internalType": "uint256",
          "name": "amount",
          "type": "uint256"
        }
      ],
      "name": "transfer",
      "outputs": [
        {
          "internalType": "bool",
          "name": "",
          "type": "bool"
        }
      ],
      "stateMutability": "nonpayable",
      "type": "function"
    },
    {
      "inputs": [
        {
          "internalType": "address",
          "name": "from",
          "type": "address"
        },
        {
          "internalType": "address",
          "name": "to",
          "type": "address"
        },
        {
          "internalType": "uint256",
          "name": "amount",
          "type": "uint256"
        }
      ],
      "name": "transferFrom",
      "outputs": [
        {
          "internalType": "bool",
          "name": "",
          "type": "bool"
        }
      ],
      "stateMutability": "nonpayable",
      "type": "function"
    },
    {
      "inputs": [
        {
          "internalType": "address",
          "name": "newOwner",
          "type": "address"
        }
      ],
      "name": "transferOwnership",
      "outputs": [],
      "stateMutability": "nonpayable",
      "type": "function"
    },
    {
      "inputs": [
        {
          "internalType": "string",
          "name": "toolName",
          "type": "string"
        },
        {
          "internalType": "uint256",
          "name": "baseReward",
          "type": "uint256"
        },
        {
          "internalType": "uint256",
          "name": "timeMultiplier",
          "type": "uint256"
        },
        {
          "internalType": "uint256",
          "name": "sizeMultiplier",
          "type": "uint256"
        },
        {
          "internalType": "bool",
          "name": "active",
          "type": "bool"
        }
      ],
      "name": "updateTaskReward",
      "outputs": [],
      "stateMutability": "nonpayable",
      "type": "function"
    },
    {
      "inputs": [
        {
          "internalType": "address",
          "name": "",
          "type": "address"
        }
      ],
      "name": "userWorkloads",
      "outputs": [
        {
          "internalType": "uint256",
          "name": "totalTasks",
          "type": "uint256"
        },
        {
          "internalType": "uint256",
          "name": "totalTokensEarned",
          "type": "uint256"
        },
        {
          "internalType": "uint256",
          "name": "lastActivity",
          "type": "uint256"
        }
      ],
      "stateMutability": "view",
      "type": "function"
    },
    {
      "inputs": [
        {
          "internalType": "string",
          "name": "",
          "type": "string"
        }
      ],
      "name": "workProofs",
      "outputs": [
        {
          "internalType": "string",
          "name": "taskId",
          "type": "string"
        },
        {
          "internalType": "string",
          "name": "toolName",
          "type": "string"
        },
        {
          "internalType": "uint256",
          "name": "inputSize",
          "type": "uint256"
        },
        {
          "internalType": "uint256",
          "name": "outputSize",
          "type": "uint256"
        },
        {
          "internalType": "uint256",
          "name": "executionTime",
          "type": "uint256"
        },
        {
          "internalType": "uint256",
          "name": "timestamp",
          "type": "uint256"
        },
        {
          "internalType": "bytes32",
          "name": "proofHash",
          "type": "bytes32"
        },
        {
          "internalType": "bool",
          "name": "verified",
          "type": "bool"
        }
      ],
      "stateMutability": "view",
      "type": "function"
    }
  ],
  "bytecode": "0x60806040523480156200001157600080fd5b5060405162002c7538038062002c75833981016040819052620000349162000640565b8282600362000044838262000741565b50600462000053828262000741565b505050620000706200006a620000ad60201b60201c565b620000b1565b60016006556200009a33620000886012600a62000922565b6200009490846200093a565b62000103565b620000a4620001c9565b5050506200096a565b3390565b600580546001600160a01b038381166001600160a01b0319831681179093556040519116919082907f8be0079c531659141344cd1fd0a4f28419497f9722a3daafe3b4186f6b6457e090600090a35050565b6001600160a01b0382166200015e5760405162461bcd60e51b815260206004820152601f60248201527f45524332303a206d696e7420746f20746865207a65726f206164647265737300604482015260640160405180910390fd5b806002600082825462000172919062000954565b90915550506001600160a01b038216600081815260208181526040808320805486019055518481527fddf252ad1be2c89b69c2b068fc378daa952ba7f163c4a11628f55a4df523b3ef910160405180910390a35050565b6040805160e08101909152600f60a082019081526e746578742d70726f63657373696e6760881b60c0830152815260208101620002096012600a62000922565b6200021690600a6200093a565b81526020016103e881526020016064815260200160011515815250600960405162000256906e746578742d70726f63657373696e6760881b8152600f0190565b9081526040519081900360200190208151819062000275908262000741565b5060208281015160018301556040808401516002840155606084015160038401556080909301516004909201805460ff191692151592909217909155815160e08101909252600e60a083019081526d696d6167652d616e616c7973697360901b60c084015282528101620002e7601290565b620002f490600a62000922565b620003019060326200093a565b81526020016107d081526020016103e8815260200160011515815250600960405162000341906d696d6167652d616e616c7973697360901b8152600e0190565b9081526040519081900360200190208151819062000360908262000741565b5060208281015160018301556040808401516002840155606084015160038401556080909301516004909201805460ff191692151592909217909155815160e08101909252601060a083019081526f3230ba3096b1b0b631bab630ba34b7b760811b60c084015282528101620003d4601290565b620003e190600a62000922565b620003ee9060056200093a565b81526020016101f48152602001603281526020016001151581525060096040516200042f906f3230ba3096b1b0b631bab630ba34b7b760811b815260100190565b908152604051908190036020019020815181906200044e908262000741565b5060208281015160018301556040808401516002840155606084015160038401556080909301516004909201805460ff191692151592909217909155815160e08101909252600f60a083019081526e3334b63296b1b7b73b32b939b4b7b760891b60c084015282528101620004c1601290565b620004ce90600a62000922565b620004db90601e6200093a565b81526020016105dc81526020016101f481526020016001151581525060096040516200051c906e3334b63296b1b7b73b32b939b4b7b760891b8152600f0190565b908152604051908190036020019020815181906200053b908262000741565b506020820151600182015560408201516002820155606082015160038201556080909101516004909101805460ff1916911515919091179055565b505050565b634e487b7160e01b600052604160045260246000fd5b600082601f830112620005a357600080fd5b81516001600160401b0380821115620005c057620005c06200057b565b604051601f8301601f19908116603f01168101908282118183101715620005eb57620005eb6200057b565b816040528381526020925086838588010111156200060857600080fd5b600091505b838210156200062c57858201830151818301840152908201906200060d565b600093810190920192909252949350505050565b6000806000606084860312156200065657600080fd5b83516001600160401b03808211156200066e57600080fd5b6200067c8783880162000591565b945060208601519150808211156200069357600080fd5b50620006a28682870162000591565b925050604084015190509250925092565b600181811c90821680620006c857607f821691505b602082108103620006e957634e487b7160e01b600052602260045260246000fd5b50919050565b601f8211156200057657600081815260208120601f850160051c81016020861015620007185750805b601f850160051c820191505b81811015620007395782815560010162000724565b505050505050565b81516001600160401b038111156200075d576200075d6200057b565b62000775816200076e8454620006b3565b84620006ef565b602080601f831160018114620007ad5760008415620007945750858301515b600019600386901b1c1916600185901b17855562000739565b600085815260208120601f198616915b82811015620007de57888601518255948401946001909101908401620007bd565b5085821015620007fd5787850151600019600388901b60f8161c191681555b5050505050600190811b01905550565b634e487b7160e01b600052601160045260246000fd5b600181815b80851115620008645781600019048211156200084857620008486200080d565b808516156200085657918102915b93841c939080029062000828565b509250929050565b6000826200087d575060016200091c565b816200088c575060006200091c565b8160018114620008a55760028114620008b057620008d0565b60019150506200091c565b60ff841115620008c457620008c46200080d565b50506001821b6200091c565b5060208310610133831016604e8410600b8410161715620008f5575081810a6200091c565b62000901838362000823565b80600019048211156200091857620009186200080d565b0290505b92915050565b60006200093360ff8416836200086c565b9392505050565b80820281158282048414176200091c576200091c6200080d565b808201808211156200091c576200091c6200080d565b6122fb806200097a6000396000f3fe608060405234801561001057600080fd5b50600436106101da5760003560e01c80636fb7f417116101045780639a891716116100a2578063d145e65f11610071578063d145e65f14610455578063dd62ed3e14610468578063f2fde38b1461047b578063fdde7d281461048e57600080fd5b80639a891716146103f9578063a457c2d71461041c578063a9059cbb1461042f578063ac9b56711461044257600080fd5b80637356fd12116100de5780637356fd12146103c35780638da5cb5b146103cc57806394581f0f146103e757806395d89b41146103f157600080fd5b80636fb7f4171461037f57806370a0823114610392578063715018a6146103bb57600080fd5b8063313ce5671161017c57806359d7c5a11161014b57806359d7c5a114610324578063614f3e1a1461032c57806368573107146103365780636ef158741461034957600080fd5b8063313ce567146102a357806335a06c60146102b257806339509351146102fc57806342966c681461030f57600080fd5b806318160ddd116101b857806318160ddd146102335780631f2acad21461024557806323b872dd1461026957806325f7803e1461027c57600080fd5b806306fdde03146101df578063095ea7b3146101fd578063147d737d14610220575b600080fd5b6101e76104a1565b6040516101f49190611aee565b60405180910390f35b61021061020b366004611b24565b610533565b60405190151581526020016101f4565b61021061022e366004611c05565b61054d565b6002545b6040519081526020016101f4565b610258610253366004611c53565b610594565b6040516101f4959493929190611c90565b610210610277366004611cc9565b610659565b61028f61028a366004611c53565b61067d565b6040516101f4989796959493929190611d05565b604051601281526020016101f4565b6102e16102c0366004611d62565b60076020526000908152604090208054600182015460029092015490919083565b604080519384526020840192909252908201526060016101f4565b61021061030a366004611b24565b61086c565b61032261031d366004611d7d565b61088e565b005b610237600181565b610237620493e081565b610322610344366004611e25565b61089b565b6102e1610357366004611d62565b6001600160a01b03166000908152600760205260409020805460018201546002909201549092565b61032261038d366004611eeb565b610950565b6102376103a0366004611d62565b6001600160a01b031660009081526020819052604090205490565b610322610a27565b6102376103e881565b6005546040516001600160a01b0390911681526020016101f4565b6102376298968081565b6101e7610a3b565b610210610407366004611d62565b600a6020526000908152604090205460ff1681565b61021061042a366004611b24565b610a4a565b61021061043d366004611b24565b610ac5565b610322610450366004611f56565b610ad3565b61028f610463366004611c53565b610b3a565b610237610476366004611f89565b610c9b565b610322610489366004611d62565b610cc6565b61032261049c366004611fb3565b610d3c565b6060600380546104b090612043565b80601f01602080910402602001604051908101604052809291908181526020018280546104dc90612043565b80156105295780601f106104fe57610100808354040283529160200191610529565b820191906000526020600020905b81548152906001019060200180831161050c57829003601f168201915b5050505050905090565b600033610541818585611141565b60019150505b92915050565b6001600160a01b038216600090815260076020526040808220905160039091019061057990849061207d565b9081526040519081900360200190205460ff16905092915050565b80516020818301810180516009825292820191909301209152805481906105ba90612043565b80601f01602080910402602001604051908101604052809291908181526020018280546105e690612043565b80156106335780601f1061060857610100808354040283529160200191610633565b820191906000526020600020905b81548152906001019060200180831161061657829003601f168201915b505050506001830154600284015460038501546004909501549394919390925060ff1685565b600033610667858285611265565b6106728585856112df565b506001949350505050565b606080600080600080600080600060088a60405161069b919061207d565b9081526020016040518091039020604051806101000160405290816000820180546106c590612043565b80601f01602080910402602001604051908101604052809291908181526020018280546106f190612043565b801561073e5780601f106107135761010080835404028352916020019161073e565b820191906000526020600020905b81548152906001019060200180831161072157829003601f168201915b5050505050815260200160018201805461075790612043565b80601f016020809104026020016040519081016040528092919081815260200182805461078390612043565b80156107d05780601f106107a5576101008083540402835291602001916107d0565b820191906000526020600020905b8154815290600101906020018083116107b357829003601f168201915b5050505050815260200160028201548152602001600382015481526020016004820154815260200160058201548152602001600682015481526020016007820160009054906101000a900460ff1615151515815250509050806000015181602001518260400151836060015184608001518560a001518660c001518760e001519850985098509850985098509850985050919395975091939597565b60003361054181858561087f8383610c9b565b61088991906120af565b611141565b6108983382611483565b50565b6108a36115b5565b80518251146108f15760405162461bcd60e51b8152602060048201526015602482015274e695b0e7bb84e995bfe5baa6e4b88de58cb9e9858d60581b60448201526064015b60405180910390fd5b60005b825181101561094b57610939838281518110610912576109126120c2565b602002602001015183838151811061092c5761092c6120c2565b602002602001015161160f565b80610943816120d8565b9150506108f4565b505050565b6109586115b5565b6040518060a00160405280868152602001858152602001848152602001838152602001821515815250600986604051610991919061207d565b908152604051908190036020019020815181906109ae908261213f565b50602082015160018201556040808301516002830155606083015160038301556080909201516004909101805460ff1916911515919091179055517fc36e62caa9f12b45304d4f0542acd0e1c8076b6e9b698d137e4d188b18ac7fda90610a1890879087906121ff565b60405180910390a15050505050565b610a2f6115b5565b610a3960006116ce565b565b6060600480546104b090612043565b60003381610a588286610c9b565b905083811015610ab85760405162461bcd60e51b815260206004820152602560248201527f45524332303a2064656372656173656420616c6c6f77616e63652062656c6f77604482015264207a65726f60d81b60648201526084016108e8565b6106728286868403611141565b6000336105418185856112df565b610adb6115b5565b6001600160a01b0382166000818152600a6020908152604091829020805460ff191685151590811790915591519182527f549bea741606fea6131feb992ab8021bef3bb5dfc19f6d30184944614a875459910160405180910390a25050565b8051602081830181018051600882529282019190930120915280548190610b6090612043565b80601f0160208091040260200160405190810160405280929190818152602001828054610b8c90612043565b8015610bd95780601f10610bae57610100808354040283529160200191610bd9565b820191906000526020600020905b815481529060010190602001808311610bbc57829003601f168201915b505050505090806001018054610bee90612043565b80601f0160208091040260200160405190810160405280929190818152602001828054610c1a90612043565b8015610c675780601f10610c3c57610100808354040283529160200191610c67565b820191906000526020600020905b815481529060010190602001808311610c4a57829003601f168201915b5050506002840154600385015460048601546005870154600688015460079098015496979396929550909350919060ff1688565b6001600160a01b03918216600090815260016020908152604080832093909416825291909152205490565b610cce6115b5565b6001600160a01b038116610d335760405162461bcd60e51b815260206004820152602660248201527f4f776e61626c653a206e6577206f776e657220697320746865207a65726f206160448201526564647265737360d01b60648201526084016108e8565b610898816116ce565b610d44611720565b6000875111610d8c5760405162461bcd60e51b8152602060048201526014602482015273725dddf2c550a4a2725c46f441def25c5d73d4dd60611b60448201526064016108e8565b6000865111610ddd5760405162461bcd60e51b815260206004820152601860248201527fe5b7a5e585b7e5908de7a7b0e4b88de883bde4b8bae7a9ba000000000000000060448201526064016108e8565b60018510158015610df15750629896808511155b610e3d5760405162461bcd60e51b815260206004820152601860248201527fe8be93e585a5e5a4a7e5b08fe8b685e587bae88c83e59bb4000000000000000060448201526064016108e8565b6103e88310158015610e525750620493e08311155b610e9e5760405162461bcd60e51b815260206004820152601860248201527fe689a7e8a18ce697b6e997b4e8b685e587bae88c83e59bb4000000000000000060448201526064016108e8565b600887604051610eae919061207d565b908152602001604051809103902060050154600014610f015760405162461bcd60e51b815260206004820152600f60248201526e1c97777cb1543cb6f65cb5b31cb395608b1b60448201526064016108e8565b600060405180610100016040528089815260200188815260200187815260200186815260200185815260200184815260200183815260200160001515815250905080600889604051610f53919061207d565b90815260405190819003602001902081518190610f70908261213f565b5060208201516001820190610f85908261213f565b5060408201516002820155606082015160038201556080820151600482015560a0820151600582015560c0820151600682015560e0909101516007909101805460ff19169115159190911790556000610fdd82611779565b905080156110f357600160088a604051610ff7919061207d565b908152604051908190036020019020600701805491151560ff199092169190911790556000611028898989896118d4565b336000908152600760205260408120805492935091908290611049836120d8565b91905055508181600101600082825461106291906120af565b90915550504260028201556040516001906003830190611083908e9061207d565b908152604051908190036020019020805491151560ff199092169190911790556110ad338361160f565b336001600160a01b03167f7cfd51919227239f8b24cd3907aa75aecb89c339517fd6fe0ae9d6377cc3ff498c846040516110e89291906121ff565b60405180910390a250505b7fe29ac9dd3bab60a3142b364ceea7dd7e0d15dab946f65b5372a2d971f5a759bf8982604051611124929190612221565b60405180910390a150506111386001600655565b50505050505050565b6001600160a01b0383166111a35760405162461bcd60e51b8152602060048201526024808201527f45524332303a20617070726f76652066726f6d20746865207a65726f206164646044820152637265737360e01b60648201526084016108e8565b6001600160a01b0382166112045760405162461bcd60e51b815260206004820152602260248201527f45524332303a20617070726f766520746f20746865207a65726f206164647265604482015261737360f01b60648201526084016108e8565b6001600160a01b0383811660008181526001602090815260408083209487168084529482529182902085905590518481527f8c5be1e5ebec7d5bd14f71427d1e84f3dd0314c0f7b2291e5b200ac8c7c3b925910160405180910390a3505050565b60006112718484610c9b565b905060001981146112d957818110156112cc5760405162461bcd60e51b815260206004820152601d60248201527f45524332303a20696e73756666696369656e7420616c6c6f77616e636500000060448201526064016108e8565b6112d98484848403611141565b50505050565b6001600160a01b0383166113435760405162461bcd60e51b815260206004820152602560248201527f45524332303a207472616e736665722066726f6d20746865207a65726f206164604482015264647265737360d81b60648201526084016108e8565b6001600160a01b0382166113a55760405162461bcd60e51b815260206004820152602360248201527f45524332303a207472616e7366657220746f20746865207a65726f206164647260448201526265737360e81b60648201526084016108e8565b6001600160a01b0383166000908152602081905260409020548181101561141d5760405162461bcd60e51b815260206004820152602660248201527f45524332303a207472616e7366657220616d6f756e7420657863656564732062604482015265616c616e636560d01b60648201526084016108e8565b6001600160a01b03848116600081815260208181526040808320878703905593871680835291849020805487019055925185815290927fddf252ad1be2c89b69c2b068fc378daa952ba7f163c4a11628f55a4df523b3ef910160405180910390a36112d9565b6001600160a01b0382166114e35760405162461bcd60e51b815260206004820152602160248201527f45524332303a206275726e2066726f6d20746865207a65726f206164647265736044820152607360f81b60648201526084016108e8565b6001600160a01b038216600090815260208190526040902054818110156115575760405162461bcd60e51b815260206004820152602260248201527f45524332303a206275726e20616d6f756e7420657863656564732062616c616e604482015261636560f01b60648201526084016108e8565b6001600160a01b0383166000818152602081815260408083208686039055600280548790039055518581529192917fddf252ad1be2c89b69c2b068fc378daa952ba7f163c4a11628f55a4df523b3ef910160405180910390a3505050565b6005546001600160a01b03163314610a395760405162461bcd60e51b815260206004820181905260248201527f4f776e61626c653a2063616c6c6572206973206e6f7420746865206f776e657260448201526064016108e8565b6001600160a01b0382166116655760405162461bcd60e51b815260206004820152601f60248201527f45524332303a206d696e7420746f20746865207a65726f20616464726573730060448201526064016108e8565b806002600082825461167791906120af565b90915550506001600160a01b038216600081815260208181526040808320805486019055518481527fddf252ad1be2c89b69c2b068fc378daa952ba7f163c4a11628f55a4df523b3ef910160405180910390a35050565b600580546001600160a01b038381166001600160a01b0319831681179093556040519116919082907f8be0079c531659141344cd1fd0a4f28419497f9722a3daafe3b4186f6b6457e090600090a35050565b6002600654036117725760405162461bcd60e51b815260206004820152601f60248201527f5265656e7472616e637947756172643a207265656e7472616e742063616c6c0060448201526064016108e8565b6002600655565b60008060098360200151604051611790919061207d565b90815260200160405180910390206040518060a00160405290816000820180546117b990612043565b80601f01602080910402602001604051908101604052809291908181526020018280546117e590612043565b80156118325780601f1061180757610100808354040283529160200191611832565b820191906000526020600020905b81548152906001019060200180831161181557829003601f168201915b505050918352505060018201546020820152600282015460408201526003820154606082015260049091015460ff16151560809182015281015190915061187c5750600092915050565b82516020808501516040808701516060880151608089015160a08a015193516000976118ac979096959101612245565b6040516020818303038152906040528051906020012090508360c00151811492505050919050565b6000806009866040516118e7919061207d565b90815260200160405180910390206040518060a001604052908160008201805461191090612043565b80601f016020809104026020016040519081016040528092919081815260200182805461193c90612043565b80156119895780601f1061195e57610100808354040283529160200191611989565b820191906000526020600020905b81548152906001019060200180831161196c57829003601f168201915b505050918352505060018201546020820152600282015460408201526003820154606082015260049091015460ff161515608091820152810151909150611a0a5760405162461bcd60e51b8152602060048201526015602482015274e4bbbbe58aa1e7b1bbe59e8be69caae6bf80e6b4bb60581b60448201526064016108e8565b602081015160408201516103e890611a22908661228c565b611a2c91906122a3565b611a3690826120af565b90506103e8826060015187611a4b919061228c565b611a5591906122a3565b611a5f90826120af565b90506103e8826060015186611a74919061228c565b611a7f90600261228c565b611a8991906122a3565b611a9390826120af565b979650505050505050565b60005b83811015611ab9578181015183820152602001611aa1565b50506000910152565b60008151808452611ada816020860160208601611a9e565b601f01601f19169290920160200192915050565b602081526000611b016020830184611ac2565b9392505050565b80356001600160a01b0381168114611b1f57600080fd5b919050565b60008060408385031215611b3757600080fd5b611b4083611b08565b946020939093013593505050565b634e487b7160e01b600052604160045260246000fd5b604051601f8201601f1916810167ffffffffffffffff81118282101715611b8d57611b8d611b4e565b604052919050565b600082601f830112611ba657600080fd5b813567ffffffffffffffff811115611bc057611bc0611b4e565b611bd3601f8201601f1916602001611b64565b818152846020838601011115611be857600080fd5b816020850160208301376000918101602001919091529392505050565b60008060408385031215611c1857600080fd5b611c2183611b08565b9150602083013567ffffffffffffffff811115611c3d57600080fd5b611c4985828601611b95565b9150509250929050565b600060208284031215611c6557600080fd5b813567ffffffffffffffff811115611c7c57600080fd5b611c8884828501611b95565b949350505050565b60a081526000611ca360a0830188611ac2565b905085602083015284604083015283606083015282151560808301529695505050505050565b600080600060608486031215611cde57600080fd5b611ce784611b08565b9250611cf560208501611b08565b9150604084013590509250925092565b6000610100808352611d198184018c611ac2565b90508281036020840152611d2d818b611ac2565b604084019990995250506060810195909552608085019390935260a084019190915260c0830152151560e09091015292915050565b600060208284031215611d7457600080fd5b611b0182611b08565b600060208284031215611d8f57600080fd5b5035919050565b600067ffffffffffffffff821115611db057611db0611b4e565b5060051b60200190565b600082601f830112611dcb57600080fd5b81356020611de0611ddb83611d96565b611b64565b82815260059290921b84018101918181019086841115611dff57600080fd5b8286015b84811015611e1a5780358352918301918301611e03565b509695505050505050565b60008060408385031215611e3857600080fd5b823567ffffffffffffffff80821115611e5057600080fd5b818501915085601f830112611e6457600080fd5b81356020611e74611ddb83611d96565b82815260059290921b84018101918181019089841115611e9357600080fd5b948201945b83861015611eb857611ea986611b08565b82529482019490820190611e98565b96505086013592505080821115611ece57600080fd5b50611c4985828601611dba565b80358015158114611b1f57600080fd5b600080600080600060a08688031215611f0357600080fd5b853567ffffffffffffffff811115611f1a57600080fd5b611f2688828901611b95565b955050602086013593506040860135925060608601359150611f4a60808701611edb565b90509295509295909350565b60008060408385031215611f6957600080fd5b611f7283611b08565b9150611f8060208401611edb565b90509250929050565b60008060408385031215611f9c57600080fd5b611fa583611b08565b9150611f8060208401611b08565b600080600080600080600060e0888a031215611fce57600080fd5b873567ffffffffffffffff80821115611fe657600080fd5b611ff28b838c01611b95565b985060208a013591508082111561200857600080fd5b506120158a828b01611b95565b979a9799505050506040860135956060810135956080820135955060a0820135945060c09091013592509050565b600181811c9082168061205757607f821691505b60208210810361207757634e487b7160e01b600052602260045260246000fd5b50919050565b6000825161208f818460208701611a9e565b9190910192915050565b634e487b7160e01b600052601160045260246000fd5b8082018082111561054757610547612099565b634e487b7160e01b600052603260045260246000fd5b6000600182016120ea576120ea612099565b5060010190565b601f82111561094b57600081815260208120601f850160051c810160208610156121185750805b601f850160051c820191505b8181101561213757828155600101612124565b505050505050565b815167ffffffffffffffff81111561215957612159611b4e565b61216d816121678454612043565b846120f1565b602080601f8311600181146121a2576000841561218a5750858301515b600019600386901b1c1916600185901b178555612137565b600085815260208120601f198616915b828110156121d1578886015182559484019460019091019084016121b2565b50858210156121ef5787850151600019600388901b60f8161c191681555b5050505050600190811b01905550565b6040815260006122126040830185611ac2565b90508260208301529392505050565b6040815260006122346040830185611ac2565b905082151560208301529392505050565b60008751612257818460208c01611a9e565b87519083019061226b818360208c01611a9e565b01958652505060208401929092526040830152606082015260800192915050565b808202811582820484141761054757610547612099565b6000826122c057634e487b7160e01b600052601260045260246000fd5b50049056fea264697066735822122072d3fdfc96c7aeb807636a18f0f398e06075dd4865bed27b9485d687d260396d64736f6c63430008130033",
  "linkReferences": {},
  "deployedLinkReferences": {}
}