{
  "_format": "hh-sol-artifact-1",
  "contractName": "WorkloadToken",
  "sourceName": "contracts/WorkloadToken.sol",
  "abi": [
    {
      "inputs": [
        {
          "internalType": "string",
          "name": "name_",
          "type": "string"
        },
        {
          "internalType": "string",
          "name": "symbol_",
          "type": "string"
        },
        {
          "internalType": "uint256",
          "name": "initialSupply",
          "type": "uint256"
        },
        {
          "internalType": "bytes32",
          "name": "key",
          "type": "bytes32"
        }
      ],
      "stateMutability": "nonpayable",
      "type": "constructor"
    },
    {
      "anonymous": false,
      "inputs": [
        {
          "indexed": true,
          "internalType": "bytes32",
          "name": "valueHash",
          "type": "bytes32"
        },
        {
          "indexed": false,
          "internalType": "uint256",
          "name": "amount",
          "type": "uint256"
        }
      ],
      "name": "AmountAuthorized",
      "type": "event"
    },
    {
      "anonymous": false,
      "inputs": [
        {
          "indexed": true,
          "internalType": "address",
          "name": "owner",
          "type": "address"
        },
        {
          "indexed": true,
          "internalType": "address",
          "name": "spender",
          "type": "address"
        },
        {
          "indexed": false,
          "internalType": "uint256",
          "name": "value",
          "type": "uint256"
        }
      ],
      "name": "Approval",
      "type": "event"
    },
    {
      "anonymous": false,
      "inputs": [
        {
          "indexed": true,
          "internalType": "address",
          "name": "caller",
          "type": "address"
        },
        {
          "indexed": false,
          "internalType": "bool",
          "name": "authorized",
          "type": "bool"
        }
      ],
      "name": "CallerAuthorized",
      "type": "event"
    },
    {
      "anonymous": false,
      "inputs": [
        {
          "indexed": true,
          "internalType": "address",
          "name": "previousOwner",
          "type": "address"
        },
        {
          "indexed": true,
          "internalType": "address",
          "name": "newOwner",
          "type": "address"
        }
      ],
      "name": "OwnershipTransferred",
      "type": "event"
    },
    {
      "anonymous": false,
      "inputs": [
        {
          "indexed": true,
          "internalType": "address",
          "name": "recipient",
          "type": "address"
        },
        {
          "indexed": true,
          "internalType": "bytes32",
          "name": "valueHash",
          "type": "bytes32"
        },
        {
          "indexed": false,
          "internalType": "uint256",
          "name": "amount",
          "type": "uint256"
        }
      ],
      "name": "TokensDistributed",
      "type": "event"
    },
    {
      "anonymous": false,
      "inputs": [
        {
          "indexed": true,
          "internalType": "address",
          "name": "from",
          "type": "address"
        },
        {
          "indexed": true,
          "internalType": "address",
          "name": "to",
          "type": "address"
        },
        {
          "indexed": false,
          "internalType": "uint256",
          "name": "value",
          "type": "uint256"
        }
      ],
      "name": "Transfer",
      "type": "event"
    },
    {
      "anonymous": false,
      "inputs": [
        {
          "indexed": true,
          "internalType": "bytes32",
          "name": "valueHash",
          "type": "bytes32"
        }
      ],
      "name": "ValueHashUsed",
      "type": "event"
    },
    {
      "inputs": [],
      "name": "MAX_AMOUNT",
      "outputs": [
        {
          "internalType": "uint256",
          "name": "",
          "type": "uint256"
        }
      ],
      "stateMutability": "view",
      "type": "function"
    },
    {
      "inputs": [],
      "name": "MIN_AMOUNT",
      "outputs": [
        {
          "internalType": "uint256",
          "name": "",
          "type": "uint256"
        }
      ],
      "stateMutability": "view",
      "type": "function"
    },
    {
      "inputs": [
        {
          "internalType": "address",
          "name": "owner",
          "type": "address"
        },
        {
          "internalType": "address",
          "name": "spender",
          "type": "address"
        }
      ],
      "name": "allowance",
      "outputs": [
        {
          "internalType": "uint256",
          "name": "",
          "type": "uint256"
        }
      ],
      "stateMutability": "view",
      "type": "function"
    },
    {
      "inputs": [
        {
          "internalType": "address",
          "name": "spender",
          "type": "address"
        },
        {
          "internalType": "uint256",
          "name": "amount",
          "type": "uint256"
        }
      ],
      "name": "approve",
      "outputs": [
        {
          "internalType": "bool",
          "name": "",
          "type": "bool"
        }
      ],
      "stateMutability": "nonpayable",
      "type": "function"
    },
    {
      "inputs": [
        {
          "internalType": "bytes32",
          "name": "valueHash",
          "type": "bytes32"
        },
        {
          "internalType": "uint256",
          "name": "amount",
          "type": "uint256"
        }
      ],
      "name": "authorizeAmount",
      "outputs": [],
      "stateMutability": "nonpayable",
      "type": "function"
    },
    {
      "inputs": [
        {
          "internalType": "bytes32",
          "name": "",
          "type": "bytes32"
        }
      ],
      "name": "authorizedAmounts",
      "outputs": [
        {
          "internalType": "uint256",
          "name": "",
          "type": "uint256"
        }
      ],
      "stateMutability": "view",
      "type": "function"
    },
    {
      "inputs": [
        {
          "internalType": "address",
          "name": "",
          "type": "address"
        }
      ],
      "name": "authorizedCallers",
      "outputs": [
        {
          "internalType": "bool",
          "name": "",
          "type": "bool"
        }
      ],
      "stateMutability": "view",
      "type": "function"
    },
    {
      "inputs": [
        {
          "internalType": "address",
          "name": "account",
          "type": "address"
        }
      ],
      "name": "balanceOf",
      "outputs": [
        {
          "internalType": "uint256",
          "name": "",
          "type": "uint256"
        }
      ],
      "stateMutability": "view",
      "type": "function"
    },
    {
      "inputs": [
        {
          "internalType": "bytes32[]",
          "name": "valueHashes",
          "type": "bytes32[]"
        },
        {
          "internalType": "uint256[]",
          "name": "amounts",
          "type": "uint256[]"
        }
      ],
      "name": "batchAuthorizeAmounts",
      "outputs": [],
      "stateMutability": "nonpayable",
      "type": "function"
    },
    {
      "inputs": [
        {
          "internalType": "uint256",
          "name": "amount",
          "type": "uint256"
        }
      ],
      "name": "burn",
      "outputs": [],
      "stateMutability": "nonpayable",
      "type": "function"
    },
    {
      "inputs": [],
      "name": "decimals",
      "outputs": [
        {
          "internalType": "uint8",
          "name": "",
          "type": "uint8"
        }
      ],
      "stateMutability": "pure",
      "type": "function"
    },
    {
      "inputs": [
        {
          "internalType": "address",
          "name": "spender",
          "type": "address"
        },
        {
          "internalType": "uint256",
          "name": "subtractedValue",
          "type": "uint256"
        }
      ],
      "name": "decreaseAllowance",
      "outputs": [
        {
          "internalType": "bool",
          "name": "",
          "type": "bool"
        }
      ],
      "stateMutability": "nonpayable",
      "type": "function"
    },
    {
      "inputs": [
        {
          "internalType": "bytes32",
          "name": "valueHash",
          "type": "bytes32"
        },
        {
          "internalType": "address",
          "name": "recipient",
          "type": "address"
        }
      ],
      "name": "distributeTokens",
      "outputs": [],
      "stateMutability": "nonpayable",
      "type": "function"
    },
    {
      "inputs": [
        {
          "internalType": "bytes32",
          "name": "valueHash",
          "type": "bytes32"
        }
      ],
      "name": "getAuthorizedAmount",
      "outputs": [
        {
          "internalType": "uint256",
          "name": "",
          "type": "uint256"
        }
      ],
      "stateMutability": "view",
      "type": "function"
    },
    {
      "inputs": [
        {
          "internalType": "address",
          "name": "spender",
          "type": "address"
        },
        {
          "internalType": "uint256",
          "name": "addedValue",
          "type": "uint256"
        }
      ],
      "name": "increaseAllowance",
      "outputs": [
        {
          "internalType": "bool",
          "name": "",
          "type": "bool"
        }
      ],
      "stateMutability": "nonpayable",
      "type": "function"
    },
    {
      "inputs": [
        {
          "internalType": "bytes32",
          "name": "valueHash",
          "type": "bytes32"
        }
      ],
      "name": "isValueHashUsed",
      "outputs": [
        {
          "internalType": "bool",
          "name": "",
          "type": "bool"
        }
      ],
      "stateMutability": "view",
      "type": "function"
    },
    {
      "inputs": [],
      "name": "name",
      "outputs": [
        {
          "internalType": "string",
          "name": "",
          "type": "string"
        }
      ],
      "stateMutability": "view",
      "type": "function"
    },
    {
      "inputs": [],
      "name": "owner",
      "outputs": [
        {
          "internalType": "address",
          "name": "",
          "type": "address"
        }
      ],
      "stateMutability": "view",
      "type": "function"
    },
    {
      "inputs": [],
      "name": "renounceOwnership",
      "outputs": [],
      "stateMutability": "nonpayable",
      "type": "function"
    },
    {
      "inputs": [
        {
          "internalType": "address",
          "name": "caller",
          "type": "address"
        },
        {
          "internalType": "bool",
          "name": "authorized",
          "type": "bool"
        }
      ],
      "name": "setAuthorizedCaller",
      "outputs": [],
      "stateMutability": "nonpayable",
      "type": "function"
    },
    {
      "inputs": [],
      "name": "symbol",
      "outputs": [
        {
          "internalType": "string",
          "name": "",
          "type": "string"
        }
      ],
      "stateMutability": "view",
      "type": "function"
    },
    {
      "inputs": [],
      "name": "totalSupply",
      "outputs": [
        {
          "internalType": "uint256",
          "name": "",
          "type": "uint256"
        }
      ],
      "stateMutability": "view",
      "type": "function"
    },
    {
      "inputs": [
        {
          "internalType": "address",
          "name": "to",
          "type": "address"
        },
        {
          "internalType": "uint256",
          "name": "amount",
          "type": "uint256"
        }
      ],
      "name": "transfer",
      "outputs": [
        {
          "internalType": "bool",
          "name": "",
          "type": "bool"
        }
      ],
      "stateMutability": "nonpayable",
      "type": "function"
    },
    {
      "inputs": [
        {
          "internalType": "address",
          "name": "from",
          "type": "address"
        },
        {
          "internalType": "address",
          "name": "to",
          "type": "address"
        },
        {
          "internalType": "uint256",
          "name": "amount",
          "type": "uint256"
        }
      ],
      "name": "transferFrom",
      "outputs": [
        {
          "internalType": "bool",
          "name": "",
          "type": "bool"
        }
      ],
      "stateMutability": "nonpayable",
      "type": "function"
    },
    {
      "inputs": [
        {
          "internalType": "address",
          "name": "newOwner",
          "type": "address"
        }
      ],
      "name": "transferOwnership",
      "outputs": [],
      "stateMutability": "nonpayable",
      "type": "function"
    },
    {
      "inputs": [
        {
          "internalType": "bytes32",
          "name": "",
          "type": "bytes32"
        }
      ],
      "name": "usedValueHashes",
      "outputs": [
        {
          "internalType": "bool",
          "name": "",
          "type": "bool"
        }
      ],
      "stateMutability": "view",
      "type": "function"
    }
  ],
  "bytecode": "0x60a06040523480156200001157600080fd5b5060405162001b0438038062001b048339810160408190526200003491620002a6565b83836003620000448382620003ae565b506004620000538282620003ae565b505050620000706200006a620000c060201b60201c565b620000c4565b60016006556200009a33620000886012600a6200058f565b620000949085620005a7565b62000116565b6080525050336000908152600860205260409020805460ff1916600117905550620005d7565b3390565b600580546001600160a01b038381166001600160a01b0319831681179093556040519116919082907f8be0079c531659141344cd1fd0a4f28419497f9722a3daafe3b4186f6b6457e090600090a35050565b6001600160a01b038216620001715760405162461bcd60e51b815260206004820152601f60248201527f45524332303a206d696e7420746f20746865207a65726f206164647265737300604482015260640160405180910390fd5b8060026000828254620001859190620005c1565b90915550506001600160a01b038216600081815260208181526040808320805486019055518481527fddf252ad1be2c89b69c2b068fc378daa952ba7f163c4a11628f55a4df523b3ef910160405180910390a35050565b505050565b634e487b7160e01b600052604160045260246000fd5b600082601f8301126200020957600080fd5b81516001600160401b0380821115620002265762000226620001e1565b604051601f8301601f19908116603f01168101908282118183101715620002515762000251620001e1565b816040528381526020925086838588010111156200026e57600080fd5b600091505b8382101562000292578582018301518183018401529082019062000273565b600093810190920192909252949350505050565b60008060008060808587031215620002bd57600080fd5b84516001600160401b0380821115620002d557600080fd5b620002e388838901620001f7565b95506020870151915080821115620002fa57600080fd5b506200030987828801620001f7565b604087015160609097015195989097509350505050565b600181811c908216806200033557607f821691505b6020821081036200035657634e487b7160e01b600052602260045260246000fd5b50919050565b601f821115620001dc57600081815260208120601f850160051c81016020861015620003855750805b601f850160051c820191505b81811015620003a65782815560010162000391565b505050505050565b81516001600160401b03811115620003ca57620003ca620001e1565b620003e281620003db845462000320565b846200035c565b602080601f8311600181146200041a5760008415620004015750858301515b600019600386901b1c1916600185901b178555620003a6565b600085815260208120601f198616915b828110156200044b578886015182559484019460019091019084016200042a565b50858210156200046a5787850151600019600388901b60f8161c191681555b5050505050600190811b01905550565b634e487b7160e01b600052601160045260246000fd5b600181815b80851115620004d1578160001904821115620004b557620004b56200047a565b80851615620004c357918102915b93841c939080029062000495565b509250929050565b600082620004ea5750600162000589565b81620004f95750600062000589565b81600181146200051257600281146200051d576200053d565b600191505062000589565b60ff8411156200053157620005316200047a565b50506001821b62000589565b5060208310610133831016604e8410600b841016171562000562575081810a62000589565b6200056e838362000490565b80600019048211156200058557620005856200047a565b0290505b92915050565b6000620005a060ff841683620004d9565b9392505050565b80820281158282048414176200058957620005896200047a565b808201808211156200058957620005896200047a565b608051611514620005f0600039600050506115146000f3fe608060405234801561001057600080fd5b506004361061018e5760003560e01c8063715018a6116100de578063babd2ea611610097578063dd62ed3e11610071578063dd62ed3e1461039d578063ddbcb5fa146103b0578063f2fde38b146103b8578063fa1162e5146103cb57600080fd5b8063babd2ea614610349578063d40dc87014610369578063d92c5aaa1461037a57600080fd5b8063715018a6146102e55780638da5cb5b146102ed57806395d89b4114610308578063a457c2d714610310578063a725568814610323578063a9059cbb1461033657600080fd5b80633a22694b1161014b578063454bbd2911610125578063454bbd2914610263578063536fff6c1461027657806353f1ef651461029957806370a08231146102bc57600080fd5b80633a22694b1461021b5780633d3cb5991461023b57806342966c681461025057600080fd5b806306fdde0314610193578063095ea7b3146101b157806318160ddd146101d457806323b872dd146101e6578063313ce567146101f95780633950935114610208575b600080fd5b61019b6103de565b6040516101a891906110c7565b60405180910390f35b6101c46101bf366004611131565b610470565b60405190151581526020016101a8565b6002545b6040519081526020016101a8565b6101c46101f436600461115b565b61048a565b604051601281526020016101a8565b6101c4610216366004611131565b6104ae565b6101d8610229366004611197565b60009081526009602052604090205490565b61024e6102493660046111b0565b6104d0565b005b61024e61025e366004611197565b610569565b61024e6102713660046111d2565b610576565b6101c461028436600461120e565b60086020526000908152604090205460ff1681565b6101c46102a7366004611197565b60076020526000908152604090205460ff1681565b6101d86102ca36600461120e565b6001600160a01b031660009081526020819052604090205490565b61024e6105d6565b6005546040516001600160a01b0390911681526020016101a8565b61019b6105ea565b6101c461031e366004611131565b6105f9565b61024e610331366004611306565b610674565b6101c4610344366004611131565b610807565b6101d8610357366004611197565b60096020526000908152604090205481565b6101d869d3c21bcecceda100000081565b6101c4610388366004611197565b60009081526007602052604090205460ff1690565b6101d86103ab3660046113bf565b610815565b6101d8600181565b61024e6103c636600461120e565b610840565b61024e6103d93660046113f2565b6108b6565b6060600380546103ed90611415565b80601f016020809104026020016040519081016040528092919081815260200182805461041990611415565b80156104665780601f1061043b57610100808354040283529160200191610466565b820191906000526020600020905b81548152906001019060200180831161044957829003601f168201915b5050505050905090565b60003361047e818585610a8f565b60019150505b92915050565b600033610498858285610bb3565b6104a3858585610c2d565b506001949350505050565b60003361047e8185856104c18383610815565b6104cb9190611465565b610a8f565b6104d8610dd1565b600181101580156104f3575069d3c21bcecceda10000008111155b6105185760405162461bcd60e51b815260040161050f90611478565b60405180910390fd5b600082815260096020526040908190208290555182907fab2ebb9340922b90e0f487e8b3e19c91f418142be6a724dcab28b2a3dc02cf209061055d9084815260200190565b60405180910390a25050565b6105733382610e2b565b50565b61057e610dd1565b6001600160a01b038216600081815260086020908152604091829020805460ff191685151590811790915591519182527f100c9fd652c7b273c9266f92f22ac2352eb8d7232013ac0439e9066a9227f369910161055d565b6105de610dd1565b6105e86000610f5d565b565b6060600480546103ed90611415565b600033816106078286610815565b9050838110156106675760405162461bcd60e51b815260206004820152602560248201527f45524332303a2064656372656173656420616c6c6f77616e63652062656c6f77604482015264207a65726f60d81b606482015260840161050f565b6104a38286868403610a8f565b61067c610dd1565b80518251146106c55760405162461bcd60e51b8152602060048201526015602482015274e695b0e7bb84e995bfe5baa6e4b88de58cb9e9858d60581b604482015260640161050f565b60005b82518110156108025760018282815181106106e5576106e56114af565b60200260200101511015801561071e575069d3c21bcecceda1000000828281518110610713576107136114af565b602002602001015111155b61073a5760405162461bcd60e51b815260040161050f90611478565b81818151811061074c5761074c6114af565b60200260200101516009600085848151811061076a5761076a6114af565b6020026020010151815260200190815260200160002081905550828181518110610796576107966114af565b60200260200101517fab2ebb9340922b90e0f487e8b3e19c91f418142be6a724dcab28b2a3dc02cf208383815181106107d1576107d16114af565b60200260200101516040516107e891815260200190565b60405180910390a2806107fa816114c5565b9150506106c8565b505050565b60003361047e818585610c2d565b6001600160a01b03918216600090815260016020908152604080832093909416825291909152205490565b610848610dd1565b6001600160a01b0381166108ad5760405162461bcd60e51b815260206004820152602660248201527f4f776e61626c653a206e6577206f776e657220697320746865207a65726f206160448201526564647265737360d01b606482015260840161050f565b61057381610f5d565b6108be610faf565b6001600160a01b03811661090c5760405162461bcd60e51b815260206004820152601560248201527401cd2f41cd2b11cf3509d32563cb190bcb3961cb3b605f1b604482015260640161050f565b60008281526007602052604090205460ff16156109635760405162461bcd60e51b81526020600482015260156024820152741c9776fcb0179cb2711cb7119cb6f65c97b7fcf295605b1b604482015260640161050f565b600082815260096020526040902054806109b75760405162461bcd60e51b815260206004820152601560248201527439a5e839a56239e6a1392eedf9602f3964e2396e23605a1b604482015260640161050f565b600181101580156109d2575069d3c21bcecceda10000008111155b6109ee5760405162461bcd60e51b815260040161050f90611478565b6000838152600760205260409020805460ff19166001179055610a118282611008565b82826001600160a01b03167f3114d953c89936d11b40a537715e5ec00bd91d2a95431058fa0c05d85a95c67d83604051610a4d91815260200190565b60405180910390a360405183907f3631112d82d1e32bfb4f91ed598702a05a6c587a830d0e43749996cbae50e42190600090a250610a8b6001600655565b5050565b6001600160a01b038316610af15760405162461bcd60e51b8152602060048201526024808201527f45524332303a20617070726f76652066726f6d20746865207a65726f206164646044820152637265737360e01b606482015260840161050f565b6001600160a01b038216610b525760405162461bcd60e51b815260206004820152602260248201527f45524332303a20617070726f766520746f20746865207a65726f206164647265604482015261737360f01b606482015260840161050f565b6001600160a01b0383811660008181526001602090815260408083209487168084529482529182902085905590518481527f8c5be1e5ebec7d5bd14f71427d1e84f3dd0314c0f7b2291e5b200ac8c7c3b925910160405180910390a3505050565b6000610bbf8484610815565b90506000198114610c275781811015610c1a5760405162461bcd60e51b815260206004820152601d60248201527f45524332303a20696e73756666696369656e7420616c6c6f77616e6365000000604482015260640161050f565b610c278484848403610a8f565b50505050565b6001600160a01b038316610c915760405162461bcd60e51b815260206004820152602560248201527f45524332303a207472616e736665722066726f6d20746865207a65726f206164604482015264647265737360d81b606482015260840161050f565b6001600160a01b038216610cf35760405162461bcd60e51b815260206004820152602360248201527f45524332303a207472616e7366657220746f20746865207a65726f206164647260448201526265737360e81b606482015260840161050f565b6001600160a01b03831660009081526020819052604090205481811015610d6b5760405162461bcd60e51b815260206004820152602660248201527f45524332303a207472616e7366657220616d6f756e7420657863656564732062604482015265616c616e636560d01b606482015260840161050f565b6001600160a01b03848116600081815260208181526040808320878703905593871680835291849020805487019055925185815290927fddf252ad1be2c89b69c2b068fc378daa952ba7f163c4a11628f55a4df523b3ef910160405180910390a3610c27565b6005546001600160a01b031633146105e85760405162461bcd60e51b815260206004820181905260248201527f4f776e61626c653a2063616c6c6572206973206e6f7420746865206f776e6572604482015260640161050f565b6001600160a01b038216610e8b5760405162461bcd60e51b815260206004820152602160248201527f45524332303a206275726e2066726f6d20746865207a65726f206164647265736044820152607360f81b606482015260840161050f565b6001600160a01b03821660009081526020819052604090205481811015610eff5760405162461bcd60e51b815260206004820152602260248201527f45524332303a206275726e20616d6f756e7420657863656564732062616c616e604482015261636560f01b606482015260840161050f565b6001600160a01b0383166000818152602081815260408083208686039055600280548790039055518581529192917fddf252ad1be2c89b69c2b068fc378daa952ba7f163c4a11628f55a4df523b3ef910160405180910390a3505050565b600580546001600160a01b038381166001600160a01b0319831681179093556040519116919082907f8be0079c531659141344cd1fd0a4f28419497f9722a3daafe3b4186f6b6457e090600090a35050565b6002600654036110015760405162461bcd60e51b815260206004820152601f60248201527f5265656e7472616e637947756172643a207265656e7472616e742063616c6c00604482015260640161050f565b6002600655565b6001600160a01b03821661105e5760405162461bcd60e51b815260206004820152601f60248201527f45524332303a206d696e7420746f20746865207a65726f206164647265737300604482015260640161050f565b80600260008282546110709190611465565b90915550506001600160a01b038216600081815260208181526040808320805486019055518481527fddf252ad1be2c89b69c2b068fc378daa952ba7f163c4a11628f55a4df523b3ef910160405180910390a35050565b600060208083528351808285015260005b818110156110f4578581018301518582016040015282016110d8565b506000604082860101526040601f19601f8301168501019250505092915050565b80356001600160a01b038116811461112c57600080fd5b919050565b6000806040838503121561114457600080fd5b61114d83611115565b946020939093013593505050565b60008060006060848603121561117057600080fd5b61117984611115565b925061118760208501611115565b9150604084013590509250925092565b6000602082840312156111a957600080fd5b5035919050565b600080604083850312156111c357600080fd5b50508035926020909101359150565b600080604083850312156111e557600080fd5b6111ee83611115565b91506020830135801515811461120357600080fd5b809150509250929050565b60006020828403121561122057600080fd5b61122982611115565b9392505050565b634e487b7160e01b600052604160045260246000fd5b604051601f8201601f1916810167ffffffffffffffff8111828210171561126f5761126f611230565b604052919050565b600067ffffffffffffffff82111561129157611291611230565b5060051b60200190565b600082601f8301126112ac57600080fd5b813560206112c16112bc83611277565b611246565b82815260059290921b840181019181810190868411156112e057600080fd5b8286015b848110156112fb57803583529183019183016112e4565b509695505050505050565b6000806040838503121561131957600080fd5b823567ffffffffffffffff8082111561133157600080fd5b818501915085601f83011261134557600080fd5b813560206113556112bc83611277565b82815260059290921b8401810191818101908984111561137457600080fd5b948201945b8386101561139257853582529482019490820190611379565b965050860135925050808211156113a857600080fd5b506113b58582860161129b565b9150509250929050565b600080604083850312156113d257600080fd5b6113db83611115565b91506113e960208401611115565b90509250929050565b6000806040838503121561140557600080fd5b823591506113e960208401611115565b600181811c9082168061142957607f821691505b60208210810361144957634e487b7160e01b600052602260045260246000fd5b50919050565b634e487b7160e01b600052601160045260246000fd5b808201808211156104845761048461144f565b60208082526018908201527fe4bba3e5b881e695b0e9878fe8b685e587bae88c83e59bb40000000000000000604082015260600190565b634e487b7160e01b600052603260045260246000fd5b6000600182016114d7576114d761144f565b506001019056fea2646970667358221220847d1591a75d132c51c0243cbc8d68cc7657ad7b528c18a912c0e10573c1ae6564736f6c63430008130033",
  "linkReferences": {},
  "deployedLinkReferences": {}
}